:020000040800F2
:1000000000000520795300088D0A00088F0A0008B7
:10001000910A0008930A0008950A000800000000F1
:100020000000000000000000000000003137000860
:10003000970A000800000000D13700087334000858
:10004000C9530008C9530008C9530008C953000820
:10005000C9530008C9530008C9530008C953000810
:10006000C9530008C9530008C9530008C953000800
:10007000990A0008C9530008C9530008C953000869
:10008000C9530008C9530008C9530008C9530008E0
:10009000C9530008C9530008C9530008C9530008D0
:1000A000C9530008C9530008C9530008C9530008C0
:1000B000C9530008C9530008C9530008C9530008B0
:1000C000C9530008C9530008C9530008C9530008A0
:1000D000C9530008C9530008C9530008C953000890
:1000E000C9530008C9530008C9530008C953000880
:1000F000C9530008C9530008C9530008C953000870
:10010000C9530008C9530008C9530008C95300085F
:10011000C9530008C9530008A90A0008C9530008B8
:10012000C9530008C9530008C9530008C95300083F
:10013000C9530008C9530008C9530008C95300082F
:10014000C9530008C9530008C9530008C95300081F
:10015000C9530008C9530008C9530008C95300080F
:10016000C9530008C9530008C9530008C9530008FF
:10017000C9530008C9530008C95300080000000013
:10018000C9530008C9530008C9530008C9530008DF
:10019000C9530008C9530008C9530008C9530008CF
:1001A000C9530008C9530008000000000000000007
:1001B00010B5054C237833B9044B13B10448AFF3A1
:1001C00000800123237010BD80000020000000008B
:1001D0009C55000808B5034B1BB103490348AFF316
:1001E000008008BD00000000840000209C5500082D
:1001F00000B587B000230093019302930393049307
:1002000005934A484A4A026043608360C360012202
:1002100002610821416103764376C16180F8203094
:100220004FF4B86181624FF48061C16280F8302080
:10023000436380F8383000F0EBFC00285AD13D4B86
:10024000009306230193022302937F230393042345
:100250000493002305936946344800F035FE0028D6
:100260004BD1354B00930C23019369462F4800F086
:100270002BFE002844D1314B009312230193694691
:100280002A4800F021FE00283DD12D4B0093182371
:1002900001936946254800F017FE002836D1294B06
:1002A00000934FF4807301936946204800F00CFEE0
:1002B00078BB254B00934FF48373019369461B4829
:1002C00000F002FE40BB214B00934FF48673019374
:1002D0006946164800F0F8FD08BB1D4B00934FF42B
:1002E000897301936946114800F0EEFDD0B907B05B
:1002F0005DF804FB00F00CFBA1E700F009FBB0E7A0
:1003000000F006FBB7E700F003FBBEE700F000FBE0
:10031000C5E700F0FDFACCE700F0FAFAD3E700F009
:10032000F7FADAE700F0F4FAE1E700BF080100208D
:1003300000010450000180210002B0250004002AC1
:100340000008302E00106032002090360040C03A85
:100350000080F03E70B5ACB0044600212791289192
:1003600029912A912B918C2204A805F02EF822685D
:100370003C4B9A4201D02CB070BD4FF480430493A3
:100380004FF080532393012305930693082307938B
:100390000223089309930A934FF080730B9304A8E8
:1003A00002F034FB002857D12F4BDA6C42F4005294
:1003B000DA64DA6C02F400520092009ADA6C42F0CD
:1003C0000102DA64DA6C02F001020192019ADA6C3D
:1003D00042F00402DA64DA6C02F004020292029A39
:1003E000DA6C42F00202DA64DB6C03F0020303937E
:1003F000039BF8232793032628960025299527A9F0
:100400004FF0904001F078FB3023279328962995F0
:1004100027A9164801F070FB0123279328962995F8
:1004200027A9134801F068FB1248134B036045608D
:100430008560C560802303614FF4007343614FF40E
:10044000006383612023C361056201F033FA30B990
:10045000084B23659C628EE700F05AFAA4E700F08F
:1004600057FAF5E700010450001002400008004868
:1004700000040048C00000201C00024008B5054BE5
:1004800000221A60044B186810B1024903F068FE9C
:1004900008BD00BF9C0000207001002008B5044882
:1004A00002F01CFD08220349034800F0ABFF08BD21
:1004B00054020020A00000200801002008B50322FB
:1004C0000021012003F0FDFC074B186048B104F047
:1004D000CBFC064B1860FFF7E1FF002004F094FB13
:1004E000FBE700BFF3E700BF7001002074010020AC
:1004F00008B50C480C4B0360042343600023836061
:10050000C3604FF4803202614361037643768376A1
:10051000C3760377437701F001F800B908BD00F016
:10052000F7F9FBE7A40100200064004008B50C487F
:100530000C4B03600423436000238360C3604FF4CB
:10054000803202614361037643768376C376037714
:10055000437700F0E3FF00B908BD00F0D9F9FBE7ED
:100560007C0100200068004070B58AB0002305932C
:1005700006930793089309930368374A934204D07C
:10058000364A93422AD00AB070BD354A1368013307
:100590001360012B17D0334BDA6C42F00202DA649D
:1005A000DB6C03F002030193019B4FF4407305934E
:1005B00002230693032308930923099305A92A48D4
:1005C00001F09AFADFE7274B9A6D42F000729A65C4
:1005D0009B6D03F000730093009BDCE7214B9A6D49
:1005E00042F080629A659B6D03F080630293029BE8
:1005F0001B4A136801331360012B22D0194BDA6CAC
:1006000042F00202DA64DB6C03F002030493049B01
:100610002023059302260696032408940994124D7C
:1006200005A9284601F068FA4023059306960023A1
:10063000079308940823099305A9284601F05CFA5A
:10064000A1E7084B9A6D42F000729A659B6D03F02A
:1006500000730393039BD1E70064004000680040EF
:1006600078010020001002400004004800B589B065
:1006700000221C21052003F024FC184B186068B1EF
:10068000174C204600F0F0FF642002F08CFF154B61
:10069000154A1649204601F015F80CE000BFEFE7B7
:1006A00000BF0EE00F4B079A01A90D4801F00AF8B0
:1006B000012002F078FF0A4B93F82030DBB2052BC3
:1006C000EED0064B18680028F2D04FF0FF3201A997
:1006D00003F09FFD0128EBD1E4E700BFF00100200B
:1006E000A4010020DC010020000000200800002000
:1006F00000B589B000221C21052003F0E2FB184B55
:10070000186068B1174C204600F0AEFF642002F07C
:100710004AFF154B154A1649204600F0D3FF0CE05E
:1007200000BFEFE700BF0EE00F4B079A01A90D488D
:1007300000F0C8FF012002F036FF0A4B93F820308A
:10074000DBB2052BEED0064B18680028F2D04FF034
:10075000FF3201A903F05DFD0128EBD1E4E700BF02
:10076000EC0100207C010020CC01002000000020D2
:100770000800002000B583B00A4B9A6C42F00102D9
:100780009A649B6C03F001030193019B00220521F5
:100790000C2001F061F80C2001F06EF803B05DF858
:1007A00004FB00BF0010024008B5642002F0FBFE0D
:1007B000FBE7000008B50421034801F09AFA4FF462
:1007C000FA7002F0F0FEF6E70010004808B5124A91
:1007D0000021124802F088FE114B1860114A0021D6
:1007E000114802F081FE114B1860114A0021114896
:1007F00002F07AFE104B1860104A0021104802F0F7
:1008000073FE104B1860104A0021104802F06CFE75
:100810000F4B186008BD00BF80560008A9070008EC
:10082000040200205C560008B50700080002002002
:10083000385600086D060008FC0100201456000818
:10084000F1060008F8010020F0550008BD0400087A
:10085000F401002030B58BB0002405940694079471
:1008600008940994214BDA6C42F01002DA64DA6CD5
:1008700002F010020192019ADA6C42F00102DA648D
:10088000DA6C02F001020292029ADA6C42F004027F
:10089000DA64DA6C02F004020392039ADA6C42F032
:1008A0000202DA64DB6C03F002030493049B104D34
:1008B00022460421284601F017FA04230593012358
:1008C00006930794089405A9284601F015F94FF4FA
:1008D000007305930223069307940894099305A9CE
:1008E000044801F009F90BB030BD00BF0010024010
:1008F000001000480008004808B50268034B9A42FF
:1009000000D008BD00F044F9FBE700BF0010004034
:1009100072B6FEE700B597B04422002105A804F0A6
:1009200054FD0023009301930293039304934FF427
:10093000007001F0EFF9D0B91023059301230B9358
:1009400000230C9380220D920F9305A801F0CCFA9E
:1009500078B90F2300930021019102910391049132
:10096000684601F0FFFD30B917B05DF804FBFFF7F2
:10097000CFFFFFF7CDFFFFF7CBFF08B500F0F8F88A
:10098000FFF7C8FFFFF766FFFFF7F4FEFFF7B0FDC4
:10099000FFF7CCFDFFF72CFC00F098F802F076FD95
:1009A000FFF714FF02F084FDFEE7000000B583B0FE
:1009B0000D4B1A6E42F001021A661A6E02F0010225
:1009C0000092009A9A6D42F080529A659B6D03F0F6
:1009D00080530193019B00220F216FF0010000F072
:1009E0003BFF03B05DF804FB0010024030B589B056
:1009F0000446214B9A6D42F010029A659B6D03F0FC
:100A000010030193019B02A903A801F087FE069B36
:100A1000CBB901F071FE0346184AA2FB03239B0CDD
:100A2000013B1748174A026040F2E732C260436058
:100A3000002303618360836102F00EFC054630B140
:100A4000284609B030BD01F057FE4300E4E70C48EA
:100A500002F086FA05460028F2D1362000F00CFF9D
:100A60000F2C01D90125EBE700222146362000F0AA
:100A7000F3FE054B1C60E3E70010024083DE1B43DE
:100A8000080200200010004028000020FEE7FEE7DA
:100A9000FEE7FEE7FEE7704708B5024800F0C9FF31
:100AA00008BD00BFC000002008B5024802F0A2FA4D
:100AB00008BD00BF08020020034AD2F8883043F482
:100AC0007003C2F88830704700ED00E000B589B0CF
:100AD00000230493059306930793019302930393D2
:100AE0001648174A026040F23F624260836031223A
:100AF000C26003614361836102F0AEFBA0B94FF4B1
:100B00008053049304A90D4802F0E4FB78B9202334
:100B1000019300230293039301A9084802F05AFCB1
:100B200040B909B05DF804FBFFF7F2FEE7E7FFF715
:100B3000EFFEECE7FFF7ECFEF3E700BF5402002006
:100B4000003401400268094B9A4200D0704782B0DD
:100B500003F55C431A6E42F400521A661B6E03F4EE
:100B600000530193019B02B0704700BF0034014065
:100B700010B5032000F05EFE0F20FFF737FF10B125
:100B80000124204610BD0446FFF710FFF9E70000DE
:100B9000034B1B78034A11680B441360704700BF76
:100BA00024000020A0020020014B1868704700BFFD
:100BB000A002002010B430300B0A9B0003F00C039D
:100BC000C45801F01F014FF01F0C0CFA01FC24EA7D
:100BD0000C0CC2F384628A404CEA0202C2505DF8F7
:100BE000044B704710B414304B0E9B0003F0040309
:100BF000C458C1F304514FF0070C0CFA01FC24EA6D
:100C00000C0C8A404CEA0202C2505DF8044B70475B
:100C100030B583B000230193002800F0ED80044636
:100C2000836D13B323689A6812F0005F05D09A6849
:100C300022F0204222F03F029A602268936813F06B
:100C4000805F1FD1936823F0104323F03F0343F0EC
:100C500080539360694B1B689B09694AA2FB03237D
:100C60009B0901335B00019309E0FFF773FB00234D
:100C7000E36584F85430D5E7019B013B0193019B68
:100C8000002BF9D12268936813F0805F40F08B80CD
:100C9000A36D43F01003A365E36D43F00103E36527
:100CA0000120936813F0040300D00123A16D11F01B
:100CB000100F40F09A80002B40F09780A36D23F432
:100CC000817343F00203A365936813F0010F1BD1F6
:100CD0004C4B9A6812F0010200D001224A4B9B68EB
:100CE00013F0010300D001231343484A926812F025
:100CF000010200D00122134306D1636844498A6887
:100D000022F47C1213438B60627E636B43EA4233AE
:100D1000E2681343A268134394F8202043EA024395
:100D2000012A42D0A26A22B102F47072E16A0A4337
:100D300013432168CD68374A2A401A43CA602168A4
:100D40008B6813F0040300D001238A6812F00802B4
:100D500000D00122C3B9BAB9E36C227E43EA8233E0
:100D600094F8302043EA4202CB6823F4804323F016
:100D700006031343CB6094F83830012B1AD0226855
:100D8000136923F0010313612369012B24D0226826
:100D9000136B23F00F031363A36D23F0030343F0DE
:100DA0000103A36526E000207BE7626A013A43EA7B
:100DB0004243B7E721680B6923F4FF6323F0040380
:100DC000E26B256C2A43656C2A43A56C2A431343C6
:100DD00043F001030B61D7E721680B6B23F00F038E
:100DE000E269013A13430B63D6E7A36D43F01003A6
:100DF000A365012003B030BD0120FBE720000020E7
:100E0000632D3E0500000450000104500002045010
:100E10000003045007C0F0FF704708B5806AFFF771
:100E2000FBFF08BD704708B50346806A826D12F06B
:100E3000500F30D1836D43F40073836503681A68E3
:100E400012F0080F14D0DA6812F4406F20D1DB687A
:100E500013F4005F1CD1836D23F480738365836D6D
:100E600013F4805F14D1836D43F0010383650FE0B9
:100E7000DB6813F0020F0BD1836D23F4807383655D
:100E8000836D13F4805F03D1836D43F001038365A9
:100E9000FFF7F4FA08BD826D12F0100F04D1026D55
:100EA000526B18469047F5E7FFF7BCFFF2E708B52D
:100EB000806A836D43F040038365C36D43F0040390
:100EC000C365FFF7AFFF08BDF0B583B00023019302
:100ED00090F85430012B00F01C8204460D4601238B
:100EE00080F8543003689B6813F0040F09D0836DB9
:100EF00043F0200383650120002384F8543003B0BD
:100F0000F0BD4B68052B08D8023B032B79D8DFE8EE
:100F100003F0026E71740C234B602A6869682068C4
:100F2000FFF748FE2068836813F0040300D0012314
:100F3000826812F0080200D0012223BB1ABBAA6803
:100F4000B2F1004F60D02968FFF74CFE2268536968
:100F500023F00043536169692268D368C3F3C10376
:100F60005B0099402869042858D02E68603252F8F6
:100F70002070AA4B3B4006F0F84631430B4343F048
:100F8000004342F820302268936813F0010F17D114
:100F90002B68E868D2F8B010C3F3120621EA060104
:100FA00000F0180C9E4820FA0CF00340C3F3120323
:100FB0000B43C2F8B030EA689A4B9A4200F0958031
:100FC0002B68994A134200F0A081984A926802F077
:100FD000E07097498B4200F0428196498B4200F0C5
:100FE000698195498B4200F07D81002084E71223BE
:100FF0004B6092E718234B608FE74FF480734B6090
:101000008BE706234B6088E700222968FFF7EAFD9B
:101010002268536943F0004353619CE7136E116EDD
:10102000C1F384612B68C3F3120078BBC3F38463FC
:10103000994233D021684B6E4A6EC2F384622B68AA
:10104000C3F3120078BBC3F384639A4233D02168A0
:101050008B6E8A6EC2F384622B68C3F3120078BB76
:10106000C3F384639A4233D02168CB6ECA6EC2F355
:1010700084622B68C3F3120078BBC3F384639A4283
:1010800081D1CB6E23F00043CB667CE793FAA3F3C8
:1010900013B1B3FA83F3CBE72023C9E7136E23F030
:1010A00000431366C6E793FAA3F313B1B3FA83F3CD
:1010B000CBE72023C9E74B6E23F000434B66C6E71E
:1010C00093FAA3F313B1B3FA83F3CBE72023C9E771
:1010D0008B6E23F000438B66C6E793FAA3F313B13C
:1010E000B3FA83F3CBE72023C9E720682B68C3F367
:1010F000120626BB9A0E013202F01F02092A8CBF8B
:1011000000220122002A52D046BB990E01318906E5
:1011100001F0F84176BB9F0E013707F01F0701224F
:10112000BA401143AEBB9B0E013303F01F0303EB28
:1011300043031B051943AA68FFF754FD40E793FAE0
:10114000A3F24AB1B2FA82F2013202F01F02092A76
:101150008CBF00220122D5E72022F5E793FAA3F104
:1011600031B1B1FA81F10131890601F0F841D1E7DD
:101170002021F8E793FAA3F24AB1B2FA82F20132DF
:1011800002F01F024FF0010C0CFA02F2C9E7202214
:10119000F5E793FAA3F343B1B3FA83F3013303F012
:1011A0001F0303EB43031B05C4E72023F6E7CEB977
:1011B000990E0131890601F0F841FEB99F0E013701
:1011C00007F01F070122BA401143BEBB9B0E01333B
:1011D00003F01F0303EB43031E3B1B0543F00073A7
:1011E0001943A8E793FAA3F131B1B1FA81F10131C2
:1011F000890601F0F841E0E72021F8E793FAA3F22D
:101200004AB1B2FA82F2013202F01F024FF0010C31
:101210000CFA02F2D8E72022F5E700BF00F0FF0346
:10122000FFFF070000007F4000000880000304501B
:10123000000052C7000084CB0100008093FAA3F3A2
:101240005BB1B3FA83F3013303F01F0303EB4303F2
:101250001E3B1B0543F00073C2E72023F3E712F4A3
:10126000000F7FF4BAAE23682B4A934205D002F5F3
:101270000072934201D000203EE640F40000274A6D
:10128000936823F0E07318439060254B1B689B091B
:10129000244AA2FB03239B09013303EB43039B0076
:1012A000019302E0019B013B0193019B002BF9D1CB
:1012B000002021E612F0807F7FF493AE2368164A67
:1012C000934205D002F50072934201D0002013E64C
:1012D00040F0807311498A6822F0E07213438B60FA
:1012E000002009E612F4800F11D122680A4B9A42BD
:1012F00001D0002000E640F4800308498A6822F00B
:10130000E07213438B600020F6E50020F4E5002036
:10131000F2E50220F3E500BF000004500003045092
:1013200020000020632D3E0530B583B000230193DB
:1013300003689A6812F0010F58D1044699682D4A43
:10134000114219D19A6822F0004222F03F0242F085
:1013500001029A60284B9B6813F4000F1CD0274BA6
:101360001B689B09264AA2FB03239B09013303EB5D
:1013700043039B0001930CE0836D43F010038365EE
:10138000C36D43F00103C365012030E0019B013BC5
:101390000193019B002BF9D1FFF706FC054623685A
:1013A0001A6812F0010F1FD19A6812F0010F07D1CD
:1013B0009A6822F0004222F03F0242F001029A6055
:1013C000FFF7F2FB431B022BE9D923681B6813F0DC
:1013D000010FE4D1A36D43F01003A365E36D43F067
:1013E0000103E365012002E0002000E0002003B0DB
:1013F00030BD00BF3F0000800003045020000020EB
:10140000632D3E052DE9F04104463E4B9E68006881
:10141000856815F0040F6FD10F46904606F01F0641
:1014200094F85430012B6AD0012384F85430364BA1
:1014300098420CD0092E05D840F22123F34013F036
:10144000010F04D1002384F85430012055E02046D8
:10145000FFF76AFF00284BD1A36D23F4706323F0DC
:10146000010343F48073A3652368284A934239D06B
:101470001A46934200D01EB9A36D23F48013A365CE
:10148000A36D13F4805F30D0E36D23F00603E365B2
:10149000236D1F4ADA62236D1E4A1A63236D1E4AAA
:1014A0005A6323681C221A60002384F8543022688F
:1014B000536843F0100353602268D36843F001037C
:1014C000D360216843463A464031206D00F076FAF9
:1014D0002268936823F0004323F03F0343F00403A2
:1014E00093600AE0A2F58072C3E70023E365CFE7CB
:1014F000002384F8543000E00220BDE8F08102208F
:10150000FBE700BF00030450000204500001045038
:10151000270E00081B0E0008AF0E0008002800F080
:10152000A18038B5044690F82030D3B12268136802
:1015300043F001031360FFF737FB054623685A6841
:1015400012F0010F10D1FFF72FFB401B0A28F5D92D
:10155000636A43F400336362052384F8203001207A
:1015600038BDFFF701F8E1E71A6822F002021A60BD
:10157000FFF71AFB054623685A6812F0020F0DD0D8
:10158000FFF712FB401B0A28F5D9636A43F40033C6
:101590006362052384F820300120E1E7227E012ADE
:1015A0003DD01A6822F080021A60637E012B3BD086
:1015B0002268136823F040031360A37E012B39D007
:1015C0002268136823F020031360E37E012B37D0D9
:1015D0002268136843F010031360237F012B35D07A
:1015E0002268136823F008031360637F012B33D054
:1015F0002268136823F004031360A368E2681343AE
:1016000022691343626913436268013A21681343F4
:10161000CB6100206062012384F82030A0E71A68C3
:1016200042F080021A60C0E72268136843F040036A
:101630001360C2E72268136843F020031360C4E715
:101640002268136823F010031360C6E7226813684A
:1016500043F008031360C8E72268136843F00403EB
:101660001360CAE70120704770B5044690F8205017
:10167000EDB2012D06D0436A43F4002343620125F5
:10168000284670BD022380F820300268136823F0DA
:1016900001031360FFF788FA064623685B6813F0BE
:1016A000010F0CD0FFF780FA831B0A2BF5D9636A70
:1016B00043F400336362052384F82030E0E700251B
:1016C0006562DDE730B590F820C00468A4680CF1CD
:1016D000FF3C5FFA8CFCBCF1010F62D814F0E05FB4
:1016E00059D0C4F3016C012404FA0CF41C608B681B
:1016F000002B3DD10D68CB68046843EA45550CF1D9
:1017000018031B01E55003680C690CF1180E03EB7C
:101710000E135C600B7D012B35D0D17993791B04BE
:1017200043EA0163517943EA0123147901682343B1
:1017300001EB0C11C1F88C31D17893781B0443EA8A
:101740000163517843EA0123117802680B4302EBED
:101750000C12C2F8883102680CF1180C4FEA0C1C0C
:1017600052F80C3043F0010342F80C3000201DE029
:101770004C6843EAC403CC6823430CF118042401E9
:1017800005682B51BFE7036803EB0E13596841F45A
:1017900080715960C1E7436A43F40013436201203A
:1017A00004E0436A43F480234362012030BD00001B
:1017B000002807DB00F01F02400901239340024A82
:1017C00042F82030704700BF00E100E0002808DB4D
:1017D0000901C9B200F1604000F5614080F80013D2
:1017E000704700F00F000901C9B2014B195470474E
:1017F00014ED00E000B500F00700C0F1070CBCF1EB
:10180000040F28BF4FF0040C031D062B0FD9C31E75
:101810004FF0FF3E0EFA0CF021EA000199400EFA5B
:1018200003FE22EA0E0241EA02005DF804FB0023F7
:10183000EEE70000074AD36823F4E0631B041B0CA7
:10184000000200F4E060034343F0BF6343F400335D
:10185000D360704700ED00E010B50446054BD86832
:10186000C0F30220FFF7C6FF01462046FFF7AEFF98
:1018700010BD00BF00ED00E008B5FFF799FF08BDFF
:1018800030B4446C04F01C0C012404FA0CF4056C14
:101890006C60046863608368102B05D003689960EE
:1018A0000368DA6030BC704703689A600368D960E7
:1018B000F8E70000002873D010B403460068394AE6
:1018C00090424AD8384A02443849A1FB0212120910
:1018D00092005A64364A1A64022283F8252001686D
:1018E00021F4FF4121F070019A68DC6822431C69F1
:1018F00022435C6922439C692243DC6922431C6ABF
:1019000022430A4302609A68B2F5804F1BD0196CDB
:10191000274A91422CD0264AD2F8A814586C00F0DD
:101920001C0C0F2000FA0CF021EA0001C2F8A814E8
:10193000D2F8A81458685C6C04F01C0C00FA0CF087
:101940000143C2F8A8140020D863012283F825209F
:1019500083F824005DF8044B7047164A024413498B
:10196000A1FB0212120992005A64134A1A64B3E7E7
:10197000D2F8A810586C00F01C0C0F2000FA0CF0E4
:1019800021EA0001C2F8A810D2F8A81058685C6CCF
:1019900004F01C0C00FA0CF00143C2F8A810D2E7C6
:1019A0000120704707040240F8FFFDBFCDCCCCCC2E
:1019B00000000240F8FBFDBF0004024038B50446B9
:1019C00090F82400012832D0012084F8240094F8F3
:1019D0002500C0B2012804D0002384F8243002205E
:1019E00038BD022084F825000020E06325682868BF
:1019F00020F0010028602046FFF742FF236B5BB117
:101A00002268136843F00E0313602268136843F0E2
:101A1000010313600020E3E72268136823F0040346
:101A200013602268136843F00A031360EDE7022095
:101A3000D6E738B5036C196804682568436C03F071
:101A40001C0304229A400A4215D015F0040F12D04C
:101A5000236813F0200F03D1236823F004032360CD
:101A6000436C03F01C02016C042393404B60036B36
:101A700003B1984738BD02229A400A421CD015F0A3
:101A8000020F19D0236813F0200F06D1236823F02A
:101A90000A032360012380F82530436C03F01C0205
:101AA000016C022393404B60002380F82430C36A0A
:101AB000002BDFD09847DDE7082202FA03F30B4240
:101AC000D8D015F0080FD5D0236823F00E0323607B
:101AD000436C03F01C03016C012202FA03F34B6018
:101AE000C26380F82520002380F82430436B002B4C
:101AF000C0D09847BEE70000F0B583B0002362E095
:101B000085685E000324B44025EA0405CC68B4402F
:101B10002C438460456825EA0C054C68C4F3001426
:101B20009C402C43446060E0DD08083550F82540B7
:101B300003F0070C4FEA8C0C4FF00F0E0EFA0CFE60
:101B400024EA0E0E0C6904FA0CF444EA0E0440F880
:101B5000254061E0072400E0002404FA0EF42C4341
:101B60000CF1020C5C4D45F82C405C4CA568D4434C
:101B700025EA02064F6817F4801F01D042EA0506E5
:101B8000564DAE60ED6804EA05064F6817F4001F75
:101B900001D042EA0506514DEE606D6804EA050683
:101BA0004F6817F4003F01D042EA05064B4D6E60C6
:101BB0002D682C404E6816F4803F01D042EA05049F
:101BC000464A146001330A6832FA03F400F0818057
:101BD0004FF0010C0CFA03FC1CEA0202F2D04C6834
:101BE00004F00304013C012C8AD94C6804F003047E
:101BF000032C0CD0C4685D004FF0030C0CFA05FCFC
:101C000024EA0C0C8C68AC4044EA0C04C4604C68B8
:101C100004F00304022C87D004684FEA430E4FF00F
:101C2000030C0CFA0EFC24EA0C0C4C6804F00304C0
:101C300004FA0EF444EA0C0404604C6814F4403FC7
:101C4000C0D0274C256E45F001052566246E04F0B2
:101C500001040194019C4FEA930C0CF102051E4C07
:101C600054F8255003F0030E4FEA8E0E0F2404FAA9
:101C70000EF425EA0405B0F1904F3FF46DAF194C16
:101C8000A0421AD004F58064A04218D004F5806404
:101C9000A04216D004F58064A04214D004F58064FC
:101CA000A04212D004F58064A04210D004F58064F4
:101CB000A0423FF44FAF08244FE701244DE7022430
:101CC0004BE7032449E7042447E7052445E70624B6
:101CD00043E703B0F0BD00BF000001400004014035
:101CE00000100240000400480AB18161704781621F
:101CF0007047436901EA030221EA030141EA024114
:101D000081617047024B186800F4C060704700BFE3
:101D100000700040B0F5007F0FD01F4B1B6803F42C
:101D2000C063B3F5806F34D01B4A136823F4C063DB
:101D300043F48063136000207047174B1B6803F463
:101D4000C063B3F5007F20D0134A136823F4C06347
:101D500043F400731360114B1B68322202FB03F340
:101D60000F4AA2FB03239B0C013300E0013B0A4A0C
:101D7000526912F4806F01D0002BF7D1064B5B69DA
:101D800013F4806F03D100207047002070470320B8
:101D900070470020704700BF007000402000002006
:101DA00083DE1B4330B583B00446204B9B6D13F09C
:101DB000805F0BD0FFF7A6FFB0F5007F17D0802C17
:101DC0001FD82DD0702C2DD000211BE0174DAB6DEE
:101DD00043F08053AB65AB6D03F080530193019BDF
:101DE000FFF790FFAB6D23F08053AB65E4E7802CE9
:101DF00003D9A02C03D9022104E0002102E0012133
:101E000000E003210A4A136823F007030B43136021
:101E1000136803F007038B4206D1002003B030BDE6
:101E20000221EFE70121EDE70120F7E70010024072
:101E300000200240284A9368D26802F0030213F09F
:101E40000C030AD00C2B06D0042B1FD0082B20D05B
:101E50000020024610E0012AF6D11F4A126812F053
:101E6000080F0CD11C4AD2F89420C2F303221B495C
:101E700051F8222043B100200C2B0DD07047164A98
:101E80001268C2F30312F2E71046F5E71448002285
:101E9000F2E714480022EFE70F4BDB6803F003037F
:101EA000022B16D0032B00D10E4A0B49CB68C3F38B
:101EB00002130133C868C0F3062002FB00F0B0FB38
:101EC000F3F0CB68C3F3416301335B00B0FBF3F085
:101ED000D4E7034AE9E700BF00100240A456000817
:101EE0000024F40000127A00002800F02283F0B5EC
:101EF00083B00446964B9D6805F00C05DE6806F03D
:101F00000306036813F0100F5AD0E5B10C2D18D05A
:101F1000A369002B00F0BB808D4A136843F00103D6
:101F20001360FEF741FE0746894B1B6813F0020F52
:101F300040F09A80FEF738FEC01B0228F4D9032037
:101F400002E3012EE4D1824B1B6813F0020F03D091
:101F5000A369002B00F0EF82206A7D4B1B6813F011
:101F6000080F5BD07A4B1B6803F0F00398425CD8F3
:101F7000774B1A6842F008021A601A6822F0F002E1
:101F8000216A0A431A605A6822F47F42E16942EAF0
:101F900001225A60002D60D0FFF74CFF6C4B9B680C
:101FA000C3F303136B4AD35C03F01F03D8406A4B9F
:101FB00018606A4B1868FEF719FD002840F0C482CB
:101FC000236813F0010F00F08180082D75D00C2DCF
:101FD00071D06368B3F5803F00F09780B3F5A02F10
:101FE00000F099805A4B1A6822F480321A601A68FD
:101FF00022F480221A606368002B00F09980FEF7BB
:10200000D3FD0746524B1B6813F4003F5ED1FEF729
:10201000CBFDC01B6428F5D9032095E24C4BD3F8C7
:1020200094301B0903F0F003A0E7FFF7BBFE002884
:1020300040F08382464B1A6842F008021A601A6820
:1020400022F0F002216A0A431A605A6822F47F42A1
:10205000E16942EA01225A609EE7206AFFF7A2FE88
:10206000002899D001206FE2394B1A6842F008022B
:102070001A601A6822F0F002216A0A431A605A684C
:1020800022F47F42E16942EA01225A6098E7304A2D
:10209000136823F001031360FEF786FD07462C4BFF
:1020A0001B6813F0020F8BD0FEF77EFDC01B0228C9
:1020B000F5D9032048E2032E8BD1254B1B6813F47E
:1020C000003F03D06368002B00F03982236813F0CF
:1020D000020F58D0042D45D00C2D41D0E368002BC1
:1020E00077D01B4A136843F480731360FEF75CFDDE
:1020F0000646174B1B6813F4806F61D1FEF754FD41
:10210000801B0228F5D903201EE2114A136843F40C
:10211000803313606FE703F18043A3F53C331A6803
:1021200042F480221A601A6842F480321A6062E730
:10213000FEF73AFD0746064B1B6813F4003FC5D077
:10214000FEF732FDC01B6428F5D90320FCE100BF77
:1021500000100240DC56000820000020280000206B
:10216000022EBBD1A74B1B6813F4806F03D0E3682A
:10217000002B00F0E681A34A536823F0FE43216957
:1021800043EA01635360236813F0080F4CD063697E
:102190009BB39C4AD2F8943043F00103C2F89430C8
:1021A000FEF702FD0646974BD3F8943013F0020F6A
:1021B0003AD1FEF7F9FC801B0228F4D90320C3E1D1
:1021C000904A536823F0FE43216943EA0163536058
:1021D000D9E78C4A136823F480731360FEF7E4FC9C
:1021E0000646884B1B6813F4806FCCD0FEF7DCFCEE
:1021F000801B0228F5D90320A6E1824AD2F8943048
:1022000023F00103C2F89430FEF7CEFC06467D4B66
:10221000D3F8943013F0020F06D0FEF7C5FC801BF4
:102220000228F4D903208FE1236813F0040F7AD039
:10223000744B9B6D13F0805F36D1724B9A6D42F0F8
:1022400080529A659B6D03F080530193019B012698
:102250006D4B1B6813F4807F28D0A368012B39D005
:10226000052B3FD0674BD3F8902022F00102C3F832
:102270009020D3F8902022F00402C3F89020A368A5
:10228000002B3DD0FEF790FC07465E4BD3F8903014
:1022900013F0020F46D1FEF787FCC01B41F28833D2
:1022A0009842F2D903204FE10026D1E7564A13683D
:1022B00043F480731360FEF777FC0746524B1B68AC
:1022C00013F4807FC9D1FEF76FFCC01B0228F5D93B
:1022D000032039E14B4AD2F8903043F00103C2F8B1
:1022E0009030CCE7474BD3F8902042F00402C3F87B
:1022F0009020D3F8902042F00102C3F89020BEE76E
:10230000FEF752FC07463F4BD3F8903013F0020F14
:1023100008D0FEF749FCC01B41F288339842F2D93D
:10232000032011E1E6B9236813F0200F35D0636A6A
:10233000E3B1344AD2F8983043F00103C2F8983040
:10234000FEF732FC06462F4BD3F8983013F0020FFD
:1023500023D1FEF729FC801B0228F4D90320F3E0E7
:10236000284A936D23F080539365DCE7254AD2F821
:10237000983023F00103C2F89830FEF715FC0646AA
:10238000204BD3F8983013F0020F06D0FEF70CFC68
:10239000801B0228F4D90320D6E0A36A002B00F0AA
:1023A000D280022B17D00C2D00F0D480154A136870
:1023B00023F080731360FEF7F7FB0446114B1B6894
:1023C00013F0007F00F0AE80FEF7EEFB001B02284A
:1023D000F4D90320B8E00B4BDB6803F00301E26A99
:1023E000914213D00C2D00F0B180064B1B6813F006
:1023F000806F40F0AD80034B1B6813F0805F2FD0DF
:102400000120A1E0001002400070004003F07002C3
:10241000216B0139B2EB011FE4D103F4FE42616B81
:10242000B2EB012FDED103F07842A16BB2EBC16FAA
:10243000D8D103F4C001E26B5208013AB1EB425F1C
:10244000D0D103F0C063226C5208013AB3EB426F63
:10245000C8D1414B1B6813F0007F49D0002073E0C6
:102460003D4A136823F080731360FEF79DFB054619
:10247000394B1B6813F0007F06D0FEF795FB401B1D
:102480000228F5D903205FE0334AD3683349194065
:10249000E36A206B013843EA0013606B43EA0023D0
:1024A000E06B4008013843EA4053206C4008013893
:1024B00043EA4063A06B43EAC0631943D1601368E9
:1024C00043F080731360D36843F08073D360FEF7EA
:1024D0006BFB0446204B1B6813F0007F06D1FEF710
:1024E00063FB001B0228F5D903202DE000202BE020
:1024F000194B1A6842F080721A60DA6842F08072F2
:10250000DA60FEF751FB0446134B1B6813F0007FA3
:1025100006D1FEF749FB031B022BF5D9032013E07C
:10252000002011E00C4AD1680D4B0B40D360002015
:102530000AE001207047012006E0012004E00120AC
:1025400002E0012000E0002003B0F0BD0120FBE725
:102550000120F9E70120F7E7001002408C809D017F
:10256000FCFFEEFE002800F0AF8070B50D4604467B
:10257000594B1B6803F007038B420BD2564A136872
:1025800023F007030B431360136803F007038B4228
:1025900040F09C80236813F0020F0CD0A2684F4BD0
:1025A0009B6803F0F0039A4205D94C498B6823F0ED
:1025B000F0031A438A60236813F0010F39D063686F
:1025C000032B09D0022B26D063BB444A126812F0B9
:1025D000020F06D1012076E0404A126812F0007F17
:1025E00076D03E498A6822F0030213438B60FEF7DF
:1025F000DBFA0646394B9B6803F00C036268B3EBC9
:10260000820F16D0FEF7D0FA801B41F28833984231
:10261000F0D9032057E0314A126812F4003FE0D1AC
:10262000012050E02D4A126812F4806FD9D10120A8
:1026300049E0236813F0020F0CD0A268274B9B6877
:1026400003F0F0039A4205D224498B6823F0F0038B
:102650001A438A60204B1B6803F00703AB420AD978
:102660001D4A136823F007032B431360136803F01C
:102670000703AB422ED1236813F0040F06D0174A8C
:10268000936823F4E063E1680B439360236813F0DD
:10269000080F07D0114A936823F46053216943EA75
:1026A000C1039360FFF7C6FB0C4B9B68C3F3031396
:1026B0000B4AD35C03F01F03D8400A4B18600A4B47
:1026C0001868FEF793F970BD012070470120FAE702
:1026D0000120F8E70120F6E7002002400010024048
:1026E000DC5600082000002028000020014B18685C
:1026F000704700BF2000002008B5FFF7F7FF054B2B
:102700009B68C3F30223044AD35C03F01F03D84041
:1027100008BD00BF00100240D45600080F2303601C
:102720000B4B9A6802F0030242609A6802F0F002D2
:1027300082609A6802F4E062C2609B68DB0803F47E
:10274000E0630361034B1B6803F007030B607047F2
:102750000010024000200240F8B504460D46584BD8
:10276000DB6813F0030F17D0554BDB6803F003034E
:102770000268934201D0012616E0002A00F09E80F4
:102780004F4BDB68C3F3021301334268934201D01D
:10279000012609E000261BE00368022B57D0032B1B
:1027A0005CD0012B02D001263046F8BD444A1268A5
:1027B00012F0020F5ED04248C26822F073026168D4
:1027C000013943EA01131343C3600026002EEBD105
:1027D0003B4A136823F080631360FEF7E5F9074670
:1027E000374B1B6813F0006F05D0FEF7DDF9C31BF4
:1027F000022BF5D90326002ED6D1002D3CD130492D
:102800000B6923F0784323F4FE43A068E268D20604
:1028100042EA002213430B61294A136843F08063A4
:102820001360FEF7C1F90546254B1B6813F0006FD6
:1028300005D1FEF7B9F9401B0228F5D90326002E71
:10284000B2D11F4A1369A1690B431361ACE71C4A5B
:10285000126812F4806FAED10126A5E7184A1268FB
:1028600012F4003FA7D1164A126812F4802FA2D1A9
:10287000012699E70126A9E7012D0FD0104802692A
:1028800022F0C06222F4FE42A16863695B08013B4A
:102890005B0643EA01231A430261BDE70848026967
:1028A00022F4C00222F4FE42A16823695B08013BC6
:1028B0005B0543EA01231A430261ADE7012673E792
:1028C00000100240F8B504460D464F4BDB6813F08C
:1028D000030F17D04C4BDB6803F0030302689342ED
:1028E00001D0012616E0002A00F08C80464BDB6800
:1028F000C3F3021301334268934201D0012609E079
:1029000000261BE00368022B57D0032B5CD0012B61
:1029100002D001263046F8BD3B4A126812F0020F81
:102920005ED03948C26822F073026168013943EA17
:1029300001131343C3600026002EEBD1324A136803
:1029400023F080531360FEF72FF907462E4B1B68C8
:1029500013F0005F05D0FEF727F9C31B022BF5D952
:102960000326002ED6D1002D3CD127494B6923F0F8
:10297000784323F4FE43A068E268D20642EA0022CC
:1029800013434B61204A136843F080531360FEF7F2
:102990000BF905461C4B1B6813F0005F05D1FEF7D1
:1029A00003F9401B0228F5D90326002EB2D1164A9E
:1029B000536961690B435361ACE7134A126812F41F
:1029C000806FAED10126A5E70F4A126812F4003FCE
:1029D000A7D10D4A126812F4802FA2D1012699E7DF
:1029E0000126A9E70848426922F0C06222F4FE42AB
:1029F000A16823695B08013B5B0643EA01231A4394
:102A00004261BFE7012685E7001002402DE9F04151
:102A100082B00446036813F4006F33D0836EB3F5BD
:102A2000000F1FD00CD823B3B3F5800F05D10021C0
:102A30002030FFF747FF064620E001273E4623E00F
:102A4000B3F5400F0BD10026604AD2F8883023F44A
:102A50004003A16E0B43C2F88830002714E0012721
:102A60003E4611E0594AD36843F48033D3600026D0
:102A7000EAE700210430FFF76FFE0646002EE3D0A0
:102A8000374601E000273E46236813F4805F30D0CC
:102A9000E36EB3F1007F1FD00DD81BB3B3F1807F7D
:102AA00006D1002104F12000FFF70CFF064605E0E7
:102AB00001273E461DE0B3F1407F0AD1C6B9434A23
:102AC000D2F8883023F04073E16E0B43C2F88830AF
:102AD0000FE001273E460CE03C4AD36843F48033C4
:102AE000D360EBE70021201DFFF736FE0646E5E741
:102AF0003746236813F4003F71D0344B9B6D13F0BD
:102B0000805F4ED1314B9A6D42F080529A659B6D39
:102B100003F080530193019B4FF001082C4A136886
:102B200043F480731360FEF73FF80546284B1B689B
:102B300013F4807F05D1FEF737F8401B0228F5D942
:102B40000326002E46D1214BD3F8903013F4407366
:102B500016D0D4F888209A4212D01C4AD2F890306D
:102B600023F44073D2F8901041F48031C2F89010F1
:102B7000D2F8901021F48031C2F89010C2F8903051
:102B800013F0010F10D1002E40F035810F4AD2F81A
:102B9000903023F44073D4F888100B43C2F890307F
:102BA00019E04FF00008B9E7FDF7FEFF0546074BB7
:102BB000D3F8903013F0020FE5D1FDF7F5FF401B7D
:102BC00041F288339842F2D90326DCE70010024034
:102BD000007000403746B8F1000F40F00E812368C6
:102BE00013F0010F08D0A44AD2F8883023F0030371
:102BF000A16B0B43C2F88830236813F0020F08D092
:102C00009D4AD2F8883023F00C03E16B0B43C2F8E5
:102C10008830236813F0040F08D0974AD2F8883020
:102C200023F03003216C0B43C2F88830236813F083
:102C3000080F08D0904AD2F8883023F0C003616CA6
:102C40000B43C2F88830236813F0100F08D08A4A6B
:102C5000D2F8883023F44073A16C0B43C2F888305B
:102C6000236813F0200F08D0834AD2F8883023F469
:102C70004063E16C0B43C2F88830236813F4007F93
:102C800008D07D4AD2F8883023F44023216E0B43CC
:102C9000C2F88830236813F4806F08D0764AD2F8DF
:102CA000883023F44013616E0B43C2F888302368E8
:102CB00013F0400F08D0704AD2F8883023F4405304
:102CC000216D0B43C2F88830236813F0800F08D0C1
:102CD000694AD2F8883023F44043616D0B43C2F84F
:102CE0008830236813F4807F08D0634AD2F8883094
:102CF00023F44033A16D0B43C2F88830236813F4EA
:102D0000801F08D05C4AD2F89C3023F00303E16DA9
:102D10000B43C2F89C30236813F4005F0FD0564A6F
:102D2000D2F8883023F04063216F0B43C2F888301B
:102D3000236FB3F1006F66D0B3F1806F68D0236862
:102D400013F4002F0FD04C4AD2F8883023F04063A0
:102D5000616F0B43C2F88830636FB3F1006F5FD0CF
:102D6000B3F1806F61D0236813F4802F0FD0424AF3
:102D7000D2F8883023F04063A16F0B43C2F888304B
:102D8000A36FB3F1006F58D0B3F1806F5AD02368AE
:102D900013F4804F0FD0384AD2F8883023F04053D4
:102DA000E16F0B43C2F88830E36FB3F1805F51D01D
:102DB000B3F1005F56D0236813F4004F09D02E4AB8
:102DC000D2F8883023F08043D4F880100B43C2F847
:102DD0008830236813F4803F09D0274AD2F888301E
:102DE00023F00043D4F884100B43C2F888303846EF
:102DF00002B0BDE8F0813746EDE61F4A936D23F03F
:102E000080539365EBE6D36843F48013D36096E771
:102E10000121201DFFF7A0FC002890D007468EE777
:102E2000D36843F48013D3609DE70121201DFFF791
:102E300093FC002897D0074695E7D36843F48013A6
:102E4000D360A4E70121201DFFF786FC00289ED057
:102E500007469CE70221201DFFF77EFC0028AAD030
:102E60000746A8E7022104F12000FFF72BFD002808
:102E7000A1D007469FE700BF0010024010B4036ACC
:102E8000046A24F001040462846924F0F00C4CEA22
:102E9000021223F00A030B43826103625DF8044BC4
:102EA000704710B4036A23F0100303628469036A55
:102EB00024F4704C4CEA023223F0A00343EA0113DD
:102EC000826103625DF8044B7047836823F07003EE
:102ED0000B4343F0070383607047000090F83D30D8
:102EE000DBB2012B31D1022380F83D3003681A4A4E
:102EF00093421CD0B3F1804F19D0A2F59432934283
:102F000015D002F58062934211D002F5806293429F
:102F10000DD002F59432934209D002F540629342FB
:102F200005D01A6842F001021A60002070479968C3
:102F30000A4A0A40062A0AD0B2F5803F09D01A6828
:102F400042F001021A600020704701207047002003
:102F500070470020704700BF002C014007000100AF
:102F600090F83D30DBB2012B36D1022380F83D30A2
:102F70000268D36843F00103D3600368194A93429F
:102F80001CD0B3F1804F19D0A2F59432934215D0E2
:102F900002F58062934211D002F5806293420DD017
:102FA00002F59432934209D002F54062934205D073
:102FB0001A6842F001021A600020704799680A4AB4
:102FC0000A40062A0AD0B2F5803F09D01A6842F0BA
:102FD00001021A60002070470120704700207047EE
:102FE00000207047002C0140070001007047704727
:102FF0007047704710B5044603681A6912F0020F53
:1030000011D0DA6812F0020F0DD06FF002021A61CF
:103010000123037703689B6913F0030F79D0FFF74F
:10302000E6FF0023237723681A6912F0040F12D0F9
:10303000DA6812F0040F0ED06FF004021A61022356
:10304000237723689B6913F4407F68D02046FFF7FD
:10305000CEFF0023237723681A6912F0080F12D0DD
:10306000DA6812F0080F0ED06FF008021A6104231C
:1030700023772368DB6913F0030F57D02046FFF74F
:10308000B6FF0023237723681A6912F0100F12D0BD
:10309000DA6812F0100F0ED06FF010021A610823D8
:1030A00023772368DB6913F4407F46D02046FFF77F
:1030B0009EFF0023237723681A6912F0010F03D0C3
:1030C000DA6812F0010F3FD123681A6912F0800FFD
:1030D00003D0DA6812F0800F3DD123681A6912F428
:1030E000807F03D0DA6812F0800F3BD123681A6921
:1030F00012F0400F03D0DA6812F0400F39D1236884
:103100001A6912F0200F03D0DA6812F0200F37D1BD
:1031100010BDFFF76BFF2046FFF76AFF81E72046EF
:10312000FFF764FF2046FFF763FF92E72046FFF7B3
:103130005DFF2046FFF75CFFA3E72046FFF756FF41
:103140002046FFF755FFB4E76FF001021A612046F1
:10315000FDF7D2FBB8E76FF080021A61204600F05D
:1031600086F9BAE76FF480721A61204600F080F9A0
:10317000BCE76FF040021A612046FFF73AFFBEE756
:103180006FF020021A61204600F070F9C0E70000DD
:103190000368304A904212D0B0F1804F0FD0A2F5B0
:1031A000943290420BD002F58062904207D002F533
:1031B0008062904203D002F59432904203D123F012
:1031C00070034A681343234A90421ED0B0F1804FE7
:1031D0001BD0A2F59432904217D002F58062904243
:1031E00013D002F5806290420FD002F594329042E3
:1031F0000BD002F54062904207D002F58062904207
:1032000003D002F58062904203D123F44073CA6870
:10321000134323F080034A69134303608B68C3623E
:103220000B6883620B4B98420FD003F50063984202
:103230000BD003F54063984207D003F580639842B2
:1032400003D003F58063984201D10B690363012326
:1032500043617047002C014060B310B5044690F8FC
:103260003D3013B3022384F83D30214651F8040B5E
:10327000FFF78EFF012384F8483084F83E3084F84D
:103280003F3084F8403084F8413084F8423084F88C
:10329000433084F8443084F8453084F8463084F86C
:1032A000473084F83D30002010BD80F83C30FDF7F9
:1032B00049FCD7E70120704710B4846824F47F4CA0
:1032C00042EA03220A4342EA0C0282605DF8044BA0
:1032D0007047000090F83C30012B76D010B50446C2
:1032E000012380F83C30022380F83D30026890686A
:1032F000374B034093600B68602B4CD029D8402B90
:1033000054D00CD9502B22D1CA6849682068FFF7E5
:10331000B5FD50212068FFF7D8FD002005E0202BE7
:103320000DD009D9302B0AD00120012384F83D307B
:10333000002384F83C3010BD0BB1102B05D1194689
:103340002068FFF7C2FD0020EFE70120EDE7012034
:10335000EBE7B3F5805F34D0B3F5005F0CD1CB68F9
:103360004A6889682068FFF7A7FF2268936843F4DA
:10337000804393600020D8E7702B24D1CB684A6843
:1033800089682068FFF798FF2268936843F0770305
:1033900093600020C9E7CA6849682068FFF781FD8B
:1033A00060212068FFF791FD0020BEE7CA684968E8
:1033B0002068FFF763FD40212068FFF786FD0020AD
:1033C000B3E70020B1E70120AFE70220704700BF5C
:1033D0008800FEFF90F83C20012A42D030B403461A
:1033E000012280F83C20022280F83D2000684268DB
:1033F00084681D4DA84203D005F50065A84203D19D
:1034000022F470024D682A4322F070020D682A43AC
:1034100042601A681448824216D0B2F1804F13D02D
:10342000A0F5943082420FD000F5806082420BD02C
:1034300000F58060824207D000F59430824203D0CC
:1034400000F54060824204D124F080048968214361
:103450009160012283F83D20002083F83C0030BCBD
:1034600070470220704700BF002C01407047704732
:10347000704708B54FF0E0231B6901F0FBFC012801
:1034800000D108BD00F0D6F9FBE70000EFF305839B
:103490002BB9064B186828B901221A6070476FF0E3
:1034A000050070474FF0FF30704700BFA80B0020A9
:1034B000EFF3058373B90A4B1B68012B0DD110B5CF
:1034C0000024084BDC77064B02221A6001F0B8F9A1
:1034D000204610BD6FF0050070474FF0FF30704779
:1034E000A80B002000ED00E0F0B587B000240594A3
:1034F000EFF305847CBB70B32AB31568936903B9F5
:1035000018235C1E372C4AD8546814F0010F48D198
:10351000566976B14FEA960C946834B1D768B7F51E
:10352000C07F02D3176907B1C6B92CB14FF0FF3481
:103530000EE04FF0800CEFE7D4688CB9146994B1B9
:103540004FF0FF3404E01546002418234FF0800CA0
:10355000012C0AD0ACB1059807B0F0BD0124F7E703
:103560004FF0FF34F4E70024F2E714699268029206
:10357000019400930B466246294601F0F1F805904C
:10358000E9E705AA019200930B461FFA8CF229463F
:1035900001F023F90128DED000230593DBE70020AA
:1035A000DAE70020D8E708B5EFF3058333B908B9A7
:1035B000002008BD01F0B0FA0020FAE76FF0050026
:1035C000F7E70000034B0360034B0B60802313609D
:1035D000704700BF280A002028080020034B036022
:1035E000034B0B604FF4807313607047A8060020F4
:1035F000A402002000F1080343604FF0FF32826014
:10360000C3600361002303607047002303617047B8
:1036100043684B609A688A605160996008610368EA
:1036200001330360704730B40D68B5F1FF3F11D02E
:1036300000F108031C465B681A68AA42FAD963685D
:103640004B6099608C6061600861036801330360BE
:1036500030BC70470469F2E70369416882688A6098
:10366000416851605A68824206D0002202611A689D
:10367000013A1A601868704782685A60F5E70000DE
:1036800082B0002301930D4B1B68B3F1FF3F08D0BC
:103690004FF0500383F31188BFF36F8FBFF34F8F49
:1036A000FEE74FF0500383F31188BFF36F8FBFF332
:1036B0004F8F019B002BFCD002B070472C000020E4
:1036C00008480068006880F308884FF0000080F325
:1036D000148862B661B6BFF34F8FBFF36F8F00DF00
:1036E00000BF000008ED00E0DFF80C00016841F4C5
:1036F000700101607047000088ED00E04FF08073BA
:1037000040F8043C21F0010140F8081C054B40F84A
:103710000C3C40F8202C6FF0020340F8243C443865
:10372000704700BF81360008000000000000000064
:10373000074B19680868B0E8F04F80F30988BFF3B9
:103740006F8F4FF0000080F311887047AFF3008057
:10375000207400204FF0500383F31188BFF36F8F64
:10376000BFF34F8F0B4A136801331360012B00D056
:1037700070474FF0E023D3F8043D13F0FF0FF7D06C
:103780004FF0500383F31188BFF36F8FBFF34F8F58
:10379000FEE700BF2C000020094B1B6843B94FF027
:1037A000500383F31188BFF36F8FBFF34F8FFEE792
:1037B000013B034A13600BB983F31188704700BFC4
:1037C0002C000020000000000000000000000000AD
:1037D000EFF30980BFF36F8F154B1A681EF0100FBF
:1037E00008BF20ED108A20E9F04F10602DE9090094
:1037F0004FF0500080F31188BFF34F8FBFF36F8FEE
:1038000001F0B0F94FF0000080F3118809BC19688D
:103810000868B0E8F04F1EF0100F08BFB0EC108A37
:1038200080F30988BFF36F8F704700BFAFF300804C
:103830002074002008B54FF0500383F31188BFF3C4
:103840006F8FBFF34F8F01F05FF828B14FF0E02387
:103850004FF08052C3F8042D002383F3118808BD74
:103860004FF0E022002313619361054B1B6805496B
:10387000A1FB03139B09013B5361072313617047AD
:1038800020000020D34D62104FF0E023D3F8002D2C
:103890003D4B9A421CD04FF0E023D3F8002D3B4B18
:1038A0009A421ED030B583B0394B1A78D2B2019209
:1038B000FF221A701B78DBB28DF803309DF80330BD
:1038C00003F05003334A1370334B07221A601BE096
:1038D0004FF0500383F31188BFF36F8FBFF34F8F07
:1038E000FEE74FF0500383F31188BFF36F8FBFF3F0
:1038F0004F8FFEE7284A1368013B13609DF80330A1
:103900005B00DBB28DF803309DF8033013F0800FBD
:10391000F0D1214B1B68032B08D04FF0500383F3E9
:103920001188BFF36F8FBFF34F8FFEE71B021A4A58
:10393000136003F4E0631360019BDBB2144A13705D
:103940004FF0E024D4F8203D43F47003C4F8203D48
:10395000D4F8203D43F07043C4F8203DFFF780FFCA
:1039600000250E4B1D60FFF7BFFED4F8343F43F037
:103970004043C4F8343FFFF7A3FE01F0F3F8FFF72C
:103980007FFE284603B030BD71C20F4170C20F41A7
:1039900000E400E0B00B0020AC0B00202C00002065
:1039A000EFF305830F2B0FD9114A9B5CDBB2114A51
:1039B00012789A4208D94FF0500383F31188BFF36D
:1039C0006F8FBFF34F8FFEE74FF0E023D3F80C3D2E
:1039D00003F4E063084A1268934208D94FF0500399
:1039E00083F31188BFF36F8FBFF34F8FFEE77047EC
:1039F000F0E300E0B00B0020AC0B0020134A12F003
:103A0000070F1FD0D11D21F00701C1F5C6431033A8
:103A100013440A460E480260002141601344083BEB
:103A200023F007030B48036059601960991A51602D
:103A30001360094B1960094B1960094B4FF00042A4
:103A40001A60704746F21033E4E700BFD40B002041
:103A5000CC0B0020C80B0020C00B0020C40B0020A2
:103A6000B40B0020164B1A461B688342FBD35168E7
:103A700002EB010C844509D0416800EB010C634561
:103A800009D00360904219D010607047406801442B
:103A900051601046F0E710B40A4C2468A3420BD0E2
:103AA0005B681944416013681B680360904200D052
:103AB00010605DF8044B70470460F7E7704700BF83
:103AC000CC0B0020C80B002038B5044600F00EFFD8
:103AD000384B1B68B3B1384B1B681C4250D1002CCB
:103AE00050D004F1080214F0070F02D022F00702B0
:103AF0000832002A55D0314B1B68934253D33049CA
:103B00000C6804E0FFF77AFFE5E721461C4663688E
:103B1000934202D22368002BF7D1264B1B68A342A5
:103B200043D00D68083523680B6063689B1A102B1F
:103B300010D9A01810F0070F08D04FF0500383F3EE
:103B40001188BFF36F8FBFF34F8FFEE74360626052
:103B5000FFF788FF626819490B689B1A0B601949C7
:103B600009688B4201D217490B60134B1B68134342
:103B7000636000232360144A13680133136002E07A
:103B8000002500E0002500F04BFF15F0070F0ED0D8
:103B90004FF0500383F31188BFF36F8FBFF34F8F44
:103BA000FEE70025EFE70025EDE70025EBE72846D7
:103BB00038BD00BFC80B0020B40B0020C40B002090
:103BC000CC0B0020C00B0020BC0B0020002834D000
:103BD00038B50446A0F1080550F8043C174A1268AD
:103BE000134208D14FF0500383F31188BFF36F8F56
:103BF000BFF34F8FFEE750F8081C41B14FF0500360
:103C000083F31188BFF36F8FBFF34F8FFEE723EA73
:103C1000020340F8043C00F069FE54F8041C084A12
:103C200013680B4413602846FFF71CFF054A13680E
:103C30000133136000F0F4FE38BD7047B40B002070
:103C4000C40B0020B80B002010B50446FFF782FD1E
:103C5000A26BE36B9A4204D00024FFF79DFD20463F
:103C600010BD0124F9E710B50446FFF773FDA36BFF
:103C700023B90124FFF790FD204610BD0024F9E789
:103C800070B504461546866B026C5AB903681BB1C1
:103C900000200136A66370BD806801F0FBF80023A8
:103CA000A360F6E76DB9406801F014FC6368226C0C
:103CB00013446360A268934219D323686360284663
:103CC000E7E7C06801F006FCE368226C51429B1AEA
:103CD000E3602268934202D2A3680B44E360022DA2
:103CE00001D00020D5E726B1013E0020D1E72846CB
:103CF000CFE70020CDE70346026C6AB110B5084655
:103D0000D9681144D9609C68A14201D31968D9606F
:103D1000D96801F0DFFB10BD704738B50546FFF7E5
:103D200019FD95F8454064B201E0013C64B2002CF5
:103D30000ADD6B6A43B105F1240000F0FBFF0028A7
:103D4000F3D001F08BF8F0E7FF2385F84530FFF75B
:103D500023FDFFF7FFFC95F8444064B201E0013C0D
:103D600064B2002C0ADD2B6943B105F1100000F0AC
:103D7000E1FF0028F3D001F071F8F0E7FF2385F8A8
:103D80004430FFF709FD38BD38B5E0B10D460446B3
:103D9000FFF7E0FC2368E26B216C01FB0230A060BE
:103DA0000020A0636360013A02FB0133E360FF235C
:103DB00084F8443084F84530FDB9236963B9FFF7CE
:103DC000EBFC012038BD4FF0500383F31188BFF3A3
:103DD0006F8FBFF34F8FFEE704F1100000F0AAFFD2
:103DE0000028ECD04FF0E0234FF08052C3F8042DB0
:103DF000BFF34F8FBFF36F8FE1E704F11000FFF7C0
:103E0000F9FB04F12400FFF7F5FBD8E738B51D46B0
:103E1000049C0B4649B92460E063236401212046D9
:103E2000FFF7B2FF84F84C5038BD2260F4E740B988
:103E30004FF0500383F31188BFF36F8FBFF34F8FA1
:103E4000FEE710B584B01C46844653B192B189B9DF
:103E50004FF0500383F31188BFF36F8FBFF34F8F81
:103E6000FEE74FF0500383F31188BFF36F8FBFF36A
:103E70004F8FFEE76AB150230393039B502B13D05F
:103E80004FF0500383F31188BFF36F8FBFF34F8F51
:103E9000FEE70029EFD04FF0500383F31188BFF302
:103EA0006F8FBFF34F8FFEE7039B012384F84630EB
:103EB00000949DF818306046FFF7A8FF204604B034
:103EC00010BD40B94FF0500383F31188BFF36F8FDB
:103ED000BFF34F8FFEE7F0B583B00D46144606469C
:103EE00001FB00F05030FFF7EFFD074650B1002313
:103EF00080F846300090234600F1500229463046B3
:103F0000FFF784FF384603B0F0BDF0B585B00192ED
:103F100088B10F461D460446B1B1022D20D1E36B96
:103F2000012B1DD04FF0500383F31188BFF36F8F27
:103F3000BFF34F8FFEE74FF0500383F31188BFF3B9
:103F40006F8FBFF34F8FFEE7036C002BE5D04FF070
:103F5000500383F31188BFF36F8FBFF34F8FFEE7DA
:103F600000F088FF064658B9019B002B48D04FF05F
:103F7000500383F31188BFF36F8FBFF34F8FFEE7BA
:103F800000263DE02A4639462046FFF779FE636A5F
:103F90007BB948B14FF0E0234FF08052C3F8042DB5
:103FA000BFF34F8FBFF36F8FFFF7F6FB012005B014
:103FB000F0BD04F1240000F0BDFE0028F4D04FF065
:103FC000E0234FF08052C3F8042DBFF34F8FBFF3AF
:103FD0006F8FE9E7FFF7E0FB0020E8E702A800F0B9
:103FE000EFFE012619E0002384F8443021E000238D
:103FF00084F8453023E02046FFF78FFE00F010FDE7
:10400000FFF7A8FBA26BE36B9A42BBD3022DB9D09A
:10401000019B002BDED0002EE0D0FFF7BDFB00F0AF
:1040200065FCFFF797FB94F8442052B2B2F1FF3FD2
:10403000D9D094F8452052B2B2F1FF3FD7D0FFF764
:10404000ABFB01A902A800F0C7FED8B92046FFF7D4
:10405000FBFD0028CFD0019904F1100000F036FEDE
:104060002046FFF75AFE00F0DBFC0028C8D14FF0D5
:10407000E0234FF08052C3F8042DBFF34F8FBFF3FE
:104080006F8FBDE72046FFF748FE00F0C9FC002017
:104090008DE72DE9F84390B10F4616461C460546BC
:1040A000B1B1022C20D1EB6B012B1DD04FF050038E
:1040B00083F31188BFF36F8FBFF34F8FFEE74FF08D
:1040C000500383F31188BFF36F8FBFF34F8FFEE769
:1040D000036C002BE5D04FF0500383F31188BFF33E
:1040E0006F8FBFF34F8FFEE7FFF75AFCEFF3118896
:1040F0004FF0500383F31188BFF36F8FBFF34F8FDF
:10410000AA6BEB6B9A4206D3022C04D0002088F3F2
:104110001188BDE8F88395F845904FFA89F9AB6BA3
:10412000224639462846FFF7ABFDB9F1FF3F06D0DE
:1041300009F101035BB285F845300120E7E76B6ABE
:104140000BB90120E3E705F1240000F0F3FD18B1FD
:1041500026B101203060DAE70120D8E70120D6E758
:1041600068B170B50C460546036C8BB14FF0500337
:1041700083F31188BFF36F8FBFF34F8FFEE74FF0CC
:10418000500383F31188BFF36F8FBFF34F8FFEE7A8
:104190000368EBB1FFF704FCEFF311864FF0500317
:1041A00083F31188BFF36F8FBFF34F8FAA6BEB6B55
:1041B000934226D995F845305BB20132AA63B3F138
:1041C000FF3F11D001335BB285F84530012019E083
:1041D0008368002BDED04FF0500383F31188BFF3C8
:1041E0006F8FBFF34F8FFEE76B6A0BB9012009E0B9
:1041F00005F1240000F09EFD38B144B1012020609B
:1042000000E0002086F3118870BD0120FAE701204C
:10421000F8E7F0B585B0019290B10F460446C1B100
:1042200000F028FE064600BB019B002B5ED04FF03D
:10423000500383F31188BFF36F8FBFF34F8FFEE7F7
:104240004FF0500383F31188BFF36F8FBFF34F8F8D
:10425000FEE7036C002BE3D04FF0500383F311888B
:10426000BFF36F8FBFF34F8FFEE700263EE0394666
:104270002046FFF740FD013DA563236923B9FFF701
:104280008BFA012005B0F0BD04F1100000F052FDE2
:104290000028F4D04FF0E0234FF08052C3F8042DF3
:1042A000BFF34F8FBFF36F8FE9E7FFF775FA002079
:1042B000E8E702A800F084FD012621E0002384F84D
:1042C000443029E0002384F845302BE02046FFF7F6
:1042D00024FD00F0A5FB09E02046FFF71EFD00F0DD
:1042E0009FFB2046FFF7BFFC00283FD1FFF732FAC3
:1042F000A56B002DBBD1019B002BD6D0002ED8D0B2
:10430000FFF74AFA00F0F2FAFFF724FA94F8443083
:104310005BB2B3F1FF3FD1D094F845305BB2B3F15B
:10432000FF3FCFD0FFF738FA01A902A800F054FDF3
:104330000028D1D12046FFF796FC0028C6D001996D
:1043400004F1240000F0C2FC2046FFF7E6FC00F078
:1043500067FB0028CAD14FF0E0234FF08052C3F82A
:10436000042DBFF34F8FBFF36F8FBFE7002089E7A6
:104370000023072B0CD8074A52F833200AB1013327
:10438000F7E7044A42F8331002EBC302506070476B
:10439000704700BFE46E002070B504460D46164617
:1043A000FFF7D8F994F844305BB2B3F1FF3F0DD07A
:1043B00094F845305BB2B3F1FF3F0BD0FFF7ECF957
:1043C000A36B5BB12046FFF7A8FC70BD002384F807
:1043D0004430EDE7002384F84530EFE732462946C4
:1043E00004F1240000F08AFCECE70000084B1B6895
:1043F0001B6823B9074B4FF0FF321A607047044B1C
:104400001B68DB68DB685A68024B1A60704700BFA4
:10441000946F00202C6F00202DE9F04780460D4658
:1044200017469946089EDDF824A00A9C9200A52113
:10443000206B00F0CAFF236B07F18042013A03EBC7
:10444000820727F00707002D61D04FF0000CBCF168
:104450000F0F09D815F80C3004EB0C0282F8343039
:1044600013B10CF1010CF2E7002384F84330372E2E
:1044700000D93726E662E66400252565201DFFF792
:10448000C4F804F11800FFF7C0F82461C6F138063B
:10449000A6616462C4F8785184F87C514FF490723C
:1044A000294604F1580000F090FF1B4BE36503F12F
:1044B00068022266D033636601220023C4E93C23EC
:1044C00043F20E33A4F8F8304AF6CD33A4F8FA30AC
:1044D00041F23423A4F8FC304EF26D63A4F8FE30B0
:1044E0004DF6EC63A4F800310523A4F802310B2348
:1044F000A4F804314A4641463846FFF7FFF82060E9
:10450000BAF1000F01D0CAF80040BDE8F0870023DF
:1045100084F83430ABE700BF5075002038B5002474
:1045200007E004EB840293000E481844FFF762F89A
:104530000134372CF5D90C4D2846FFF75BF80B4CAE
:104540002046FFF757F80A48FFF754F80948FFF7E5
:1045500051F80948FFF74EF8084B1D60084B1C60E6
:1045600038BD00BFC06F0020AC6F0020986F0020E6
:104570007C6F0020686F0020506F0020946F002037
:10458000906F002010B50446FFF7E4F8224A136844
:1045900001331360214B1B685BB1214B1B686BB966
:1045A0001E4B1B68DA6AE36A9A4207D81B4B1C60F1
:1045B00004E01A4B1C601368012B29D0194A1368B8
:1045C000013313606364E06A174B1B68984201D99A
:1045D000154B186000EB8000211D144B03EB80008D
:1045E000FFF716F8FFF7D8F80D4B1B687BB10B4BA4
:1045F0001B68DA6AE36A9A4209D24FF0E0234FF06F
:104600008052C3F8042DBFF34F8FBFF36F8F10BDDF
:10461000FFF784FFD2E700BF4C6F0020207400201A
:10462000406F0020306F0020446F0020C06F0020DA
:1046300010B50446583000F0D1FE94F87D3163B1D6
:10464000012B11D0022B0ED04FF0500383F31188B1
:10465000BFF36F8FBFF34F8FFEE7206BFFF7B6FA04
:104660002046FFF7B3FA10BD2046FFF7AFFAFAE78E
:104670000F4B1B68D3B110B5FFF76CF80D4BDB681F
:10468000DC68201DFEF7E8FF0B4A1368013B13604E
:10469000074A1368013B1360FFF77EF82046FFF7D7
:1046A000C7FF034B1B68002BE6D110BD704700BF4E
:1046B000646F0020686F00204C6F002008B5FFF782
:1046C000D7FF074B1B68012BF9D94FF0E0234FF0C0
:1046D0008052C3F8042DBFF34F8FBFF36F8FEEE707
:1046E000C06F002070B504460D46174B1E68174B6F
:1046F00018680430FEF7B0FFB4F1FF3F0DD034442A
:10470000124B1B685C60A64210D9114B18680F4B06
:1047100019680431FEF787FF70BD002DEFD00B4BF9
:10472000196804310B48FEF773FFF5E70A4B186868
:10473000064B19680431FEF776FF084B1B68A3424D
:10474000EAD9064B1C60E7E7486F00202074002080
:10475000906F0020506F0020946F00202C6F00207D
:1047600030B587B00B9C8CB10C9DC5B14FF4C075B2
:104770000495049DB5F5C07F1AD04FF0500383F324
:104780001188BFF36F8FBFF34F8FFEE74FF05003D9
:1047900083F31188BFF36F8FBFF34F8FFEE74FF0A6
:1047A000500383F31188BFF36F8FBFF34F8FFEE782
:1047B000049D0C9D2C63022485F87D410024039404
:1047C000029505AC01940A9C0094FFF725FE0C9815
:1047D000FFF7D8FE059807B030BD2DE9F04385B04E
:1047E0000746884614461E469000FFF76DF910B341
:1047F00081464FF4C070FFF767F90546A8B1C0F8CD
:104800003090002380F87D31039302900D9B01933B
:104810000C9B00933346224641463846FFF7FCFD89
:104820002846FFF7AFFE012007E04846FFF7CEF924
:104830004FF0FF3001E04FF0FF3005B0BDE8F083EE
:1048400010B588B000240594069407AA06A905A807
:10485000FEF7B8FE059B0293069B01930094234646
:10486000079A1A491A48FFF77BFF1A4B1860E8B1FC
:1048700000F0C4FB01281AD14FF0500383F31188D4
:10488000BFF36F8FBFF34F8F134B1B685833134A1F
:104890001360134B4FF0FF321A60124B01221A6063
:1048A000114B00221A60FEF7EFFF03E00020B0F189
:1048B000FF3F01D008B010BD4FF0500383F31188C3
:1048C000BFF36F8FBFF34F8FFEE700BFEC560008BA
:1048D000BD460008286F0020207400203000002012
:1048E0002C6F0020406F0020486F0020024A1368A0
:1048F00001331360704700BF246F0020014B18681C
:10490000704700BF486F0020F8B53A4B1B68002B7A
:1049100069D1394B1D6801351D60C5B9374B1B681E
:104920001B6843B14FF0500383F31188BFF36F8FBF
:10493000BFF34F8FFEE7314A1168314B18681060A2
:104940001960304A136801331360FFF74FFD2E4B97
:104950001B68AB423DD900272C4B1B68DB6A03EB7D
:1049600083039A002A4B9B58012B00D90127294B1E
:104970001B68002B3CD001273AE001271F4B1B6826
:104980001B6843B31D4B1B68DB68DC6863689D4292
:1049900026D3261D3046FEF75FFEA36A1BB104F145
:1049A0001800FEF759FEE36A1B4A1268934201D9C8
:1049B000194A136003EB83039A00314614481044EC
:1049C000FEF726FEE26A114B1B68DB6A9A42D4D2DC
:1049D000D4E70027D2E70C4B4FF0FF321A60BBE759
:1049E000094A1360B8E70D4A1368013313600027C2
:1049F0003846F8BD246F0020486F0020946F0020D7
:104A0000906F0020346F00202C6F00202074002055
:104A1000C06F0020386F0020446F00203C6F0020E2
:104A200038B5354B1B6843B94FF0500383F31188F9
:104A3000BFF36F8FBFF34F8FFEE7FEF78BFE2E4B5A
:104A40001A68013A1A601B68002B4FD12B4B1B6868
:104A50000BB900244BE00024294B1B681BB3284BE7
:104A6000DB68DC6804F11800FEF7F6FD251D28461A
:104A7000FEF7F2FDE06A234B1B68984201D9214BF7
:104A8000186000EB800029461F4B03EB8000FEF707
:104A9000BFFDE26A1D4B1B68DB6A9A42DCD31C4BEC
:104AA00001221A60D8E70CB1FFF7A0FC194B1C6873
:104AB00084B9174B1C68D4B14FF0E0234FF08052FB
:104AC000C3F8042DBFF34F8FBFF36F8F01240EE0A7
:104AD000013C07D0FFF718FF0028F9D00C4B01224A
:104AE0001A60F5E70B4B00221A60E2E70024FEF79C
:104AF00053FE204638BD00BF246F00204C6F0020BD
:104B00007C6F0020446F0020C06F002020740020C4
:104B1000386F00203C6F002010B5A8B10446104B40
:104B20001B6843B14FF0500383F31188BFF36F8FBD
:104B3000BFF34F8FFEE7FFF7D9FE00212046FFF7B6
:104B4000D1FDFFF76DFF48B94FF0E0234FF08052E1
:104B5000C3F8042DBFF34F8FBFF36F8F10BD00BF9D
:104B6000246F0020224B1B681BB1224B01221A60CC
:104B70007047204B00221A601F4B1B6803EB830118
:104B80008A001E498A585AB90BB1013BF6E74FF02B
:104B9000500383F31188BFF36F8FBFF34F8FFEE78E
:104BA000084603EB83018A0002445168496851605A
:104BB00003EB830C4FEA8C020832024491420FD07F
:104BC00003EB830291000D4A0A445268D1680C4AF3
:104BD000116009490B60136858330A4A1360704723
:104BE000486862469100054A0A445060E8E700BF01
:104BF000246F0020386F0020446F0020C06F002019
:104C0000207400203000002038B50446FEF7A2FDD5
:104C1000E4B1251D2846FEF71FFDA36A1BB104F170
:104C20001800FEF719FD29462348FEF7F1FC94F819
:104C30007C31DBB2012B0CD0FEF7AEFD1F4B1B68A5
:104C40005BB91F4B1B68A3420ED038BD1C4B1C68C0
:104C5000DFE7002384F87C31EEE7FEF77BFDFFF70A
:104C6000C5FBFEF799FDECE7144B1B68B3B1154B80
:104C70001B6843B14FF0500383F31188BFF36F8F6C
:104C8000BFF34F8FFEE74FF0E0234FF08052C3F8A1
:104C9000042DBFF34F8FBFF36F8FD6E7064B1A6813
:104CA000094B1B689A4203D1054B00221A60CCE7DE
:104CB000FFF758FFC9E700BF506F0020406F00208A
:104CC00020740020246F00204C6F002058B110B5D4
:104CD0000C46094A11681831FEF7A5FC012120464F
:104CE000FFF700FD10BD4FF0500383F31188BFF3B1
:104CF0006F8FBFF34F8FFEE72074002038B570B17F
:104D00000D4614460A4A11681831FEF781FC0CB1B1
:104D10004FF0FF3521462846FFF7E4FC38BD4FF041
:104D2000500383F31188BFF36F8FBFF34F8FFEE7FC
:104D30002074002038B5C368DC6824B304F118057A
:104D40002846FEF789FC184B1B682BBB251D2846FF
:104D5000FEF782FCE06A154B1B68984201D9134BA1
:104D6000186000EB80002946114B03EB8000FEF732
:104D70004FFCE26A0F4B1B68DB6A9A4211D9012093
:104D80000D4B186038BD4FF0500383F31188BFF30B
:104D90006F8FBFF34F8FFEE729460848FEF738FCB8
:104DA000E7E70020EEE700BF246F0020446F0020FB
:104DB000C06F002020740020386F00207C6F00201E
:104DC000034B1B680360034B1B684360704700BFC5
:104DD000346F0020486F0020F8B5C8B10C46054676
:104DE000F9B1FEF7B7FC1B4B19686B68C81A22684B
:104DF000B2F1FF3F26D0184E36682F68B74201D077
:104E00008B4224D9824215D80023236001241AE062
:104E10004FF0500383F31188BFF36F8FBFF34F8FB1
:104E2000FEE74FF0500383F31188BFF36F8FBFF39A
:104E30004F8FFEE75B1A134423602846FFF7C0FF3D
:104E4000002400E00024FEF7A7FC2046F8BD012462
:104E5000F9E700BF486F0020346F0020014B0122AA
:104E60001A607047386F0020014B1868704700BF08
:104E700020740020054B1B6833B1054B1B680BB138
:104E8000002070470220704701207047406F0020CB
:104E9000246F002000283BD038B504461E4B1B6809
:104EA000834208D04FF0500383F31188BFF36F8F14
:104EB000BFF34F8FFEE7036D43B94FF0500383F309
:104EC0001188BFF36F8FBFF34F8FFEE7013B036580
:104ED000C16AC26C91421DD00BB1002038BD051DC6
:104EE0002846FEF7B9FBE06CE062C0F13803A3612D
:104EF0000A4B1B68984201D9084B186000EB8000F0
:104F00002946074B03EB8000FEF782FB0120E5E713
:104F1000002070470020E1E720740020446F00204B
:104F2000C06F0020064B1A6813682BB90123036079
:104F300023B9D368186870470023F8E7002070474A
:104F40002475002008B54160006191420CD8D21A46
:104F500083699A4201D3012008BD011D094B1868DD
:104F6000FEF761FB0020F7E79A4201D2994206D290
:104F7000011D054B1868FEF756FB0020ECE70120E9
:104F8000EAE700BF207500202475002030B583B00B
:104F9000FEF7E0FB114B1B681BB1FEF7FDFB03B0F6
:104FA00030BD0F4D2846FEF725FB0E4C2046FEF780
:104FB00021FB0D4B1D600D4B1C60002300930C4B1F
:104FC0000C4A10210A20FEF732FF044B186000281B
:104FD000E3D00949FFF7CCF9DFE700BF1C750020DB
:104FE0003C750020287500202475002020750020C5
:104FF0002474002074740020F456000810B588B0A2
:10500000FFF7C4FF124B1B68CBB100240594069434
:1050100007AA06A905A8FEF7E1FA059B0293069BDD
:105020000193022300932346079A0A490A48FFF78F
:1050300097FB0A4B186010B1012008B010BD4FF06B
:10504000500383F31188BFF36F8FBFF34F8FFEE7D9
:105050001C750020FC5600086153000818750020DC
:10506000B8B19C4603461848006858B300B585B0EF
:1050700000910192029305291CDCFFF7FBFE022838
:1050800010D000231A4669460F480068FEF73DFF1E
:1050900015E04FF0500383F31188BFF36F8FBFF318
:1050A0004F8FFEE70023069A694607480068FEF71F
:1050B0002CFF04E0002362466946FEF7EAFF05B0D4
:1050C0005DF804FB002070471C75002070B582B0AD
:1050D0001B4B1B681A6862B3DB681E68DC68251D01
:1050E0002846FEF7B9FA236A2046984794F82830F4
:1050F00013F0040FECD0A36933449E4207D26360DF
:10510000246129460E4B1868FEF78DFAE0E700216E
:1051100000910B4632462046FFF7A2FF0028D7D168
:105120004FF0500383F31188BFF36F8FBFF34F8F9E
:10513000FEE7044A106802490860136002B070BDBF
:10514000247500202075002038B50546FFF7D6FBF2
:105150000446074B1B68834205D800232B60044B91
:105160001C60204638BDFFF7B1FF01232B60F6E736
:105170001475002070B582B006460D4617490968BF
:10518000C968CC68201DFEF767FA94F828C01CF0A7
:10519000040F08D12CF0010C84F828C0236A2046A3
:1051A000984702B070BDA16933462A463144204673
:1051B000FFF7C8FE0028F1D0002100910B463246CF
:1051C0002046FFF74DFF0028E8D14FF0500383F34E
:1051D0001188BFF36F8FBFF34F8FFEE72475002058
:1051E00070B582B006460C46FFF780FB01A8FFF7BA
:1051F000ABFF019B33BB0546E4B9B04213D2224654
:10520000711B124B1868FFF7C7F8FFF709FCD8B9F4
:105210004FF0E0234FF08052C3F8042DBFF34F8FBF
:10522000BFF36F8F10E0FFF7FBFB29463046FFF717
:10523000A1FF09E0064A126812680AB90124DEE7F4
:105240001C46DCE7FFF7ECFB02B070BD1C750020CC
:105250002075002010B588B002E0049B002B0FDA07
:10526000002204A93D4B1868FEF7D3FF002873D035
:10527000049B002BF1DA07990698059B9847ECE709
:10528000069C636913B1201DFEF7E6F903A8FFF73A
:105290005BFF049B092BE3D8DFE803F0050505302D
:1052A00037500505303794F8283043F0010384F86F
:1052B0002830059BA169024619442046FFF742FEAB
:1052C0000028CDD0236A2046984794F8283013F060
:1052D000040FC5D0A269002100910B460598024435
:1052E0002046FFF7BDFE0028BAD14FF0500383F3EC
:1052F0001188BFF36F8FBFF34F8FFEE794F828300C
:1053000023F0010384F82830AAE794F8283043F00A
:10531000010384F828300599A16131B103460246A2
:1053200001442046FFF70EFE9AE74FF0500383F347
:105330001188BFF36F8FBFF34F8FFEE794F82830CB
:1053400013F0020F04D023F0010384F8283087E71C
:105350002046FEF73BFC83E708B010BD1C7500201B
:1053600000B583B001A8FFF7DDFD0199FFF738FF15
:10537000FFF770FFF6E70000DFF834D0FBF79CFB87
:105380000C480D490D4A002302E0D458C4500433A0
:10539000C4188C42F9D30A4A0A4C002301E0136076
:1053A0000432A242FBD300F06FF8FBF7E6FAFEE707
:1053B0000000052000000020800000201857000891
:1053C0008000002090760020FEE7024403469342CE
:1053D00000D1704703F8011BF9E70000294B1B6857
:1053E000834270B504464BD0C369ABB1DB686BB187
:1053F0000025E369DB68595900293BD10435802D2C
:10540000F7D1E3692046D96800F072F8E3691968BA
:1054100011B1204600F06CF8616911B1204600F02E
:1054200067F8E16911B1204600F062F8216B11B113
:10543000204600F05DF8616B11B1204600F058F88D
:10544000A16B11B1204600F053F8A16C11B12046B8
:1054500000F04EF8616C11B1204600F049F8E16AA5
:1054600011B1204600F044F8236A4BB12046BDE854
:10547000704018470E68204600F03AF83146BBE706
:1054800070BD00BF3000002070B50D4D0D4C641B89
:10549000A4100026A64209D10B4D0C4C00F07EF85A
:1054A000641BA4100026A64205D170BD55F8043B2C
:1054B00098470136EEE755F8043B98470136F2E786
:1054C0000857000808570008085700080C5700083C
:1054D000704770470A44914200F1FF3300D1704792
:1054E00010B511F8014B03F8014F9142F9D110BDED
:1054F00038B50546002941D051F8043C0C1F002B5B
:10550000B8BFE41800F03EF81D4A136833B9636071
:1055100014602846BDE8384000F03AB8A34208D9E4
:10552000206821188B4201BF19685B680918216047
:10553000EDE71A465B680BB1A342FAD9116850181F
:10554000A0420BD120680144501883421160E0D181
:1055500018685B68536008441060DAE702D90C23CE
:105560002B60D6E7206821188B4204BF19685B685E
:10557000636004BF091821605460CAE738BD00BFEA
:105580008C7600200148FFF7A3BF00BF887600207B
:105590000148FFF79EBF00BF88760020F8B500BF26
:1055A000F8BC08BC9E467047F8B500BFF8BC08BC04
:0855B0009E4670470000000058
:1055B8006164635461736B0063616E325461736B31
:1055C8000000000063616E315461736B00000000DD
:1055D8007374617475735461736B000064656661FC
:1055E800756C745461736B00B855000800000000B6
:1055F80000000000000000000000000000020000A1
:10560800180000000000000000000000C05500085D
:105618000000000000000000000000000000000082
:105628000002000018000000000000000000000058
:10563800CC55000800000000000000000000000039
:105648000000000000020000180000000000000038
:1056580000000000D855000800000000000000000D
:105668000000000000000000000200001800000018
:105678000000000000000000E455000800000000E1
:105688000000000000000000000000000002000010
:10569800180000000000000000000000A0860100C3
:1056A800400D0300801A060000350C0040420F0030
:1056B80080841E0000093D0000127A000024F400D6
:1056C80000366E010048E801006CDC0200000000B2
:1056D80001020304000000000000000001020304AE
:1056E8000607080949444C4500000000546D7251F2
:1056F80000000000546D7220537663000000000023
:08570800D501000800000000BB
:08571000B101000800000000D7
:10571800AA000000000000000005000000000000D2
:105728000000000000000000080000000000000069
:1057380000093D000100000010000000AAAAAAAA62
:10574800340000200000000050750020B8750020CB
:10575800207600200000000000000000000000008B
:105768000000000000000000000000000000000031
:105778000000000000000000000000000000000021
:105788000000000000000000000000000000000011
:040000050800537923
:00000001FF
