:020000040800F2
:1000000000800120112100089D1D00089F1D00088F
:10001000A11D0008A31D0008A51D00080000000088
:10002000000000000000000000000000A71D000804
:10003000A91D000800000000AB1D0008AD1D000850
:100040006121000861210008612100086121000888
:100050006121000861210008612100086121000878
:100060006121000861210008612100086121000868
:100070006121000861210008612100086121000858
:100080006121000861210008612100086121000848
:10009000612100086121000861210008B51D0008E8
:1000A0006121000861210008612100086121000828
:1000B00061210008D51D00086121000861210008A8
:1000C0006121000861210008612100086121000808
:1000D00061210008612100086121000861210008F8
:1000E000E51D000861210008612100086121000868
:1000F00061210008612100086121000861210008D8
:1001000061210008612100086121000861210008C7
:100110006121000861210008111E0008211E00084D
:1001200061210008612100086121000861210008A7
:100130006121000861210008612100086121000897
:100140006121000861210008612100086121000887
:100150006121000861210008612100086121000877
:100160006121000861210008612100086121000867
:10017000612100086121000800000000000000006B
:08018000612100086121000863
:1001C00010B5054C237833B9044B13B10448AFF391
:1001D00000800123237010BDB8090020000000003A
:1001E000F0AF000808B5034B1BB103490348AFF358
:1001F000008008BD00000000BC090020F0AF00082E
:1002000081F0004102E000BF83F0004330B54FEAC7
:1002100041044FEA430594EA050F08BF90EA020F34
:100220001FBF54EA000C55EA020C7FEA645C7FEAC7
:10023000655C00F0E2804FEA5454D4EB5555B8BFEA
:100240006D420CDD2C4480EA020281EA030382EA5B
:10025000000083EA010180EA020281EA0303362DED
:1002600088BF30BD11F0004F4FEA01314FF4801CC0
:100270004CEA113102D0404261EB410113F0004FD2
:100280004FEA03334CEA133302D0524263EB430389
:1002900094EA050F00F0A780A4F10104D5F1200E27
:1002A0000DDB02FA0EFC22FA05F2801841F1000182
:1002B00003FA0EF2801843FA05F359410EE0A5F156
:1002C00020050EF1200E012A03FA0EFC28BF4CF087
:1002D000020C43FA05F3C01851EBE37101F000453D
:1002E00007D54FF0000EDCF1000C7EEB00006EEB4A
:1002F0000101B1F5801F1BD3B1F5001F0CD34908D4
:100300005FEA30004FEA3C0C04F101044FEA44522A
:1003100012F5800F80F09A80BCF1004F08BF5FEAB1
:10032000500C50F1000041EB045141EA050130BD91
:100330005FEA4C0C404141EB0101013C28BFB1F5A3
:10034000801FE9D291F0000F04BF01460020B1FAEE
:1003500081F308BF2033A3F10B03B3F120020CDAC1
:100360000C3208DD02F1140CC2F10C0201FA0CF09F
:1003700021FA02F10CE002F11402D8BFC2F1200C04
:1003800001FA02F120FA0CFCDCBF41EA0C019040BA
:10039000E41AA2BF01EB0451294330BD6FEA040403
:1003A0001F3C1CDA0C340EDC04F11404C4F12002EE
:1003B00020FA04F001FA02F340EA030021FA04F300
:1003C00045EA030130BDC4F10C04C4F1200220FA57
:1003D00002F001FA04F340EA0300294630BD21FA95
:1003E00004F0294630BD94F0000F83F4801306BF5B
:1003F00081F480110134013D4EE77FEA645C18BF4F
:100400007FEA655C29D094EA050F08BF90EA020FE5
:1004100005D054EA000C04BF1946104630BD91EADD
:10042000030F1EBF0021002030BD5FEA545C05D1E0
:100430004000494128BF41F0004130BD14F580041F
:100440003CBF01F5801130BD01F0004545F0FE4193
:1004500041F470014FF0000030BD7FEA645C1ABFC8
:10046000194610467FEA655C1CBF0B46024650EAFF
:10047000013406BF52EA033591EA030F41F400212B
:1004800030BD00BF90F0000F04BF0021704730B5B1
:100490004FF4806404F132044FF000054FF0000186
:1004A00050E700BF90F0000F04BF0021704730B547
:1004B0004FF4806404F1320410F0004548BF40421C
:1004C0004FF000013EE700BF42004FEAE2014FEA71
:1004D00031014FEA02701FBF12F07F4393F07F4F4C
:1004E00081F06051704732F07F4208BF704793F04F
:1004F0007F4F04BF41F40021704730B54FF4607462
:1005000001F0004521F000411CE700BF50EA010264
:1005100008BF704730B54FF000050AE050EA01020D
:1005200008BF704730B511F0004502D5404261EB7D
:1005300041014FF4806404F132045FEA915C3FF4BE
:10054000D8AE4FF003025FEADC0C18BF03325FEA5B
:10055000DC0C18BF033202EBDC02C2F1200300FA0C
:1005600003FC20FA02F001FA03FE40EA0E0021FA31
:1005700002F11444BDE600BF53B94AB9002908BFCF
:1005800000281CBF4FF0FF314FF0FF3000F074B96E
:10059000ADF1080C6DE904CE00F006F8DDF804E0DA
:1005A000DDE9022304B070472DE9F047089E0D46AF
:1005B00004468846002B4DD18A42944668D9B2FA47
:1005C00082F252B101FA02F3C2F1200120FA01F1E4
:1005D0000CFA02FC41EA030894404FEA1C45210C46
:1005E000B8FBF5FE1FFA8CF705FB1E8341EA0343B7
:1005F0000EFB07F199420BD91CEB03030EF1FF3000
:1006000080F01E81994240F21B81AEF1020E6344DC
:100610005B1AA4B2B3FBF5F005FB103344EA0344C4
:1006200000FB07F7A7420AD91CEB040400F1FF33D3
:1006300080F00881A74240F2058164440238E41B3F
:1006400040EA0E4000211EB1D4400023C6E9004319
:10065000BDE8F0878B4208D9002E00F0EE80002123
:10066000C6E900050846BDE8F087B3FA83F1002922
:100670004AD1AB4202D3824200F2F980841A65EB80
:10068000030301209846002EE2D0C6E90048DFE7C8
:1006900002B9FFDEB2FA82F2002A40F09180A1EBAB
:1006A0000C054FEA1C471FFA8CFE0121B5FBF7F33E
:1006B00007FB1350250C45EA00450EFB03F0A8424A
:1006C00008D91CEB050503F1FF3802D2A84200F25D
:1006D000CB8043462D1AA4B2B5FBF7F007FB1055AB
:1006E00044EA05440EFB00FEA64508D91CEB0404B1
:1006F00000F1FF3502D2A64500F2BB802846A4EBEC
:100700000E0440EA03409EE7C1F120078B4022FA25
:1007100007FC4CEA030C20FA07F405FA01F31C432A
:10072000FD404FEA1C4900FA01F3B5FBF9F8200C33
:100730001FFA8CFE09FB185540EA054508FB0EF030
:10074000A84202FA01F20BD91CEB050508F1FF3AA9
:1007500080F08880A84240F28580A8F102086544B4
:100760002D1AA4B2B5FBF9F009FB105544EA054572
:1007700000FB0EFEAE4508D91CEB050500F1FF3469
:100780006CD2AE456AD90238654440EA0840A0FB05
:100790000294A5EB0E05A542C846A64656D353D0F3
:1007A0005EB1B3EB080265EB0E0505FA07F722FA16
:1007B00001F3CD401F43C6E900750021BDE8F08775
:1007C000C2F1200320FA03F10CFA02FC25FA03F32C
:1007D00095400D434FEA1C471FFA8CFEB3FBF7F11F
:1007E00007FB11302B0C43EA004301FB0EF098424B
:1007F00004FA02F408D91CEB030301F1FF382FD2ED
:1008000098422DD9023963441B1AADB2B3FBF7F0FD
:1008100007FB103345EA034500FB0EF3AB4208D952
:100820001CEB050500F1FF3816D2AB4214D9023893
:100830006544ED1A40EA014138E73146304607E7A2
:100840008646E5E61846FAE64B45A9D2B9EB02081A
:1008500064EB0C0E0138A3E74046EAE7204694E734
:100860004146D1E7D0467BE7023B654432E7084684
:1008700009E76444023842E7704700BF0000000007
:1008800090F800F06DE9024520F007016FF0000CD0
:1008900010F0070491F820F040F049804FF0000478
:1008A0006FF00700D1E9002391F840F000F1080053
:1008B00082FA4CF2A4FA8CF283FA4CF3A2FA8CF38B
:1008C0004BBBD1E9022382FA4CF200F10800A4FAF2
:1008D0008CF283FA4CF3A2FA8CF3E3B9D1E9042346
:1008E00082FA4CF200F10800A4FA8CF283FA4CF37D
:1008F000A2FA8CF37BB9D1E9062301F1200182FA37
:100900004CF200F10800A4FA8CF283FA4CF3A2FA3C
:100910008CF3002BC6D0002A04BF04301A4612BA4A
:10092000B2FA82F2FDE8024500EBD2007047D1E94D
:10093000002304F00305C4F100004FEAC50514F0DC
:10094000040F91F840F00CFA05F562EA05021CBFAD
:1009500063EA050362464FF00004A9E700000000C7
:1009600001F0FF01102A2BDB10F0070F08D010F860
:10097000013B013A8B422DD010F0070F42B3F6D164
:10098000F0B441EA012141EA014122F007047FF07D
:1009900000070023F0E80256083C85EA010586EAD4
:1009A000010685FA47F5A3FA87F586FA47F6A5FA10
:1009B00087F68EB9EED1F0BC01F0FF0102F007021C
:1009C00032B110F8013B013A83EA010313B1F8D1C7
:1009D0000020704701387047002D06BF35460338A8
:1009E000073815F0010F07D1013015F4807F02BFE1
:1009F000013015F4C03F0130F0BC0138704700BF32
:100A0000844641EA000313F003036DD1403A41D319
:100A100051F8043B40F8043B51F8043B40F8043BD8
:100A200051F8043B40F8043B51F8043B40F8043BC8
:100A300051F8043B40F8043B51F8043B40F8043BB8
:100A400051F8043B40F8043B51F8043B40F8043BA8
:100A500051F8043B40F8043B51F8043B40F8043B98
:100A600051F8043B40F8043B51F8043B40F8043B88
:100A700051F8043B40F8043B51F8043B40F8043B78
:100A800051F8043B40F8043B51F8043B40F8043B68
:100A9000403ABDD2303211D351F8043B40F8043B08
:100AA00051F8043B40F8043B51F8043B40F8043B48
:100AB00051F8043B40F8043B103AEDD20C3205D318
:100AC00051F8043B40F8043B043AF9D2043208D010
:100AD000D2071CBF11F8013B00F8013B01D30B8882
:100AE00003806046704700BF082A13D38B078DD060
:100AF00010F003038AD0C3F10403D21ADB071CBF32
:100B000011F8013B00F8013B80D331F8023B20F89B
:100B1000023B7BE7043AD9D3013A11F8013B00F8D4
:100B2000013BF9D20B7803704B7843708B7883705C
:100B30006046704770B54FF0FF0C4CF4E06C1CEA57
:100B400011541DBF1CEA135594EA0C0F95EA0C0FC3
:100B500000F0DEF82C4481EA030621EA4C5123EA36
:100B60004C5350EA013518BF52EA033541F4801165
:100B700043F4801338D0A0FB02CE4FF00005E1FB18
:100B800002E506F00042E0FB03E54FF00006E1FB62
:100B900003569CF0000F18BF4EF0010EA4F1FF04A5
:100BA000B6F5007F64F5407404D25FEA4E0E6D41E5
:100BB00046EB060642EAC62141EA55514FEAC520F6
:100BC00040EA5E504FEACE2EB4F1FD0C88BFBCF572
:100BD000E06F1ED8BEF1004F08BF5FEA500E50F123
:100BE000000041EB045170BD06F0004646EA0101E9
:100BF00040EA020081EA0301B4EB5C04C2BFD4EB1B
:100C00000C0541EA045170BD41F480114FF0000E13
:100C1000013C00F3AB8014F1360FDEBF002001F081
:100C2000004170BDC4F10004203C35DA0C341BDCFB
:100C300004F11404C4F1200500FA05F320FA04F0CD
:100C400001FA05F240EA020001F0004221F0004101
:100C500010EBD37021FA04F642EB06015EEA430E74
:100C600008BF20EAD37070BDC4F10C04C4F12005A4
:100C700000FA04F320FA05F001FA04F240EA020057
:100C800001F0004110EBD37041F100015EEA430E28
:100C900008BF20EAD37070BDC4F1200500FA05F248
:100CA0004EEA020E20FA04F301FA05F243EA0203C7
:100CB00021FA04F001F0004121FA04F220EA0200D6
:100CC00000EBD3705EEA430E08BF20EAD37070BD1C
:100CD00094F0000F0FD101F00046400041EB0101FC
:100CE00011F4801F08BF013CF7D041EA060195F0DE
:100CF000000F18BF704703F00046520043EB030398
:100D000013F4801F08BF013DF7D043EA0603704784
:100D100094EA0C0F0CEA135518BF95EA0C0F0CD08F
:100D200050EA410618BF52EA4306D1D181EA0301D5
:100D300001F000414FF0000070BD50EA410606BFCF
:100D40001046194652EA430619D094EA0C0F02D114
:100D500050EA013613D195EA0C0F05D152EA033659
:100D60001CBF104619460AD181EA030101F0004177
:100D700041F0FE4141F470014FF0000070BD41F0C0
:100D8000FE4141F4780170BD70B54FF0FF0C4CF49A
:100D9000E06C1CEA11541DBF1CEA135594EA0C0FB9
:100DA00095EA0C0F00F0A7F8A4EB050481EA030E06
:100DB00052EA03354FEA013100F088804FEA0333ED
:100DC0004FF0805545EA131343EA12634FEA0222BB
:100DD00045EA111545EA10654FEA00260EF000417C
:100DE0009D4208BF964244F1FD0404F5407402D2CE
:100DF0005B084FEA3202B61A65EB03055B084FEA5F
:100E000032024FF480104FF4002CB6EB020E75EB5B
:100E1000030E22BFB61A754640EA0C005B084FEA83
:100E20003202B6EB020E75EB030E22BFB61A754600
:100E300040EA5C005B084FEA3202B6EB020E75EB4B
:100E4000030E22BFB61A754640EA9C005B084FEAC3
:100E50003202B6EB020E75EB030E22BFB61A7546D0
:100E600040EADC0055EA060E18D04FEA051545EABF
:100E700016754FEA06164FEAC30343EA52734FEA68
:100E8000C2025FEA1C1CC0D111F4801F0BD141EAE1
:100E900000014FF000004FF0004CB6E711F4801F46
:100EA00004BF01430020B4F1FD0C88BFBCF5E06F26
:100EB0003FF6AFAEB5EB030C04BFB6EB020C5FEA36
:100EC000500C50F1000041EB045170BD0EF0004E8B
:100ED0004EEA113114EB5C04C2BFD4EB0C0541EABD
:100EE000045170BD41F480114FF0000E013C90E6BA
:100EF00045EA060E8DE60CEA135594EA0C0F08BF7E
:100F000095EA0C0F3FF43BAF94EA0C0F0AD150EA7C
:100F100001347FF434AF95EA0C0F7FF425AF10460F
:100F200019462CE795EA0C0F06D152EA03353FF437
:100F3000FDAE1046194622E750EA410618BF52EAB4
:100F400043067FF4C5AE50EA41047FF40DAF52EA88
:100F500043057FF4EBAE12E74FF0FF3C06E000BF25
:100F60004FF0010C02E000BF4FF0010C4DF804CD32
:100F70004FEA410C7FEA6C5C4FEA430C18BF7FEAF2
:100F80006C5C1BD001B050EA410C0CBF52EA430C20
:100F900091EA030F02BF90EA020F0020704710F1A0
:100FA000000F91EA030F58BF994208BF90422CBF2F
:100FB000D8176FEAE37040F0010070474FEA410C28
:100FC0007FEA6C5C02D150EA013C07D14FEA430C46
:100FD0007FEA6C5CD6D152EA033CD3D05DF8040BB7
:100FE000704700BF8446104662468C4619466346E9
:100FF00000E000BF01B5FFF7B7FF002848BF10F1C0
:10100000000F01BD4DF808EDFFF7F4FF0CBF012004
:1010100000205DF808FB00BF4DF808EDFFF7EAFF80
:1010200034BF012000205DF808FB00BF4DF808ED3B
:10103000FFF7E0FF94BF012000205DF808FB00BF30
:101040004DF808EDFFF7CEFF94BF012000205DF8BA
:1010500008FB00BF4DF808EDFFF7C4FF34BF0120C7
:1010600000205DF808FB00BF4FEA410C7FEA6C5C92
:1010700002D150EA013C0AD14FEA430C7FEA6C5C92
:1010800002D152EA033C02D14FF0000070474FF00A
:10109000010070474FEA410212F5001215D211D536
:1010A0006FF47873B3EB625212D94FEAC12343F065
:1010B000004343EA505311F0004F23FA02F018BFE7
:1010C000404270474FF00000704750EA013005D1B0
:1010D00011F0004008BF6FF0004070474FF0000073
:1010E000704700BF2DE9F04F8BB0002405940694A3
:1010F000079408940994934BDA6C42F01002DA6476
:10110000DA6C02F010020092009ADA6C42F00402EB
:10111000DA64DA6C02F004020192019ADA6C42F0AD
:101120000102DA64DA6C02F001020292029ADA6CCD
:1011300042F00202DA64DA6C02F002020392039ACD
:10114000DA6C42F00802DA64DB6C03F00803049303
:10115000049BDFF8F48122464FF48A71404601F087
:101160007DFA224648F21C114FF0904001F076FAC9
:10117000764D22464FF21401284601F06FFA744E64
:10118000224641F28101304601F068FA01224FF413
:101190000051304601F062FADFF8B8A12246402142
:1011A000504601F05BFA01222021284601F056FA50
:1011B00001221146404601F051FA40F21513059301
:1011C000012706970794089405A9404601F040F9C5
:1011D0006A2305934FF4881BCDF818B0079405A92E
:1011E000404601F035F94FF4005305934FF40413D2
:1011F0000693079405A9504601F02AF93F23059369
:101200000B230693079405A9504601F021F94FF0EE
:101210000308CDF814804FF00209CDF81890079418
:10122000CDF820800823099305A94FF0904001F0E4
:101230000FF948F21C13059306970794089405A923
:101240004FF0904001F004F90597CDF818B00794DD
:1012500005A9284601F0FCF8CDF814900B2306935D
:10126000079405A9284601F0F3F84FF234030593DB
:1012700006970794089405A9284601F0E9F84CF66A
:1012800004430593CDF818B0079405A9304601F042
:10129000DFF843F28103059306970794089405A9A4
:1012A000304601F0D5F8402305930697079408943B
:1012B00005A9504601F0CCF84FF4C0730593CDF862
:1012C00018B0079405A9504601F0C2F8CDF8149063
:1012D000CDF818900794CDF820800523099305A92F
:1012E000304601F0B5F878230593CDF818900794AF
:1012F000CDF820800723099305A9304601F0A8F80E
:101300004FF440730593122306930794CDF8208081
:101310000423099305A9284601F09AF8224621469C
:10132000172000F08FFF172000F0C4FF224621464F
:10133000282000F087FF282000F0BCFF0BB0BDE89C
:10134000F08F00BF00100240001000480004004869
:10135000000C00480008004800B583B001904FF031
:10136000FF33012201A9034803F00FFC019803B0E9
:101370005DF804FBA811002008B5044B834200D09F
:1013800008BD034800F099FEFAE700BF5C11002099
:10139000B012002072B6FEE708B50D480D4B036091
:1013A00001220271002383600221C1600361436155
:1013B0004FF480718161C3610421016243628262E2
:1013C000C362036300F0C0FF00B908BDFFF7E2FF8E
:1013D000D40900202060014008B51148114B03607A
:1013E000114B4360002383600122C26003614361AB
:1013F0008361C361036201F045F950B900210848D7
:1014000001F09EF938B90021054801F0C7F920B96B
:1014100008BDFFF7BFFFFFF7BDFFFFF7BBFF00BF32
:101420000C0A002000580040EC9C901008B50A48B7
:101430000A4B036002234360042383601023C360CC
:101440001723036100234361836101F011FB00B99D
:1014500008BDFFF79FFF00BF6C0F0020001000A029
:1014600008B50F480F4B03604FF4827343600023AD
:1014700083604FF44072C260036143614FF40072B5
:101480008261C3610362436283620722C2620363B3
:101490000823436302F083FC00B908BDFFF77AFF1D
:1014A00014100020003C004008B50B480B4B0360B3
:1014B0004FF4E133436000238360C36003610C2277
:1014C00042618361C3610362436203F002FC00B9BD
:1014D00008BDFFF75FFF00BFA811002000380140E2
:1014E00008B50B480B4B03604FF4E1334360002316
:1014F0008360C36003610C2242618361C361036244
:10150000436203F0E6FB00B908BDFFF743FF00BFED
:101510002C1200200048004008B50B484FF0A043B3
:101520000360062343600223C36083610023C36119
:101530000362436283620363C36201F05BF900B933
:1015400008BDFFF727FF00BF600A002000B585B087
:1015500000230193029303930E480F4A026041F661
:101560003F724260836042F20F72C260836102F098
:101570009DFF50B900230193039301A9054803F08F
:1015800051F820B905B05DF804FBFFF703FFFFF742
:1015900001FF00BF101100200010004000B589B00D
:1015A00000230493059306930793019302930393F7
:1015B0001248134A0260436083606322C260036181
:1015C000836102F073FF90B94FF48053049304A930
:1015D0000A4802F0A7FF60B900230193039301A911
:1015E000064803F01FF830B909B05DF804FBFFF7B7
:1015F000D1FEFFF7CFFEFFF7CDFE00BF7810002031
:101600000004004000B589B00023049305930693BD
:1016100007930193029303931248134A02604360B5
:1016200083604FF6FF72C2600361836102F03EFF88
:1016300090B94FF48053049304A90A4802F072FF52
:1016400060B900230193039301A9064802F0EAFF61
:1016500030B909B05DF804FBFFF79CFEFFF79AFE76
:10166000FFF798FEC41000200008004008B510489D
:10167000104B03604FF482734360002383604FF488
:10168000E062C260036143614FF400728261302204
:10169000C2610362436283620722C262036308235A
:1016A000436302F07CFB00B908BDFFF773FE00BF87
:1016B000B00F00200030014000B585B00023019339
:1016C000029303930E480F4A026041F63F72426054
:1016D000836040F2E732C260836102F0E7FE50B9F6
:1016E00000230193039301A9054802F09BFF20B951
:1016F00005B05DF804FBFFF74DFEFFF74BFE00BFA2
:101700005C1100200014004000B597B04422002175
:1017100005A803F0CFFC00230093019302930393E9
:1017200004934FF4007001F027F9002831D101F043
:1017300013F91B4AD2F8903023F01803C2F8903006
:1017400014230593012307930B9300220C9260222C
:101750000D9202220F9210931193282312930723C4
:1017600013931492159205A801F078FA98B90F23F3
:101770000093032301930023029303930493042112
:10178000684601F079FD40B902F0ECF917B05DF858
:1017900004FBFFF7FFFDFFF7FDFDFFF7FBFD00BFBB
:1017A0000010024000B583B000F004FDFFF7ACFF6D
:1017B000FFF798FCFFF7F0FDFFF70EFEFFF736FE90
:1017C000FFF74EFEFFF770FEFFF78AFEFFF7A4FE5D
:1017D000FFF7BCFEFFF7E2FEFFF714FFFFF746FF3F
:1017E000FFF76AFF174803F019FD174C174B2360EA
:1017F0004FF0904363601022228108222282E3602E
:10180000134B6361642000F0F7FC204600F092FB6C
:10181000104B01934FF0FF3300936A46012120469D
:1018200000F0A2FB204600F048FC204600F01AFC25
:10183000204600F042FC6A461121204600F094FB4D
:10184000FEE700BF08B00008B0120020B00F002073
:101850005C1100201122334482B00A4B1A6E42F010
:1018600001021A661A6E02F001020092009A9A6D45
:1018700042F080529A659B6D03F080530193019B67
:1018800002B070470010024000B5ABB000212591B6
:101890002691279128912991882203A803F00AFC18
:1018A0001A4B1B6813B12BB05DF804FB4FF4803367
:1018B000039303A801F02CFF28BB154B1A6E42F0CE
:1018C00080721A661A6E02F080720192019ADA6CC6
:1018D00042F01002DA64DB6C03F010030293029B07
:1018E0004FF42073259302232693002327932893F4
:1018F0000623299325A9074800F0AAFD034A136887
:1019000001331360CFE7FFF745FDD6E7C81200208B
:10191000001002400010004810B5AAB00446002193
:1019200025912691279128912991882203A803F0D7
:10193000C1FB2268184B9A4201D02AB010BD802307
:10194000039303A801F0E4FE10BB144CE36C43F0D6
:101950000203E364E36C03F002030193019B4FF481
:10196000406325931223269301232793032328936F
:101970000423299325A90A4800F06AFDA36D43F4C6
:101980008003A365A36D03F480030293029BD4E755
:10199000FFF700FDD9E700BF0058004000100240EB
:1019A0000004004800B589B0002303930493059315
:1019B000069307930268154B9A4202D009B05DF86E
:1019C00004FB03F1204303F500331A6D42F48072E7
:1019D0001A651A6D02F480720192019ADA6C42F073
:1019E0001002DA64DB6C03F010030293029B4FF4E5
:1019F0007C43039302230493032306930A23079350
:101A000003A9034800F024FDD8E700BF001000A0A0
:101A10000010004800B58BB0002305930693079390
:101A2000089309930368254A934205D0244A9342B8
:101A300023D00BB05DF804FB224B1A6E42F48052A7
:101A40001A661A6E02F480520192019ADA6C42F020
:101A50000102DA64DB6C03F001030293029BE023D2
:101A6000059302230693032308930523099305A9ED
:101A70004FF0904000F0ECFCDBE7124B9A6D42F423
:101A800000429A659A6D02F400420392039ADA6C5E
:101A900042F00402DA64DB6C03F004030493049B59
:101AA0004FF4E05305930223069303230893062380
:101AB000099305A9044800F0CBFCBAE700300140C7
:101AC000003C0040001002400008004800B58BB008
:101AD0000023059306930793089309930368334AF9
:101AE00093420BD0324A93422ED0324A934236D0A0
:101AF000314A934246D00BB05DF804FB2F4B9A6DF0
:101B000042F002029A659A6D02F002020092009A77
:101B1000DA6C42F00402DA64DB6C03F00403019334
:101B2000019B4FF40073059302230693099305A9C3
:101B3000234800F08DFC002211461D2000F082FB9E
:101B40001D2000F0B7FBD6E71C4B9A6D42F0040253
:101B50009A659B6D03F004030293029BCBE7174B3E
:101B60009A6D42F010029A659B6D03F01003039387
:101B7000039B00221146362000F064FB362000F063
:101B800099FBB8E70D4B9A6D42F020029A659B6D68
:101B900003F020030493049B00221146372000F039
:101BA00051FB372000F086FBA5E700BF0004004092
:101BB00000080040001000400014004000100240E7
:101BC0000008004810B5ACB00446002127912891C8
:101BD00029912A912B91882205A803F06BFA23689A
:101BE0002F4A934204D02F4A93422CD02CB010BDE0
:101BF0000123059305A801F08BFD08BB2A4B1A6E43
:101C000042F480421A661A6E02F480420192019AEE
:101C1000DA6C42F00202DA64DB6C03F00203029336
:101C2000029BC02327930223289300232993032395
:101C30002A9307232B9327A91C4800F009FCD5E71A
:101C4000FFF7A8FBDAE70423059305A801F060FD80
:101C500010BB154B9A6D42F480229A659A6D02F47E
:101C600080220392039ADA6C42F00802DA64DB6C99
:101C700003F008030493049B4FF44073279302235B
:101C800028930023299303232A9307232B9327A91F
:101C9000074800F0DDFBA9E7FFF77CFBD9E700BFB1
:101CA0000038014000480040001002400004004895
:101CB000000C004830B5ABB00446002125912691B8
:101CC000279128912991882203A803F0F3F923682A
:101CD000B3F1A04F01D02BB030BD4FF400530393AC
:101CE0004FF080631E9301230493059318230693FA
:101CF000072307930223089309934FF480130A9351
:101D000003A801F005FD002840D1234CE36C43F00B
:101D10000103E364E36C03F001030093009B4FF4C1
:101D20000073259300252695279525A94FF090400F
:101D300000F08EFB4FF4E053259302232693279562
:101D4000032328930A23299325A94FF0904000F0FC
:101D50007FFBE36C43F48053E364E36C03F4805350
:101D60000193019BA36D13F0805F12D1A36D43F02B
:101D70008053A365A36D03F080530293029B00F090
:101D800043FEA36D23F08053A365A4E7FFF702FB96
:101D9000BBE700F039FE9EE700100240FEE7FEE7D9
:101DA000FEE7FEE7FEE770477047704708B500F0B2
:101DB00011FA08BD08B5202000F056FC402000F0C4
:101DC00053FC802000F050FC4FF4807000F04CFC7D
:101DD00008BD000008B5024802F036FA08BD00BF91
:101DE0007810002008B54FF4806000F03DFC4FF4FF
:101DF000006000F039FC4FF4005000F035FC4FF467
:101E0000804000F031FC4FF4004000F02DFC08BD94
:101E100008B5024802F018FA08BD00BF10110020F2
:101E200008B5024802F010FA08BD00BF5C1100209E
:101E30000120704708B503F013F9162303604FF033
:101E4000FF3008BD08B54FF0FF31FFF7F3FFFEE7A5
:101E500070B50C461646002506E0AFF3008021461B
:101E600001F8010B01350C46B542F6DB304670BD7A
:101E700070B50C461646002504E014F8010BFFF778
:101E80006BFA0135B542F8DB304670BD4FF0FF30DC
:101E900070474FF400534B6000207047012070479B
:101EA0000020704710B503460C4A0D490D480068E4
:101EB00040B10C4800680344521A934206D8094ABC
:101EC000136010BD0748084C0460F2E703F0C8F83F
:101ED0000C2303604FF0FF30F3E700BF00800120C8
:101EE00000040000CC12002040130020704708417D
:101EF00000F0010070470346012088401978014333
:101F0000C8B218707047024601208840137823EA4F
:101F100000001070704700B583B08DF807009DF881
:101F200007000521FFF7E3FF10B903B05DF804FBDC
:101F30000120FAE710B504460022018AC06800F0CB
:101F40008DFB606902F036F900222189606800F09B
:101F500085FB002000F050F901222189606800F023
:101F60007DFB0123A37410BDF0B585B004460E4679
:101F7000154641F040038DF80C3000228DF80D20FD
:101F80008DF80E208DF80F200189406800F066FB67
:101F90004FF0FF33009304232A4603A9206801F081
:101FA0006DFF074601222189606800F057FB287801
:101FB000FFF7B1FFE07417B140F00200E074E47C79
:101FC00064B9AB78EA78019200936B782A7831464D
:101FD000034803F0C1F8204605B0F0BDAB24F0E79C
:101FE00078B0000870B584B01D464B1EDBB2022BE2
:101FF0002FD8044610468DF80C1000228DF80D20C5
:102000008DF80E208DF80F2001888378ADF80D1023
:102010008DF80F302189606800F020FB4FF0FF330E
:10202000009304232A4603A9206801F027FF0646EF
:1020300001222189606800F011FB2878FFF76BFF0F
:10204000E07416B140F00200E074E07C30B904B0F6
:1020500070BD034803F080F80020F8E7AB20F6E7F6
:10206000A0B0000830B585B0044600250395029560
:1020700001210DF10E00FFF73EFF03210DF10A00D3
:10208000FFF741FF02210DF10A00FFF734FF019530
:1020900001AB0DF10D0203212046FFF7A3FF01ABB9
:1020A0000DF1090201212046FFF79CFF01AA012141
:1020B0002046FFF759FF05B030BD10B582B0044689
:1020C0000023019301AA0321FFF74EFF01219DF890
:1020D0000700FFF70CFFA0B101210DF10700FFF78A
:1020E00012FF002300936B460DF1050203212046E9
:1020F000FFF778FF6A4611212046FFF735FF02B04F
:1021000010BD01210DF10700FFF7F5FEE9E7000022
:10211000DFF834D0FFF7EAFE0C480D490D4A0023E2
:1021200002E0D458C4500433C4188C42F9D30A4A8C
:102130000A4C002301E013600432A242FBD302F0F8
:1021400095FFFFF72FFBFEE7008001200000002035
:10215000B8090020D4B40008B809002040130020BA
:10216000FEE70000104B1B780BB90120704710B53B
:1021700004464FF47A70B0FBF3F30C4A1068B0FBDE
:10218000F3F000F0A5F868B90F2C01D901200AE09E
:10219000002221464FF0FF3000F054F8044B1C6041
:1021A000002000E0012010BD0400002000000020FD
:1021B0000800002010B5032000F032F80020FFF7DF
:1021C000D1FF10B10124204610BD0446FFF744FBA7
:1021D000F9E70000034B1B78034A11680B441360B6
:1021E000704700BF04000020D0120020014B186887
:1021F000704700BFD012002038B50446FFF7F6FF45
:102200000546B4F1FF3F02D0044B1B781C44FFF796
:10221000EDFF401BA042FAD338BD00BF04000020F0
:10222000074AD36823F4E0631B041B0C000200F48C
:10223000E060034343F0BF6343F40033D36070476F
:1022400000ED00E000B5194BDB68C3F30223C3F1D6
:10225000070CBCF1040F28BF4FF0040C03F1040E6F
:10226000BEF1060F18D9033B4FF0FF3E0EFA0CFCEF
:1022700021EA0C0199400EFA03F322EA0303194301
:1022800000280BDB0901C9B200F1604000F5614094
:1022900080F800135DF804FB0023E5E700F00F0071
:1022A0000901C9B2024B1954F4E700BF00ED00E088
:1022B00014ED00E0002807DB00F01F0240090123B5
:1022C0009340024A42F82030704700BF00E100E02E
:1022D0000138B0F1807F0BD24FF0E0235861054AFE
:1022E000F02182F823100020986107221A617047BC
:1022F0000120704700ED00E0124B984215D02033CA
:10230000984214D02033984213D04033984212D0D0
:102310002033984211D02033984210D02033984275
:1023200001D003207047072070470020704701202C
:102330007047022070470420704705207047062030
:10234000704700BF00600140002878D010B50446F7
:102350000068FFF7D1FF3B4B53F820300BB1012051
:1023600010BD2046FFF790FA374B1A6801321A6009
:102370001B68012B45D02268136823F47143136056
:1023800021680A68236960690343A0690343134312
:102390000B602268136823F00F03136021680B6839
:1023A000E269206A024313430B602268936823F4B6
:1023B0005F03936020688368626AA16A013942EA18
:1023C0000142134383602268536803F0070353609C
:1023D00021684A68E06A236BDB0043EA0023134369
:1023E0004B602268136843F080031360012384F874
:1023F00034302068FFF780FF124B43F82040002064
:10240000AEE7124B1A6822F080421A601A68A1687F
:102410000A431A601A6822F47F021A602379012B9A
:1024200005D00A4A136843F000431360A3E7074945
:102430000B68E268013A43EA02430B60F1E70120CE
:10244000704700BFD4120020F41200200060014049
:1024500070B582B000236EE085685E000324B4404E
:1024600025EA0405CC68B4402C438460456825EA1D
:102470000C054C68C4F300149C402C4344606DE090
:10248000C56A25EA0C0CC4F3C0049C4044EA0C0461
:10249000C46269E0DD08083550F8256003F00704E0
:1024A0004FEA840C0F2404FA0CF426EA040E0C699B
:1024B00004FA0CF444EA0E0440F825406CE00624CB
:1024C00000E0002404FA0EF42C430CF1020C5F4DE2
:1024D00045F82C405E4CA568D44325EA0206D1F8A5
:1024E00004C01CF4801F01D042EA0506584DAE60BE
:1024F000ED6804EA0506D1F804C01CF4001F01D001
:1025000042EA0506524DEE606D6804EA0506D1F810
:1025100004C01CF4003F01D042EA05064C4D6E6039
:102520002D682C404E6816F4803F01D042EA050425
:10253000474A146001330A6832FA03F400F08380DA
:102540004FF0010C0CFA03FC1CEA0202F2D04C68BA
:1025500004F00304013C012C7FF67EAF4C6804F0CC
:10256000030EBEF1030F8BD04C6804F00304032C60
:102570000CD0C4685D004FF0030C0CFA05FC24EA93
:102580000C0C8C68AC4044EA0C04C4604C6804F049
:102590000304022C3FF47EAF04684FEA430E4FF071
:1025A000030C0CFA0EFC24EA0C0C4C6804F0030437
:1025B00004FA0EF444EA0C0404604C6814F4403F3E
:1025C000B8D0244C256E45F001052566246E04F034
:1025D00001040194019C4FEA930C0CF102051B4C81
:1025E00054F8255003F003044FEA840E0F2404FA34
:1025F0000EF425EA0405B0F1904F3FF462AF164C9B
:10260000A04216D004F58064A04214D004F5806482
:10261000A04212D004F58064A04210D004F580647A
:10262000A0420ED004F58064A0423FF448AF0724D6
:1026300048E7012446E7022444E7032442E7042450
:1026400040E705243EE702B070BD00BF0000014036
:102650000004014000100240000400480AB18161FA
:10266000704781627047704708B5054B5B6903424C
:1026700000D108BD024B5861FFF7F5FFF9E700BF35
:1026800000040140002859D010B5044690F84130AC
:10269000002B43D0242384F841302268136823F0B0
:1026A000010313606368226823F07063136122687A
:1026B000936823F400439360E368012B33D0A3684D
:1026C000226843F404439360E368022B31D022680C
:1026D000536843F0007343F4004353602268D368A7
:1026E00023F40043D360236962691343A16922681C
:1026F00043EA0123D360E369216A22680B43136034
:102700002268136843F001031360002060642023F3
:1027100084F84130206384F8420010BD80F84030D6
:10272000FFF7FAF8B6E7A368226843F40043936022
:10273000CAE723684FF400625A60C8E70120704777
:1027400090F84130DBB2202B24D190F84030012B9F
:1027500022D0012380F84030242380F841300268E1
:10276000136823F0010313600268136823F4805395
:10277000136002681368194311600268136843F01C
:1027800001031360202380F84130002380F840309B
:1027900018467047022070470220704790F8413079
:1027A000DBB2202B22D190F84030012B20D0012326
:1027B00080F84030242380F841300268136823F009
:1027C000010313600268136823F4706343EA012174
:1027D00011600268136843F001031360202380F83E
:1027E0004130002380F8403018467047022070477F
:1027F0000220704770B58AB0002800F09780054627
:10280000046890F8BD343BB3032385F8BD34E36B13
:1028100013F4807F01D100232B61286802F0CEFAE7
:102820002C4654F8106BEC460FCCACE80F000FCCE4
:10283000ACE80F0094E803008CE803002B1D0ECBDE
:10284000304602F09FFA044658B1022385F8BD34A1
:10285000012420460AB070BD80F8BC34FFF72AFA84
:10286000D2E70021286802F0C9FB234616E003EBFB
:10287000C30205EB8202012182F83D1082F83C3050
:10288000A2F84430002182F840109164D16403EB37
:10289000C30205EB820251650133DBB269688B42EA
:1028A000E5D316E004EBC40305EB8303002283F8B1
:1028B0007D2283F87C4283F88022C3F88822C3F803
:1028C0008C2204EBC40305EB8303C3F89422013488
:1028D000E4B2A142E6D82C4654F8106BEC460FCC7B
:1028E000ACE80F000FCCACE80F0094E803008CE8D4
:1028F00003002B1D0ECB304602F0BCFA044660B933
:10290000002385F83830012385F8BD346B6A012B2C
:1029100008D0286802F060FB9BE7022385F8BD34ED
:10292000012496E7284600F003F8F2E7012490E737
:10293000034602680121C0F80015002083F8F40462
:10294000936943F000639361536D43F0805343F008
:102950000303536570470000024A136843F4807311
:102960001360704700700040024B186800F4C060AC
:10297000704700BF00700040B0F5007F0FD01F4BC4
:102980001B6803F4C063B3F5806F34D01B4A13682F
:1029900023F4C06343F48063136000207047174B37
:1029A0001B6803F4C063B3F5007F20D0134A13689B
:1029B00023F4C06343F400731360114B1B6832228D
:1029C00002FB03F30F4AA2FB03239B0C013300E03D
:1029D000013B0A4A526912F4806F01D0002BF7D1F3
:1029E000064B5B6913F4806F03D100207047002011
:1029F0007047032070470020704700BF0070004000
:102A00000000002083DE1B43024A536843F48063C6
:102A100053607047007000402DE9F84305460F46AB
:102A200016469946DDF820802C68A4683C4214BF05
:102A30004FF0010C4FF0000CB44514D0B8F1FF3F3B
:102A4000F2D0FFF7D3FBA0EB0900404502D8B8F164
:102A5000000FE9D1042385F83930EB6B43F0010313
:102A6000EB63012000E00020BDE8F88301647047BB
:102A700070B582B00446FFF7B9FB002C48D006467B
:102A800094F83930002B38D025682A6822F4706217
:102A9000A168013942EA01222A60236C009333467F
:102AA000002220212046FFF7B7FF08BB21680B68F2
:102AB00023F07F4323F010036568E26842EA056271
:102AC00013430B6021684A68124B13402569626901
:102AD00042EA0542A5692A4313434B602268136802
:102AE00043F0010313600023E363012384F83930CA
:102AF000002384F8383002B070BD84F838302046A6
:102B0000FEF750FF41F288312046FFF7AFFFBBE7E9
:102B10000120F0E7FEF8E0FF30B583B00446204B1B
:102B20009B6D13F0805F0BD0FFF71EFFB0F5007FA9
:102B300017D0802C1FD82DD0702C2DD000211BE059
:102B4000174DAB6D43F08053AB65AB6D03F0805315
:102B50000193019BFFF708FFAB6D23F08053AB653A
:102B6000E4E7802C03D9A02C03D9022104E0002142
:102B700002E0012100E003210A4A136823F0070361
:102B80000B431360136803F007038B4206D1002048
:102B900003B030BD0221EFE70121EDE70120F7E7A7
:102BA0000010024000200240284A9368D26802F0D8
:102BB000030213F00C030AD00C2B06D0042B1FD0F9
:102BC000082B20D00020024610E0012AF6D11F4A2F
:102BD000126812F0080F0CD11C4AD2F89420C2F3EC
:102BE00003221B4951F8222043B100200C2B0DD0A9
:102BF0007047164A1268C2F30312F2E71046F5E76F
:102C000014480022F2E714480022EFE70F4BDB687C
:102C100003F00303022B16D0032B00D10E4A0B49FD
:102C2000C868C0F30210431CC868C0F3062002FB4A
:102C300000F0B0FBF3F0CB68C3F3416301335B00FA
:102C4000B0FBF3F0D4E7034AE9E700BF001002400D
:102C500048B000080024F40000127A00002800F0B8
:102C6000F182F0B583B00446964B9D6805F00C05E3
:102C7000DE6806F00306036813F0100F5AD0E5B1C2
:102C80000C2D18D0A369002B00F0BB808D4A13686F
:102C900043F001031360FFF7A9FA0746894B1B684D
:102CA00013F0020F40F09A80FFF7A0FAC01B022831
:102CB000F4D90320D1E2012EE4D1824B1B6813F03A
:102CC000020F03D0A369002B00F0BE82206A7D4B67
:102CD0001B6813F0080F5BD07A4B1B6803F0F003FE
:102CE00098425CD8774B1A6842F008021A601A685A
:102CF00022F0F002216A0A431A605A6822F47F42E5
:102D0000E16942EA01225A60002D60D0FFF74CFFD2
:102D10006C4B9B68C3F303136B4AD35C03F01F0334
:102D2000D8406A4B18606A4B1868FFF71BFA0028F6
:102D300040F09382236813F0010F00F08180082D8A
:102D400075D00C2D71D06368B3F5803F00F097808B
:102D5000B3F5A02F00F099805A4B1A6822F4803204
:102D60001A601A6822F480221A606368002B00F04F
:102D70009980FFF73BFA0746524B1B6813F4003F5C
:102D80005ED1FFF733FAC01B6428F5D9032064E253
:102D90004C4BD3F894301B0903F0F003A0E7FFF786
:102DA000BBFE002840F05282464B1A6842F00802EF
:102DB0001A601A6822F0F002216A0A431A605A68FF
:102DC00022F47F42E16942EA01225A609EE7206ACA
:102DD000FFF7A2FE002899D001203EE2394B1A6885
:102DE00042F008021A601A6822F0F002216A0A43CF
:102DF0001A605A6822F47F42E16942EA01225A606D
:102E000098E7304A136823F001031360FFF7EEF9E7
:102E100007462C4B1B6813F0020F8BD0FFF7E6F927
:102E2000C01B0228F5D9032017E2032E8BD1254BB6
:102E30001B6813F4003F03D06368002B00F0088286
:102E4000236813F0020F58D0042D45D00C2D41D02B
:102E5000E368002B77D01B4A136843F48073136038
:102E6000FFF7C4F90646174B1B6813F4806F61D156
:102E7000FFF7BCF9801B0228F5D90320EDE1114AC8
:102E8000136843F4803313606FE703F18043A3F5C5
:102E90003C331A6842F480221A601A6842F4803285
:102EA0001A6062E7FFF7A2F90746064B1B6813F4A6
:102EB000003FC5D0FFF79AF9C01B6428F5D903205D
:102EC000CBE100BF0010024030B00008000000203D
:102ED00008000020022EBBD1A34B1B6813F4806FA7
:102EE00003D0E368002B00F0B5819F4A536823F0BC
:102EF000F853216943EA01635360236813F0080F14
:102F00004CD063699BB3984AD2F8943043F00103E4
:102F1000C2F89430FFF76AF90646934BD3F8943021
:102F200013F0020F3AD1FFF761F9801B0228F4D9A0
:102F3000032092E18C4A536823F0F853216943EA55
:102F400001635360D9E7884A136823F480731360E0
:102F5000FFF74CF90646844B1B6813F4806FCCD006
:102F6000FFF744F9801B0228F5D9032075E17E4A5A
:102F7000D2F8943023F00103C2F89430FFF736F909
:102F80000646794BD3F8943013F0020F06D0FFF7C2
:102F90002DF9801B0228F4D903205EE1236813F089
:102FA000040F7AD0704B9B6D13F0805F36D16E4B5F
:102FB0009A6D42F080529A659B6D03F080530193A5
:102FC000019B0126694B1B6813F4807F28D0A368FE
:102FD000012B39D0052B3FD0634BD3F8902022F042
:102FE0000102C3F89020D3F8902022F00402C3F825
:102FF0009020A368002B3DD0FFF7F8F807465A4B06
:10300000D3F8903013F0020F46D1FFF7EFF8C01B52
:1030100041F288339842F2D903201EE10026D1E71D
:10302000524A136843F480731360FFF7DFF80746D2
:103030004E4B1B6813F4807FC9D1FFF7D7F8C01B34
:103040000228F5D9032008E1474AD2F8903043F02E
:103050000103C2F89030CCE7434BD3F8902042F004
:103060000402C3F89020D3F8902042F00102C3F884
:103070009020BEE7FFF7BAF807463B4BD3F89030F5
:1030800013F0020F08D0FFF7B1F8C01B41F28833EC
:103090009842F2D90320E0E0EEB9A36A002B00F0D9
:1030A000DB80022B1DD00C2D00F0DD802E4A136832
:1030B00023F080731360FFF799F804462A4B1B68CE
:1030C00013F0007F00F0B780FFF790F8001B022894
:1030D000F4D90320C1E0244A936D23F08053936513
:1030E000DBE7214BDB6803F00301E26A91420FD07A
:1030F0000C2D00F0B4801C4B1B6813F0806F40F067
:10310000B080194B1B6813F0805F31D00120A4E020
:1031100003F07002216B0139B2EB011FE8D103F417
:10312000FE42616BB2EB012FE2D103F40031A26BDE
:10313000073A18BF01229142DAD103F4C001E26BD1
:103140005208013AB1EB425FD2D103F0C063226C66
:103150005208013AB3EB426FCAD1034B1B6813F01C
:10316000007F4ED0002078E0001002400070004048
:103170003E4A136823F080731360FFF737F8054663
:103180003A4B1B6813F0007F06D0FFF72FF8401B67
:103190000228F5D9032060E0344AD3683449194045
:1031A000E36A206B013843EA0013606B43EA0023B3
:1031B000E06B4008013843EA4053206C4008013876
:1031C00043EA4063A06B000943EA40430B43D360EA
:1031D000136843F080731360D36843F08073D36047
:1031E000FFF704F80446214B1B6813F0007F06D15B
:1031F000FEF7FCFF001B0228F5D903202DE000207C
:103200002BE01A4B1A6842F080721A60DA6842F0BA
:103210008072DA60FEF7EAFF0446144B1B6813F075
:10322000007F06D1FEF7E2FF031B022BF5D9032036
:1032300013E0002011E00D4AD1680E4B0B40D36023
:1032400000200AE001207047012006E0012004E090
:10325000012002E0012000E0002003B0F0BD0120C9
:10326000FBE70120F9E70120F7E700BF001002406B
:103270008C809DF9FCFFEEFE002800F0AF8070B559
:103280000D460446594B1B6803F007038B420BD2D3
:10329000564A136823F007030B431360136803F0C7
:1032A00007038B4240F09C80236813F0020F0CD080
:1032B000A2684F4B9B6803F0F0039A4205D94C4932
:1032C0008B6823F0F0031A438A60236813F0010F20
:1032D00039D06368032B09D0022B26D063BB444A44
:1032E000126812F0020F06D1012076E0404A1268FF
:1032F00012F0007F76D03E498A6822F00302134321
:103300008B60FEF773FF0646394B9B6803F00C0396
:103310006268B3EB820F16D0FEF768FF801B41F2A4
:1033200088339842F0D9032057E0314A126812F4EA
:10333000003FE0D1012050E02D4A126812F4806F66
:10334000D9D1012049E0236813F0020F0CD0A26804
:10335000274B9B6803F0F0039A4205D224498B68FF
:1033600023F0F0031A438A60204B1B6803F0070325
:10337000AB420AD91D4A136823F007032B4313609D
:10338000136803F00703AB422ED1236813F0040F38
:1033900006D0174A936823F4E063E1680B43936017
:1033A000236813F0080F07D0114A936823F4605381
:1033B000216943EAC1039360FFF7F6FB0C4B9B685E
:1033C000C3F303130B4AD35C03F01F03D8400A4B2B
:1033D00018600A4B1868FEF7C5FE70BD01207047E3
:1033E0000120FAE70120F8E70120F6E7002002407B
:1033F0000010024030B0000800000020080000204B
:10340000014B1868704700BF0000002008B5FFF7A7
:10341000F7FF054B9B68C3F30223044AD35C03F018
:103420001F03D84008BD00BF0010024040B0000894
:1034300008B5FFF7E5FF054B9B68C3F3C223044AB9
:10344000D35C03F01F03D84008BD00BF001002404A
:1034500040B00008F8B504460F46594BDB6813F03E
:10346000030F18D0564BDB6803F003030268934246
:1034700002D001252846F8BD002A00F09E80504B5E
:10348000DB68C3F3021301334268934201D0012584
:10349000F0E7002509E00368022B57D0032B5CD02E
:1034A000012B42D00125002DE4D1454A136823F0B9
:1034B00080631360FEF79AFE0646414B1B6813F0CB
:1034C000006F05D0FEF792FE831B022BF5D9032572
:1034D000002DCFD1002F4ED139490B6923F41F3372
:1034E00023F44073A068E2681209520442EA002201
:1034F00013430B61324A136843F080631360FEF795
:1035000075FE06462E4B1B6813F0006F05D1FEF7C3
:103510006DFE831B022BF5D90325002DAAD1284A65
:103520001369A1690B431361A4E7254A126812F0DD
:10353000020F1ED02248C26822F07302616801396E
:1035400043EA01131343C3600025ACE71C4A126829
:1035500012F4806FEED10125A5E7194A126812F422
:10356000003FE7D1164A126812F4802FE2D10125FC
:1035700099E7012597E7012F0FD01148026922F042
:10358000C06222F4FE42A16863695B08013B5B06EE
:1035900043EA012313430361ACE70948026922F4BB
:1035A000C00222F4FE42A16823695B08013B5B056F
:1035B00043EA0123134303619CE701255AE700BF57
:1035C00000100240F8B504460F46504BDB6813F07C
:1035D000030F18D04D4BDB6803F0030302689342DE
:1035E00002D001252846F8BD002A00F08C80474B08
:1035F000DB68C3F3021301334268934201D0012513
:10360000F0E7002509E00368022B57D0032B5CD0BC
:10361000012B42D00125002DE4D13C4A136823F050
:1036200080531360FEF7E2FD0646384B1B6813F02B
:10363000005F05D0FEF7DAFD831B022BF5D90325C9
:10364000002DCFD1002F4ED130494B6923F41F33C9
:1036500023F44073A068E2681209520442EA00228F
:1036600013434B61294A136843F080531360FEF7FC
:10367000BDFD0646254B1B6813F0005F05D1FEF724
:10368000B5FD831B022BF5D90325002DAAD11F4AB6
:10369000536961690B435361A4E71C4A126812F035
:1036A000020F1ED01948C26822F073026168013906
:1036B00043EA01131343C3600025ACE7134A1268C1
:1036C00012F4806FEED10125A5E7104A126812F4BA
:1036D000003FE7D10D4A126812F4802FE2D1012594
:1036E00099E7012597E70948426922F0C06222F470
:1036F000FE42A16823695B08013B5B0643EA0123A4
:1037000013434361AEE701256CE700BF00100240A0
:103710002DE9F04182B00446036813F4006F33D002
:10372000436EB3F5000F1FD00CD823B3B3F5800F51
:1037300005D100212030FFF745FF064620E0012794
:103740003E4623E0B3F5400F0BD10026604AD2F885
:10375000883023F44003616E0B43C2F888300027A1
:1037600014E001273E4611E0594AD36843F4803300
:10377000D3600026EAE700210430FFF76BFE06461F
:10378000002EE3D0374601E000273E46236813F4BD
:10379000805F30D0A36EB3F1007F1FD00DD81BB374
:1037A000B3F1807F06D1002104F12000FFF70AFF6A
:1037B000064605E001273E461DE0B3F1407F0AD1F1
:1037C000C6B9434AD2F8883023F04073A16E0B4348
:1037D000C2F888300FE001273E460CE03C4AD3682F
:1037E00043F48033D360EBE70021201DFFF732FE66
:1037F0000646E5E73746236813F4003F71D0344BA3
:103800009B6D13F0805F4ED1314B9A6D42F0805228
:103810009A659B6D03F080530193019B4FF0010863
:103820002C4A136843F480731360FEF7DFFC0546EF
:10383000284B1B6813F4807F05D1FEF7D7FC401B93
:103840000228F5D90326002E46D1214BD3F890301B
:1038500013F4407316D0D4F884209A4212D01C4A34
:10386000D2F8903023F44073D2F8901041F48031B4
:10387000C2F89010D2F8901021F48031C2F8901064
:10388000C2F8903013F0010F10D1002E40F02781C4
:103890000F4AD2F8903023F44073D4F884100B43CD
:1038A000C2F8903019E04FF00008B9E7FEF79EFC2F
:1038B0000546074BD3F8903013F0020FE5D1FEF721
:1038C00095FC401B41F288339842F2D90326DCE78D
:1038D00000100240007000403746B8F1000F40F081
:1038E0000081236813F0010F08D09D4AD2F8883078
:1038F00023F00303A16B0B43C2F88830236813F055
:10390000020F08D0964AD2F8883023F00C03E16BFE
:103910000B43C2F88830236813F0040F08D0904A94
:10392000D2F8883023F03003216C0B43C2F8883082
:10393000236813F0080F08D0894AD2F8883023F0A2
:10394000C003616C0B43C2F88830236813F0100F7A
:1039500008D0834AD2F8883023F44073A16C0B431B
:10396000C2F88830236813F0200F08D07C4AD2F8C0
:10397000883023F44063E16C0B43C2F8883023683D
:1039800013F4007F08D0764AD2F8883023F440231D
:10399000E16D0B43C2F88830236813F4806F08D0C0
:1039A0006F4AD2F8883023F44013216E0B43C2F8DB
:1039B0008830236813F0400F08D0694AD2F8883065
:1039C00023F44053216D0B43C2F88830236813F071
:1039D000800F08D0624AD2F8883023F44043616DEA
:1039E0000B43C2F88830236813F4807F08D05C4A08
:1039F000D2F8883023F44033A16D0B43C2F88830ED
:103A0000236813F4005F0FD0554AD2F8883023F0B2
:103A10004063E16E0B43C2F88830E36EB3F1006F90
:103A200065D0B3F1806F67D0236813F4002F0FD0F7
:103A30004B4AD2F8883023F04063216F0B43C2F821
:103A40008830236FB3F1006F5ED0B3F1806F60D028
:103A5000236813F4802F0FD0414AD2F8883023F026
:103A60004063616F0B43C2F88830636FB3F1006F3E
:103A700057D0B3F1806F59D0236813F4804F0FD023
:103A8000374AD2F8883023F04053A16F0B43C2F875
:103A90008830A36FB3F1805F50D0B3F1005F55D091
:103AA000236813F4004F08D02D4AD2F8883023F051
:103AB0008043E16F0B43C2F88830236813F4803FE2
:103AC00009D0274AD2F8883023F00043D4F8801078
:103AD0000B43C2F88830384602B0BDE8F081374663
:103AE000FBE61F4A936D23F080539365F9E6D36894
:103AF00043F48013D36097E70121201DFFF7AAFC50
:103B0000002891D007468FE7D36843F48013D36031
:103B10009EE70121201DFFF79DFC002898D0074655
:103B200096E7D36843F48013D360A5E70121201DF5
:103B3000FFF790FC00289FD007469DE70221201D3B
:103B4000FFF788FC0028ABD00746A9E7022104F163
:103B50002000FFF737FD0028A2D00746A0E700BFEE
:103B600000100240024A136843F0040313607047D8
:103B7000001002402DE9F04782B0054688461746FE
:103B80001E46FEF733FB0A9B1B1A03EB0609FEF7E2
:103B90002DFB82462B4B1B68C3F3CB3309FB03F38E
:103BA00001932B689C6838EA04030CBF4FF0010CAA
:103BB0004FF0000CBC4540D0B6F1FF3FF1D0FEF70E
:103BC00015FBA0EB0A0048450AD2B9F1000F07D057
:103BD000019A02B14A46019B013B01939146E0E7FD
:103BE0002A68536823F0E00353606B68B3F5827F63
:103BF0000BD0AB6AB3F5005F14D0012385F85D30BC
:103C0000002385F85C30032018E0AB68B3F5004F63
:103C100002D0B3F5806FECD12A68136823F040031B
:103C20001360E6E72A68136823F4005313602A68D8
:103C3000136843F400531360DFE7002002B0BDE8CF
:103C4000F08700BF000000202DE9F04782B0064653
:103C50000C4615461F4600238DF80330FEF7C6FAC2
:103C60000A9B1B1A03EB0708FEF7C0FA8146D6F839
:103C700000A0314B1B6803EB8303C3EBC3031B0D95
:103C800008FB03F3019302E0B7F1FF3F12D1336861
:103C90009B6803EA040CAC454AD0B4F5C06FF3D17D
:103CA000002DF1D19AF80C30DBB28DF803309DF87D
:103CB0000330E9E7FEF79AFAA0EB090040450AD283
:103CC000B8F1000F07D0019A02B14246019B013BB7
:103CD00001939046DBE73268536823F0E0035360BA
:103CE0007368B3F5827F0BD0B36AB3F5005F14D06D
:103CF000012386F85D30002386F85C30032018E04D
:103D0000B368B3F5004F02D0B3F5806FECD13268E1
:103D1000136823F040031360E6E73268136823F466
:103D2000005313603268136843F400531360DFE7F5
:103D3000002002B0BDE8F0870000002070B582B01E
:103D400004460D46164600920B4600224FF4C05121
:103D5000FFF77AFFB0B900962B460022802120465B
:103D6000FFF708FFA8B900962B4600224FF4C06168
:103D70002046FFF769FF50B1236E43F0200323660E
:103D8000032004E0236E43F020032366032002B0E7
:103D900070BD236E43F0200323660320F7E700285D
:103DA0006AD010B50446436A33B94368B3F5827FDD
:103DB00005D00023C36102E00023036143610023B7
:103DC000A36294F85D30002B4DD0022384F85D305F
:103DD0002268136823F040031360E368B3F5E06FD3
:103DE00047D90022B3F5706F04D0B3F5E06F01D06E
:103DF0000023A362636803F48273A16801F40441A1
:103E00000B43216901F002010B43616901F00101DB
:103E10000B43A16901F400710B43E16901F0380122
:103E20000B43216A01F080010B43A16A01F40051A8
:103E300020680B430360638B03F00403616A01F0A5
:103E400010010B43616B01F008010B43E16801F4C1
:103E500070610B43216813434B60002020660123EF
:103E600084F85D3010BD84F85C302046FDF7D2FD4B
:103E7000ABE74FF48052B5E7012070472DE9F843D6
:103E80001F46089D90F85C30012B00F064810446C9
:103E900088469146012380F85C30FEF7A7F9064674
:103EA00094F85D30DBB26268012B0AD0B2F5827FF4
:103EB00040F03881A268002A40F03D81042B40F098
:103EC0003C81B8F1000F00F03A81B9F1000F00F029
:103ED0003881002F00F0378194F85D30DBB2042B7D
:103EE00002D0052384F85D3000232366C4F8409097
:103EF000A4F84670A4F84470C4F83880E787A78710
:103F0000E3642365E368B3F5E06F01D8012F23D99B
:103F10002268536823F48053536023681A6812F0B0
:103F2000400F03D11A6842F040021A60E368B3F50B
:103F3000E06F58D963680BB1012F0BD1A26B2368D6
:103F40001288DA60A36B0233A363E38F9BB2013B59
:103F50009BB2E387012731E02268536843F4805322
:103F60005360DAE7A26B1288DA60A36B0233A363B3
:103F7000E38F9BB2013B9BB2E387002723689A68DB
:103F800012F0010F11D0B4F8462092B26AB1DA688B
:103F9000236C1A80236C02332364B4F846309BB23E
:103FA000013B9BB2A4F846300127FEF71FF9831BA3
:103FB000AB4203D3B5F1FF3F40F0C780E38F9BB224
:103FC0002BB9B4F846309BB2002B00F0A1802368D7
:103FD0009A6812F0020FD1D0E28F92B2002ACDD0AF
:103FE000002FCBD0BEE763680BB1012F0FD1E38F59
:103FF0009BB2012B0DD9A26B23681288DA60A36BE8
:104000000233A363E38F9BB2023B9BB2E38701279A
:1040100049E0A26B236812781A73A36B0133A36380
:10402000E38F9BB2013B9BB2E387F0E7E28F92B252
:10403000012A0CD9A26B1288DA60A36B0233A36346
:10404000E38F9BB2023B9BB2E38700273DE0A26B6C
:1040500012781A73A36B0133A363E38F9BB2013B06
:104060009BB2E387002730E02268536843F4805313
:10407000536001270DE0226C1B7B1370236C01330E
:104080002364B4F846309BB2013B9BB2A4F846309F
:104090000127FEF7ABF8801BA84202D3B5F1FF3F22
:1040A00055D1002D55D0E38F9BB223B9B4F84630DB
:1040B0009BB2002B2CD023689A6812F0020F04D018
:1040C000E28F92B20AB1002FB0D123689A6812F041
:1040D000010FDED0B4F8462092B2002AD9D0B4F84D
:1040E000462092B2012AC6D9DA68236C1A80236C62
:1040F00002332364B4F846309BB2023B9BB2A4F86F
:104100004630B4F846309BB2012BADD90127C0E749
:10411000324629462046FFF711FE20B120232366B0
:10412000012000E00220012384F85D30002384F8A0
:104130005C30BDE8F8830220F5E70220F3E70120B8
:10414000F1E70120EFE70120EDE70320EBE7032093
:10415000E9E70320E7E70220EBE710B4036A046A0B
:1041600024F001040462846924F0F00C4CEA021289
:1041700023F00A030B438261036210BC704710B442
:10418000046A24F0100404628469036A24F4704C05
:104190004CEA023223F0A00343EA01138261036276
:1041A00010BC7047836823F070030B4343F0070390
:1041B0008360704790F83D30DBB2012B36D102238B
:1041C00080F83D300268D36843F00103D360036890
:1041D000194A93421CD0B3F1804F19D0A2F5943202
:1041E000934215D002F58062934211D002F58062AD
:1041F00093420DD002F59432934209D002F5406209
:10420000934205D01A6842F001021A6000207047FC
:1042100099680A4A0A40062A0AD0B2F5803F09D0B6
:104220001A6842F001021A600020704701207047AE
:104230000020704700207047002C0140070001005B
:10424000704770477047704710B5044603681A6995
:1042500012F0020F11D0DA6812F0020F0DD06FF0D9
:1042600002021A610123037703689B6913F0030FAD
:1042700079D0FFF7E6FF0023237723681A6912F04D
:10428000040F12D0DA6812F0040F0ED06FF004029F
:104290001A610223237723689B6913F4407F68D057
:1042A0002046FFF7CEFF0023237723681A6912F018
:1042B000080F12D0DA6812F0080F0ED06FF0080263
:1042C0001A61042323772368DB6913F0030F57D0A7
:1042D0002046FFF7B6FF0023237723681A6912F000
:1042E000100F12D0DA6812F0100F0ED06FF010021B
:1042F0001A61082323772368DB6913F4407F46D0D3
:104300002046FFF79EFF0023237723681A6912F0E7
:10431000010F03D0DA6812F0010F3FD123681A6948
:1043200012F0800F03D0DA6812F0800F3DD12368BD
:104330001A6912F4807F03D0DA6812F0800F3BD143
:1043400023681A6912F0400F03D0DA6812F0400FA8
:1043500039D123681A6912F0200F03D0DA6812F0FD
:10436000200F37D110BDFFF76BFF2046FFF76AFF24
:1043700081E72046FFF764FF2046FFF763FF92E7DF
:104380002046FFF75DFF2046FFF75CFFA3E72046CE
:10439000FFF756FF2046FFF755FFB4E76FF0010225
:1043A0001A612046FCF7E8FFB8E76FF080021A6157
:1043B000204600F084F9BAE76FF480721A61204653
:1043C00000F07EF9BCE76FF040021A612046FFF76B
:1043D0003AFFBEE76FF020021A61204600F06EF946
:1043E000C0E700000368304A904212D0B0F1804F1D
:1043F0000FD0A2F5943290420BD002F58062904229
:1044000007D002F58062904203D002F594329042C8
:1044100003D123F070034A681343234A90421ED00D
:10442000B0F1804F1BD0A2F59432904217D002F524
:104430008062904213D002F5806290420FD002F564
:10444000943290420BD002F54062904207D002F5C0
:104450008062904203D002F58062904203D123F43F
:104460004073CA68134323F080034A69134303600F
:104470008B68C3620B6883620B4B98420FD003F5C5
:10448000006398420BD003F54063984207D003F5D0
:104490008063984203D003F58063984201D10B6991
:1044A0000363012343617047002C014060B310B5E2
:1044B000044690F83D3013B3022384F83D30214682
:1044C00051F8040BFFF78EFF012384F8483084F87D
:1044D0003E3084F83F3084F8403084F8413084F82E
:1044E000423084F8433084F8443084F8453084F80E
:1044F000463084F8473084F83D30002010BD80F805
:104500003C30FDF7E3FAD7E70120704710B4846828
:1045100024F47F4C42EA03220A4342EA0C028260FE
:1045200010BC704790F83C30012B76D010B5044693
:10453000012380F83C30022380F83D300268906807
:10454000374B034093600B68602B4CD029D8402B2D
:1045500054D00CD9502B22D1CA6849682068FFF783
:10456000FCFD50212068FFF71DFE002005E0202BF8
:104570000DD009D9302B0AD00120012384F83D3019
:10458000002384F83C3010BD0BB1102B05D1194627
:104590002068FFF707FE0020EFE70120EDE701208C
:1045A000EBE7B3F5805F34D0B3F5005F0CD1CB6897
:1045B0004A6889682068FFF7A9FF2268936843F476
:1045C000804393600020D8E7702B24D1CB684A68E1
:1045D00089682068FFF79AFF2268936843F07703A1
:1045E00093600020C9E7CA6849682068FFF7C7FDE3
:1045F00060212068FFF7D6FD0020BEE7CA68496841
:104600002068FFF7AAFD40212068FFF7CBFD0020BE
:10461000B3E70020B1E70120AFE70220704700BFF9
:104620008800FEFF90F83C30012B42D030B40123CB
:1046300080F83C30022380F83D300268536894686B
:104640001D4DAA4203D005F50065AA4203D123F40B
:1046500070034D682B4323F070030D682B435360A8
:104660000368154A934216D0B3F1804F13D0A2F5D8
:10467000943293420FD002F5806293420BD002F540
:104680008062934207D002F59432934203D002F540
:104690004062934204D124F080048A6814439C60F1
:1046A000012380F83D30002380F83C30184630BCB0
:1046B00070470220704700BF002C014070477047D0
:1046C0007047000010B5044601688368026913430F
:1046D00042691343C269134308688E4A0240134378
:1046E0000B602268536823F44053E1680B43536026
:1046F000A1692268884B9A4201D0236A19439368C2
:1047000023F430630B4393602368844A934210D0B0
:10471000834A934221D0834A934237D0824A9342BC
:104720005CD0824A93426BD07B4A93427DD0102268
:104730003AE002F55842D2F8882002F00302032A38
:1047400009D8DFE802F00204870601222CE00422E7
:104750002AE0082228E0102226E002F5E632D2F80C
:10476000882002F00C020C2A0ED8DFE802F0070DB8
:104770000D0D090D0D0D750D0D0D0B00002213E033
:10478000042211E008220FE010220DE002F5E432CD
:10479000D2F8882002F03002202A5FD01AD8002AEE
:1047A0005ED0102A5ED104225B498B4276D0E0694C
:1047B000B0F5004F00F0A380082A00F20E81DFE878
:1047C00012F0DD00F300DB000C01F6000C010C011F
:1047D0000C01F900302A47D10822E5E702F5E23260
:1047E000D2F8882002F0C002802A3FD004D8FAB361
:1047F000402A3FD10422D7E7C02A3DD10822D3E77F
:1048000002F5E032D2F8882002F44072B2F5007F5F
:1048100034D005D8A2B3B2F5807F33D10422C3E7E8
:10482000B2F5407F30D10822BEE702F5C832D2F897
:10483000882002F44062B2F5006F27D005D83AB361
:10484000B2F5806F26D10422AEE7B2F5406F23D1D6
:104850000822A9E70222A7E70222A5E70222A3E78E
:104860000022A1E710229FE710229DE702229BE78A
:10487000002299E7102297E7102295E7022293E79A
:10488000002291E710228FE710228DE702228BE7AA
:10489000002289E7102287E7102285E7082A00F224
:1048A0008C80DFE802F0088A2A8A278A8A8A050033
:1048B0004FF4004003E0FEF7A9FD00287FD06268B6
:1048C00002EB420383427CD8B0EB023F7BD8010E5F
:1048D00000025308C0184FF0000341F10001FBF73C
:1048E0004BFEA0F54072124B9A426ED82368D860F6
:1048F000002055E0FEF758F9DFE70E48DFE7082A09
:1049000065D8DFE802F019330564366464641D007D
:10491000084815E0F369FFEF0080004000380140CF
:104920000044004000480040004C0040005000405F
:10493000FFFC0F000024F400FEF768FD002848D0BB
:104940006268530803EB4000B0FBF2F0A0F11002E4
:104950004FF6EF739A423ED883B223F00F03C0F3B1
:10496000420018432368D860002019E0FEF760FD7C
:10497000E4E7FEF719F9E1E71B4802E0FEF746FD20
:1049800068B3636800EB5300B0FBF3F0A0F11002D2
:104990004FF6EF739A4224D8236880B2D860002083
:1049A00000236366A36610BDFEF742FDE8E7FEF74D
:1049B000FBF8E5E74FF40040E3E70120F0E70020D3
:1049C000EEE70120ECE70120EAE70120E8E701201B
:1049D000E6E70020E4E70120E2E70120E0E700202D
:1049E000DEE70120DCE700BF0024F400436A13F097
:1049F000010F06D00268536823F40033816A0B4329
:104A00005360436A13F0020F06D00268536823F420
:104A10008033C16A0B435360436A13F0040F06D01E
:104A20000268536823F48023016B0B435360436A8D
:104A300013F0080F06D00268536823F40043416B5B
:104A40000B435360436A13F0100F06D0026893685B
:104A500023F48053816B0B439360436A13F0200F60
:104A600006D00268936823F40053C16B0B43936034
:104A7000436A13F0400F0AD00268536823F480138E
:104A8000016C0B435360036CB3F5801F0BD0436A7A
:104A900013F0800F06D00268536823F40023816C62
:104AA0000B43536070470268536823F4C003416CA2
:104AB0000B435360EBE72DE9F84305460F461646D6
:104AC0009946DDF820802C68E46937EA04030CBFBE
:104AD0004FF0010C4FF0000CB44553D1B8F1FF3F3B
:104AE000F1D0FDF783FBA0EB090040452DD8B8F1CC
:104AF000000F2AD02B681A6812F0040FE3D0DA698D
:104B000012F4006FDFD04FF400621A622A6852E894
:104B1000003F23F4D07342E800310029F6D12A681F
:104B200002F1080353E8003F23F00103083242E892
:104B300000310029F3D12023AB67EB67C5F8803043
:104B4000002385F8743003201DE02A6852E8003FF6
:104B500023F4D07342E800310029F6D12A6802F12B
:104B6000080353E8003F23F00103083242E8003114
:104B70000029F3D12023AB67EB67002385F874305D
:104B8000032000E00020BDE8F8832DE9F04182B069
:104B90001E46836F202B56D104460D4690460029B1
:104BA00055D0002A55D090F87430012B53D00123F2
:104BB00080F874300023C0F8803021238367FDF72C
:104BC00015FB0746A4F85080A4F85280A368B3F5FB
:104BD000805F05D04FF00008002384F8743014E0A3
:104BE000236913B14FF00008F6E7A8460025F3E764
:104BF00038F8023B2268C3F308031385B4F8522047
:104C000092B2013A92B2A4F85220B4F852309BB258
:104C100073B100963B46002280212046FFF74BFFF0
:104C2000D8B9002DE4D0236815F8012B1A85E5E7E3
:104C300000963B46002240212046FFF73CFF70B91A
:104C40002023A36700E0022002B0BDE8F08101202C
:104C5000FAE70120F8E70220F6E70320F4E7032053
:104C6000F2E730B583B004460023C0F88030FDF78A
:104C7000BDFA05462268126812F0080F0DD12368AC
:104C80001B6813F0040F16D12023A367E3670020ED
:104C9000206684F8740003B030BD6FF07E4300934B
:104CA000034600224FF400112046FFF704FF0028BE
:104CB000E5D00320EFE76FF07E4300932B46002200
:104CC0004FF480012046FFF7F6FE0028DCD00320D9
:104CD000E1E768B310B50446836F03B32423A367E9
:104CE0002268136823F0010313602046FFF7EAFCF3
:104CF000012813D0636ABBB92268536823F4904338
:104D000053602268936823F02A0393602268136833
:104D100043F0010313602046FFF7A3FF10BD80F8A6
:104D20007430FCF74FFFD9E72046FFF75FFEE3E75B
:104D30000120704782B000230193019B013301934E
:104D4000019A0F4B9A4215D80369002BF5DA00231C
:104D50000193036943F001030361019B0133019354
:104D6000019A074B9A4208D8036913F0010FF4D156
:104D7000002000E0032002B070470320FBE700BFE3
:104D8000400D030084B010B504460DF10C0C8CE806
:104D90000E00C36843F04003C360FFF7CBFF0C9BDA
:104DA0003BB9A36B43F48033A363BDE8104004B068
:104DB0007047A36B23F48033A363F6E7836823F083
:104DC000010383600020704782B000230193019BA0
:104DD00001330193019A0F4B9A4215D80369002BB6
:104DE000F5DA00230193890141F020010161019B63
:104DF00001330193019A074B9A4208D8036913F0D3
:104E0000200FF4D1002000E0032002B070470320FF
:104E1000FBE700BF400D030082B000230193019B1C
:104E200001330193019A0E4B9A4213D80369002B68
:104E3000F5DA0023019310230361019B01330193F1
:104E4000019A074B9A4208D8036913F0100FF4D166
:104E5000002000E0032002B070470320FBE700BF02
:104E6000400D0300D0F800381943C0F800180020A6
:104E70007047000084B02DE9F041044607A880E89F
:104E80000E00002306E003F1400204EB8202002141
:104E9000516001330E2BF6D9119F8FBBD4F8043823
:104EA00043F00203C4F80438A36B23F40013A36394
:104EB000236843F040032360236843F080032360AA
:104EC0000023C4F8003E04F50065D4F80038C4F8A7
:104ED000003803212046FFF7C5FF10212046FFF7C9
:104EE00073FF804608B14FF001082046FFF794FF9A
:104EF00008B14FF0010800232B616B61EB610FE0FB
:104F0000A36B43F40013A363DAE7C3B94FF0006067
:104F1000C2F8000900220A614FF67F328A6001332D
:104F20000799994210D904EB431202F51061D2F8A7
:104F300000090028E9DB0020C2F80009EAE74FF089
:104F40009040C2F80009E5E700230AE0C3B14FF042
:104F5000904CC2F800CB002202614FF67F32826093
:104F60000133994211D904EB431202F53060D2F8B3
:104F7000006B002EEADB4FF0000CC2F800CBEAE732
:104F80004FF0006CC2F800CBE5E72B6923F4807387
:104F90002B610023A3616FF080436361A36943F039
:104FA0001003A361A2690B4B1343A3610D9B1BB1BB
:104FB000A36943F00803A361012F04D04046BDE874
:104FC000F04104B07047A36943F0804343F0040309
:104FD000A361F3E700383C80D0F8003E23F00303E0
:104FE000C0F8003ED0F8043843F00203C0F804389B
:104FF00000207047406900F00100704738B5054651
:10500000C36823F0C043C360012913D019BBC36830
:1050100043F08043C36000240120FDF7EDF8013424
:105020002846FFF7E7FF08B1312CF5D9322C14D010
:10503000002038BDC36843F00053C3600024012042
:10504000FDF7DAF801342846FFF7D4FF0128EDD048
:10505000312CF4D9EAE70120EBE70120E9E7000071
:10506000014B1868704700BF0C00002070B50D4E52
:105070000D4D761BB61006D0002455F8043B0134C4
:105080009847A642F9D1094E094D761B05F0B0FFAD
:10509000B61006D0002455F8043B01349847A642C8
:1050A000F9D170BDC8B40008C8B40008D0B4000875
:1050B000C8B40008830730B548D0541E002A3FD03A
:1050C000CAB2034601E0013C3AD303F8012B9D0725
:1050D000F9D1032C2DD9CDB245EA05250F2C45EA8F
:1050E000054536D9A4F1100222F00F0C03F1200E71
:1050F000E6444FEA121C03F1100242E9045542E96A
:10510000025510327245F8D10CF1010214F00C0F67
:1051100003EB021204F00F0C13D0ACF1040323F0E4
:1051200003030433134442F8045B9342FBD10CF0B5
:1051300003042CB1CAB21C4403F8012B9C42FBD1DE
:1051400030BD64461346002CF4D1F9E703461446FB
:10515000BFE71A46A446E0E70FB400B5074983B09D
:1051600004AB086853F8042B8168019300F05EF8E3
:1051700003B05DF804EB04B0704700BF0C000020E2
:1051800070B5054688B008460C46FBF779FB224E01
:10519000AA6B059001214318CDE9066104A80221FC
:1051A00004940393AC680190029122B3636E13F0F0
:1051B000010FB4F90C309AB201D1980525D59104AC
:1051C00006D4626E43F4005322F40052A381626657
:1051D000284601AA214603F003F9636E002814BF94
:1051E0004FF0FF350A25DA0702D4A3899B0506D5BF
:1051F000284608B070BD284602F0F4FED6E7A06D40
:1052000003F090FA284608B070BDA06D03F088FA4C
:10521000B4F90C309AB2D2E7C4B00008024B014690
:105220001868FFF7ADBF00BF0C0000202DE9F04F5C
:10523000D5B01C46079191460546099003F068FADF
:105240000268179210460E94FBF71AFB16901DB1D8
:10525000AB6B002B00F02A82079A536EDD0740F1FA
:105260003881B2F90C2091B28F0409D4079B42F423
:1052700000529A8191B21A465B6E23F40053536632
:105280000E0740F1CB80079B1B69002B00F0C68006
:1052900001F01A030A2B00F0CF8000242BAB4D46FF
:1052A000CDE92944CDE91944CDE91B441294289352
:1052B0009846189400230B940024CDE914342B78DD
:1052C000002B00F09D81AA4604E01AF8013F002B54
:1052D00000F0C780252BF8D1BAEB050640F0C58059
:1052E0009AF80030002B00F08B8100234FF0FF3242
:1052F0009AF801608DF883300A930AF1010A089246
:105300001F462B244FF020090AF1010AA6F12003C1
:105310005A2B00F2ED80DFE813F0EB02EB00EB001C
:10532000E602EB00EB00EB006A00EB00EB005C0236
:105330008002EB0067028A02EB0085025B005B00E3
:105340005B005B005B005B005B005B005B00EB00F5
:10535000EB00EB00EB00EB00EB00EB007A01EB0065
:10536000F801D2017A017A017A01EB00EB00EB003F
:10537000EB00E102EB00EB002D02EB00EB00EB0099
:105380000202EB00A402EB00EB008307EB00EB0052
:10539000EB00EB00EB00EB00EB00EB007A01EB0025
:1053A000F801D4017A017A017A01C702D401CD0152
:1053B000EB00D402EB006C022F02B502CD01EB0032
:1053C00002027E008007EB00EB006107EB007E002D
:1053D000A6F1300300221AF8016B02EB820203EB04
:1053E0004202A6F13003092BF5D90A928EE7DDF8C7
:1053F00024B0584603F08CF943681B931846FBF71A
:105400003FFA1C900646584603F082F983681993C8
:10541000002E40F0CD869AF8006075E7079D099848
:10542000294601F0ADFC002841F01C83A98901F058
:105430001A030A2B7FF431AF079AB2F90E30002B12
:10544000FFF62BAF536ED80702D4890541F13B819B
:105450000799099823464A4655B0BDE8F04F01F038
:105460004FBCBAEB050600F0CB802A9B33442A934D
:10547000299B0133072BC8E90056299305DC08F165
:1054800008080B9B33440B932AE70799099828AA2D
:1054900004F086FB80B90DF1AC08F2E70799099892
:1054A00028AA04F07DFB002800F09B800D9B1BB117
:1054B0000998194602F08EFE079A536ED90740F1FB
:1054C000EA8093895B0601F1D9820B9855B0BDE85B
:1054D000F08F079BB3F90C20900591B23FF5C4AE55
:1054E0001D46986D03F01CF9B5F90C2091B2BBE68E
:1054F000002E00F0858000228DF8EC608DF883206E
:105500000123CDE90C32069308920F921392109268
:105510003BAD17F0020302D006990231069117F055
:10552000840B07D10A990698A1EB0009B9F1000F85
:1055300000F370832A9C8AB1299A0DF1830101320C
:105540000134C8F80010072A4FF001012A9429926B
:10555000C8F8041000F3B68308F1080883B1299B4A
:1055600021AA01330234C8F80020072B4FF00202B1
:105570002A942993C8F8042000F3B28308F108089C
:10558000BBF1800F00F06982089B0C9AA3EB020B21
:10559000BBF1000F00F3AA82FB0500F100820C9B17
:1055A000C8F804301C44299BC8F800500133072B6D
:1055B0002A94299300F3228308F10808780705D577
:1055C0000A9B069A9D1A002D00F39683DDE90A23B3
:1055D00006998A42ACBF9B185B180B93002C7FF492
:1055E0005DAF002329930D9B1BB10D99099802F023
:1055F000F1FD0DF1AC0855462B78002B7FF463AE1E
:105600002A9B002B41F0D3810023299354E70E9B62
:10561000073323F00702F2E80234CDE91434DDE960
:10562000143424F000440E92994618462146B54B96
:105630004FF0FF32FBF718FD002840F0EF84B14B2C
:10564000484621464FF0FF32FBF7F0FC002840F0BF
:10565000E584DDE9140100220023FBF7DDFC0028CE
:1056600040F067879DF88320A74DA84B27F080075F
:105670000321472EC8BF1D4600230D9306910C91B0
:1056800008930F9313931093002A3FF442AF069BA5
:10569000013306933DE7079B9B899A053FF512AFBF
:1056A000079CA06D03F03EF8A3890BE7099802F070
:1056B00099FCD1E59AF8006047F0200724E647F00E
:1056C0001007BA060E9B40F13B84073323F0070313
:1056D0001A465B6852F8084B0E929946002BC0F2AE
:1056E0004C84089B013300F0D88254EA090327F068
:1056F000800B40F0D382089B002B40F0D4825F46A1
:10570000002308930C9354AD1DE10E9B002253F827
:10571000041B8DF883208DF8EC100E93F0E60E9CA0
:10572000089B54F8045B4FF000098DF88390002D1E
:1057300000F093855A1C00F051861A4649462846C7
:10574000FBF70EF90D90002801F00E810D9BCDF8AE
:1057500020905B1B0C930E9423EAE3739DF8832047
:105760000693CDF83490CDF83C90CDF84C90CDF820
:10577000409089E747F0100717F0200900F0D28326
:105780000E9B073323F00703D3F8049053F8084B1C
:105790000E9327F4806B002300228DF88320089A53
:1057A000511C00F0B88054EA09012BF0800740F04A
:1057B000B180002A40F0F685002BA1D11BF0010337
:1057C0000C9300F0148430238DF84F310DF24F15F7
:1057D000B9E00E9B53F8042B0A92002A80F2DA8378
:1057E0000A9A0E9352420A929AF8006047F0040710
:1057F0008AE5BD0600F1D184FC0600F1D885780663
:1058000000F1A586B90540F1D2850E9B0B9953F89E
:10581000042B0E9311705546EEE69AF800608DF851
:10582000834071E59AF8006047F080076CE55246C6
:1058300012F8016B2A2E01F03F82A6F13003092BEA
:10584000924698BF002201F2BC801AF8016B02EB6D
:10585000820203EB4202A6F13003092BF5D908922C
:1058600054E547F0100B1BF0200900F076830E9BE7
:10587000073323F00703D3F8049053F8084B0E9333
:10588000012389E70E9B53F8044B0E9330237826AF
:105890008DF884301E4B189347F0020B8DF885600D
:1058A0004FF00009022377E79AF80060682E03BFE3
:1058B0009AF8016047F400770AF1010A47F04007BF
:1058C00022E59AF800606C2E03BF9AF8016047F059
:1058D00020070AF1010A47F0100715E59AF8006061
:1058E00047F0080710E59AF8006047F001070BE55C
:1058F0009DF88330002B7FF48EAD9AF800608DF810
:10590000839001E5FFFFEF7FC8B00008CCB000082E
:10591000D8B00008BB46012B00F0C081022B54AD6B
:1059200020D1189A04F00F032409D35C05F8013D37
:1059300044EA09744FEA191954EA0903F2D154AB45
:105940005B1B5F460C9308990C989DF8832081425D
:105950004FF00003B8BF01460D9306910F931393C8
:10596000109391E604F00703E40844EA49744FEA0F
:10597000D909303354EA09012A4605F8013DF1D12D
:105980001BF0010FDBD0302BD9D03023023A05F8C1
:10599000013C54AB9B1A5F460C931546D3E7652E2A
:1059A00040F3E680DDE9140100220023FBF72AFB27
:1059B000002800F0DC81299BBF4AC8F80020013391
:1059C00001340122072B2A942993C8F8042000F3FC
:1059D000CC8408F10808229B129A934280F2D68266
:1059E000169B179A1C44C8E90023299B2A9401336B
:1059F000072B299300F3248408F10808129B5D1EED
:105A0000002D7FF7DBAD102D299BDFF8B09240F31E
:105A1000BD8449462246B946DDF824B0079C1026CD
:105A20000F4605E008F10808103D102D40F3AA8448
:105A300001331032072BC8E90076CDE92932F1DDB8
:105A400028AA2146584604F0ABF800287FF42EAD72
:105A5000DDE929320DF1AC08E6E70A9B069AA3EBD3
:105A6000020BBBF1000F7FF78FADBBF1100F299A2E
:105A7000DFF848922CDD1D9621464E46079CDDF846
:105A80002490102306E0ABF1100BBBF1100F08F1CE
:105A900008081ADD01321031072AC8E90063CDE990
:105AA0002921F0DD28AA214648460DF1AC0804F072
:105AB00077F800287FF4FAACABF1100BBBF1100FB4
:105AC000DDE929214FF01003E4DCB1461D9E0C46B0
:105AD00001325C44072ACDE92924C8F80090C8F8AF
:105AE00004B000F3A08308F108084DE5BBF1100FE6
:105AF000299ADFF8C8912DDD41462046A8464C463C
:105B0000079DDDF82490102306E0ABF1100BBBF1EC
