:020000040800F2
:1000000000000520ED0C0008C10B0008C30B000820
:10001000C50B0008C70B0008C90B00080000000052
:10002000000000000000000000000000013900088E
:10003000CB0B000800000000A1390008433600087F
:100040003D0D00083D0D00083D0D00083D0D000868
:100050003D0D00083D0D00083D0D00083D0D000858
:100060003D0D00083D0D00083D0D00083D0D000848
:10007000CD0B00083D0D00083D0D00083D0D0008AA
:100080003D0D00083D0D00083D0D00083D0D000828
:100090003D0D00083D0D00083D0D00083D0D000818
:1000A0003D0D00083D0D00083D0D00083D0D000808
:1000B0003D0D00083D0D00083D0D00083D0D0008F8
:1000C0003D0D00083D0D00083D0D00083D0D0008E8
:1000D0003D0D00083D0D00083D0D00083D0D0008D8
:1000E0003D0D00083D0D00083D0D00083D0D0008C8
:1000F0003D0D00083D0D00083D0D00083D0D0008B8
:100100003D0D00083D0D00083D0D00083D0D0008A7
:100110003D0D00083D0D0008DD0B00083D0D0008F9
:100120003D0D00083D0D00083D0D00083D0D000887
:100130003D0D00083D0D00083D0D00083D0D000877
:100140003D0D00083D0D00083D0D00083D0D000867
:100150003D0D00083D0D00083D0D00083D0D000857
:100160003D0D00083D0D00083D0D00083D0D000847
:100170003D0D00083D0D00083D0D00080000000089
:100180003D0D00083D0D00083D0D00083D0D000827
:100190003D0D00083D0D00083D0D00083D0D000817
:0C01A0003D0D00083D0D000800000000AF
:1001B00010B5054C237833B9044B13B10448AFF3A1
:1001C00000800123237010BD78080020000000008B
:1001D000DC5A000808B5034B1BB103490348AFF3D1
:1001E000008008BD000000007C080020DC5A0008E8
:1001F000844641EA000313F003036DD1403A41D332
:1002000051F8043B40F8043B51F8043B40F8043BF0
:1002100051F8043B40F8043B51F8043B40F8043BE0
:1002200051F8043B40F8043B51F8043B40F8043BD0
:1002300051F8043B40F8043B51F8043B40F8043BC0
:1002400051F8043B40F8043B51F8043B40F8043BB0
:1002500051F8043B40F8043B51F8043B40F8043BA0
:1002600051F8043B40F8043B51F8043B40F8043B90
:1002700051F8043B40F8043B51F8043B40F8043B80
:10028000403ABDD2303211D351F8043B40F8043B20
:1002900051F8043B40F8043B51F8043B40F8043B60
:1002A00051F8043B40F8043B103AEDD20C3205D330
:1002B00051F8043B40F8043B043AF9D2043208D028
:1002C000D2071CBF11F8013B00F8013B01D30B889A
:1002D00003806046704700BF082A13D38B078DD078
:1002E00010F003038AD0C3F10403D21ADB071CBF4A
:1002F00011F8013B00F8013B80D331F8023B20F8B4
:10030000023B7BE7043AD9D3013A11F8013B00F8EC
:10031000013BF9D20B7803704B7843708B78837074
:100320006046704700B587B00023009301930293A5
:100330000393049305934A484A4A026043608360EA
:10034000C360012202610821416103764376C161E5
:1003500080F820304FF4B86181624FF48061C1624F
:1003600080F83020436380F8383000F009FD002821
:100370005AD13D4B009306230193022302937F231E
:10038000039304230493002305936946344800F043
:1003900053FE00284BD1354B00930C230193694643
:1003A0002F4800F049FE002844D1314B009312231E
:1003B000019369462A4800F03FFE00283DD12D4BAD
:1003C0000093182301936946254800F035FE002864
:1003D00036D1294B00934FF480730193694620482E
:1003E00000F02AFE78BB254B00934FF483730193F2
:1003F00069461B4800F020FE40BB214B00934FF4A0
:10040000867301936946164800F016FE08BB1D4B23
:1004100000934FF4897301936946114800F00CFE74
:10042000D0B907B05DF804FB00F00CFBA1E700F0C9
:1004300009FBB0E700F006FBB7E700F003FBBEE7FF
:1004400000F000FBC5E700F0FDFACCE700F0FAFA97
:10045000D3E700F0F7FADAE700F0F4FAE1E700BFDB
:10046000BC08002000010450000180210002B025DA
:100470000004002A0008302E001060320020903660
:100480000040C03A0080F03E70B5ACB00446002198
:100490002791289129912A912B918C2204A805F06B
:1004A0007BF822683C4B9A4201D02CB070BD4FF4CF
:1004B000804304934FF080532393012305930693C5
:1004C000082307930223089309930A934FF080733C
:1004D0000B9304A802F082FB002857D12F4BDA6C53
:1004E00042F40052DA64DA6C02F400520092009A8C
:1004F000DA6C42F00102DA64DA6C02F00102019275
:10050000019ADA6C42F00402DA64DA6C02F0040256
:100510000292029ADA6C42F00202DA64DB6C03F0B7
:1005200002030393039BF8232793032628960025B1
:10053000299527A94FF0904001F0C6FB302327935F
:100540002896299527A9164801F0BEFB0123279379
:100550002896299527A9134801F0B6FB1248134B9A
:10056000036045608560C560802303614FF40073BC
:1005700043614FF4006383612023C361056201F08E
:1005800081FA30B9084B23659C628EE700F05AFA75
:10059000A4E700F057FAF5E700010450001002400C
:1005A0000008004800040048240900201C00024004
:1005B00008B5054B00221A60044B186810B10249B7
:1005C00003F0B2FE08BD00BF6C09002094080020B3
:1005D00008B5044802F06AFD08220349034801F007
:1005E0000DF808BD500A002098080020BC08002023
:1005F00008B503220021012003F047FD074B1860D6
:1006000048B104F017FD064B1860FFF7E1FF00202A
:1006100004F0E0FBFBE700BFF3E700BF9408002015
:10062000B808002008B50C480C4B03600423436055
:1006300000238360C3604FF480320261436103761C
:1006400043768376C3760377437701F05FF800B98A
:1006500008BD00F0F7F9FBE77409002000640040D2
:1006600008B50C480C4B03600423436000238360EF
:10067000C3604FF480320261436103764376837630
:10068000C3760377437701F041F800B908BD00F065
:10069000D9F9FBE79C0900200068004070B58AB0DA
:1006A0000023059306930793089309930368374A39
:1006B000934204D0364A93422AD00AB070BD354ADC
:1006C000136801331360012B17D0334BDA6C42F0FF
:1006D0000202DA64DB6C03F002030193019B4FF426
:1006E0004073059302230693032308930923099378
:1006F00005A92A4801F0E8FADFE7274B9A6D42F096
:1007000000729A659B6D03F000730093009BDCE719
:10071000214B9A6D42F080629A659B6D03F0806375
:100720000293029B1B4A136801331360012B22D0F2
:10073000194BDA6C42F00202DA64DB6C03F002035C
:100740000493049B20230593022606960324089411
:100750000994124D05A9284601F0B6FA40230593E5
:1007600006960023079308940823099305A92846B1
:1007700001F0AAFAA1E7084B9A6D42F000729A655F
:100780009B6D03F000730393039BD1E7006400406B
:10079000006800407009002000100240000400487A
:1007A00000B589B000221C21052003F06EFC184B17
:1007B000186068B1174C204601F04EF8642002F032
:1007C000DAFF154B154A1649204601F073F80CE084
:1007D00000BFEFE700BF0EE00F4B079A01A90D48DD
:1007E00001F068F8012002F0C6FF0A4B93F82030B0
:1007F000DBB2052BEED0064B18680028F2D04FF084
:10080000FF3201A903F0E9FD0128EBD1E4E700BFC5
:10081000C409002074090020C8090020000000203D
:100820000800002000B589B000221C21052003F03B
:100830002CFC184B186068B1174C204601F00CF8DE
:10084000642002F098FF154B154A1649204601F026
:1008500031F80CE000BFEFE700BF0EE00F4B079A46
:1008600001A90D4801F026F8012002F084FF0A4B8F
:1008700093F82030DBB2052BEED0064B1868002829
:10088000F2D04FF0FF3201A903F0A7FD0128EBD110
:10089000E4E700BFD80900209C090020DC09002003
:1008A000000000200800002000B583B00A4B9A6CBD
:1008B00042F001029A649B6C03F001030193019BD7
:1008C000002205210C2001F07DF80C2001F0B2F887
:1008D00003B05DF804FB00BF0010024008B56420BF
:1008E00002F049FFFBE7000008B50421034801F0CE
:1008F000E8FA4FF4FA7002F03EFFF6E70010004805
:1009000008B5124A0021124802F0D6FE114B1860B9
:10091000114A0021114802F0CFFE114B1860114A14
:100920000021114802F0C8FE104B1860104A002147
:10093000104802F0C1FE104B1860104A0021104808
:1009400002F0BAFE0F4B186008BD00BF985B0008AC
:10095000DD080008F8090020BC5B0008E908000871
:10096000FC090020505B0008A1070008F0090020E6
:10097000745B000825080008F40900202C5B0008BF
:10098000F1050008EC09002030B58BB00024059477
:100990000694079408940994214BDA6C42F01002F3
:1009A000DA64DA6C02F010020192019ADA6C42F019
:1009B0000102DA64DA6C02F001020292029ADA6C45
:1009C00042F00402DA64DA6C02F004020392039A41
:1009D000DA6C42F00202DA64DB6C03F00203049387
:1009E000049B104D22460421284601F065FA042399
:1009F0000593012306930794089405A9284601F05E
:100A000063F94FF400730593022306930794089447
:100A1000099305A9044801F057F90BB030BD00BF98
:100A200000100240001000480008004808B50268A5
:100A3000034B9A4200D008BD00F090F9FBE700BFDD
:100A40000010004072B6FEE700B597B044220021C6
:100A500005A804F0A1FD00230093019302930393E2
:100A600004934FF4007001F03DFAD0B910230593C0
:100A700001230B9300230C9380220D920F9305A862
:100A800001F01AFB78B90F23009300210191029124
:100A900003910491684601F04DFE30B917B05DF83E
:100AA00004FBFFF7CFFFFFF7CDFFFFF7CBFF08B544
:100AB00000F045F9FFF7C8FFFFF766FFFFF7F4FE08
:100AC000FFF7B0FDFFF7CCFDFFF72CFC00F0BCF802
:100AD00002F0C4FDFFF714FF02F0D2FDFEE70000B4
:100AE00000B583B00D4B1A6E42F001021A661A6E01
:100AF00002F001020092009A9A6D42F080529A65CB
:100B00009B6D03F080530193019B00220F216FF036
:100B1000010000F057FF03B05DF804FB0010024035
:100B200030B589B00446214B9A6D42F010029A65A7
:100B30009B6D03F010030193019B02A903A801F030
:100B4000D5FE069BCBB901F0BFFE03461848A0FBBB
:100B500003239B0C013B1748174A026040F2E7321F
:100B6000C2604360002303618360836102F05CFC28
:100B7000054630B1284609B030BD01F0A5FE43005E
:100B8000E4E70C4802F0D4FA05460028F2D13620FA
:100B900000F050FF0F2C01D90125EBE70022214680
:100BA000362000F00FFF054B1C60E3E70010024009
:100BB00083DE1B43000A00200010004028000020B4
:100BC000FEE7FEE7FEE7FEE7FEE7704708B50248EE
:100BD00001F017F808BD00BF2409002008B502483D
:100BE00002F0F0FA08BD00BF000A002010B503466D
:100BF0000C4A0D490D48006840B10C480068034498
:100C0000521A934206D8094A136010BD0748084C8F
:100C10000460F2E704F096FC0C2303604FF0FF3011
:100C2000F3E700BF00000520000400004C0A00208C
:100C300098830020034AD2F8883043F47003C2F846
:100C40008830704700ED00E000B589B000230493C0
:100C50000593069307930193029303931648174A4B
:100C6000026040F23F62426083603122C2600361F1
:100C70004361836102F0D8FBA0B94FF48053049321
:100C800004A90D4802F00EFC78B92023019300233B
:100C90000293039301A9084802F084FC40B909B00B
:100CA0005DF804FBFFF7CEFEE7E7FFF7CBFEECE7CE
:100CB000FFF7C8FEF3E700BF500A002000340140F0
:100CC0000268094B9A4200D0704782B003F55C433A
:100CD0001A6E42F400521A661B6E03F4005301931D
:100CE000019B02B0704700BF00340140DFF834D0F0
:100CF000FFF7A0FF0C480D490D4A002302E0D4582D
:100D0000C4500433C4188C42F9D30A4A0A4C002355
:100D100001E013600432A242FBD304F019FCFFF798
:100D2000C6FEFEE700000520000000207408002039
:100D3000505C00087808002094830020FEE710B57E
:100D4000032000F02DFE0F20FFF7EAFE10B1012472
:100D5000204610BD0446FFF7C3FEF9E7034B1B789E
:100D6000034A11680B441360704700BF2400002041
:100D70009C0A0020014B1868704700BF9C0A0020A5
:100D800030B583B000230193002800F0ED800446C5
:100D9000836D13B323689A6812F0005F05D09A68D8
:100DA00022F0204222F03F029A602268936813F0FA
:100DB000805F1FD1936823F0104323F03F0343F07B
:100DC00080539360694B1B689B09694AA2FB03230C
:100DD0009B0901335B00019309E0FFF755FB0023FA
:100DE000E36584F85430D5E7019B013B0193019BF7
:100DF000002BF9D12268936813F0805F40F08B805C
:100E0000A36D43F01003A365E36D43F00103E365B5
:100E10000120936813F0040300D00123A16D11F0A9
:100E2000100F40F09A80002B40F09780A36D23F4C0
:100E3000817343F00203A365936813F0010F1BD184
:100E40004C4B9A6812F0010200D001224A4B9B6879
:100E500013F0010300D001231343484A926812F0B3
:100E6000010200D00122134306D1636844498A6815
:100E700022F47C1213438B60627E636B43EA42333D
:100E8000E2681343A268134394F8202043EA024324
:100E9000012A42D0A26A22B102F47072E16A0A43C6
:100EA00013432168CD68374A2A401343CB60216839
:100EB0008B6813F0040300D001238A6812F0080243
:100EC00000D00122C3B9BAB9E36C227E43EA82336F
:100ED00094F8302043EA4202CB6823F4804323F0A5
:100EE00006031343CB6094F83830012B1AD02268E4
:100EF000136923F0010313612369012B24D02268B5
:100F0000136B23F00F031363A36D23F0030343F06C
:100F10000103A36526E000207BE7626A013A43EA09
:100F20004243B7E721680B6923F4FF6323F004030E
:100F3000E26B256C2A43656C2A43A56C2A43134354
:100F400043F001030B61D7E721680B6B23F00F031C
:100F5000E269013A13430B63D6E7A36D43F0100334
:100F6000A365012003B030BD0120FBE72000002075
:100F7000632D3E050000045000010450000204509F
:100F80000003045007C0F0FF704708B5806AFFF700
:100F9000FBFF08BD704708B50346806A826D12F0FA
:100FA000500F30D1836D43F40073836503681A6872
:100FB00012F0080F14D0DA6812F4406F20D1DB6809
:100FC00013F4005F1CD1836D23F480738365836DFC
:100FD00013F4805F14D1836D43F0010383650FE048
:100FE000DB6813F0020F0BD1836D23F480738365EC
:100FF000836D13F4805F03D1836D43F00103836538
:10100000FFF7D6FA08BD826D12F0100F04D1026D01
:10101000526B18469047F5E7FFF7BCFFF2E708B5BB
:10102000806A836D43F040038365C36D43F004031E
:10103000C365FFF7AFFF08BDF0B583B00022019292
:1010400090F85420012A00F061820346012280F8C2
:1010500054200268926812F0040F09D0826D42F0A9
:10106000200282650120002283F8542003B0F0BDE5
:101070004A68052A09D8023A032A00F29E80DFE86E
:1010800002F0029295980C224A601D684C68303537
:10109000220A920002F00C02A85804F01F0E1F242E
:1010A00004FA0EF420EA04000C68C4F3846C0CFA11
:1010B0000EFC40EA0C00A8501C68A26812F0040262
:1010C00000D00122A06810F0080000D00120002A02
:1010D00035D1002833D18868B0F1004F70D00E6848
:1010E0001434720E920002F00402A558C6F3045C98
:1010F000072606FA0CF625EA060500FA0CF0284346
:10110000A0501868426922F0004242614C69186898
:10111000C268C2F3C102520004FA02F20D69042D42
:1011200063D00E68603050F82570AD4C3C4006F03E
:10113000F8463243144344F0004440F82540186810
:10114000826812F0010F17D10A68CD68D0F8B0405C
:10115000C2F3120C24EA0C0405F0180CA14D25FA78
:101160000CF52A40C2F312022243C0F8B020C8682E
:101170009D4A904200F0A1800A689C490A4200F012
:10118000C1819B49896801F0E0749A48824200F06D
:1011900063819948824200F08A819848824200F037
:1011A0009E8100205FE712224A606EE718224A60A3
:1011B0006BE74FF480724A6067E706224A6064E793
:1011C00008681434420E920002F00402A558C0F3DD
:1011D0000450072606FA00F025EA0000A05018681F
:1011E000426942F00042426190E7026E046EC4F32D
:1011F00084640A68C2F3120585BBC2F38462944218
:1012000034D01C68626E606EC0F384600A68C2F3FA
:10121000120585BBC2F38462904234D01C68A26E72
:10122000A06EC0F384600A68C2F3120585BBC2F3E6
:101230008462904234D01C68E26EE06EC0F3846039
:101240000A68C2F3120585BBC2F3846290427FF440
:1012500076AFE26E22F00042E26670E792FAA2F206
:1012600012B1B2FA82F2CAE72022C8E7026E22F077
:1012700000420266C5E792FAA2F212B1B2FA82F215
:10128000CAE72022C8E7626E22F000426266C5E724
:1012900092FAA2F212B1B2FA82F2CAE72022C8E7A9
:1012A000A26E22F00042A266C5E792FAA2F212B143
:1012B000B2FA82F2CAE72022C8E71C680A68C2F3C1
:1012C0001205002D38D1900E013000F01F000928C2
:1012D0008CBF00200120002866D0002D3BD1900E4D
:1012E0000130800600F0F840002D40D1960E013606
:1012F00006F01F070126BE403043002D46D1920E56
:10130000013202F01F0202EB42021205024388681A
:1013100004F11406550EAD0005F004057459C2F32E
:1013200004524FF0070C0CFA02FC24EA0C0C90401B
:101330004CEA000070511FE792FAA2F048B1B0FAEF
:1013400080F0013000F01F0009288CBF0020012030
:10135000C1E72020F5E792FAA2F030B1B0FA80F0B0
:101360000130800600F0F840BEE72020F8E792FA4E
:10137000A2F64EB1B6FA86F6013606F01F064FF019
:10138000010C0CFA06F6B7E72026F5E792FAA2F26E
:1013900042B1B2FA82F2013202F01F0202EB4202C3
:1013A0001205B3E72022F6E755BB900E0130800608
:1013B00000F0F84085BB960E013606F01F070126A7
:1013C000BE403043BDBB920E013202F01F0202EB61
:1013D00042021E3A120542F00072024397E700BF34
:1013E00000F0FF03FFFF070000007F4000000880BF
:1013F00000030450000052C7000084CB01000080AD
:1014000092FAA2F030B1B0FA80F00130800600F01C
:10141000F840CFE72020F8E792FAA2F64EB1B6FAEC
:1014200086F6013606F01F064FF0010C0CFA06F6A0
:10143000C7E72026F5E792FAA2F25AB1B2FA82F291
:10144000013202F01F0202EB42021E3A120542F084
:101450000072C2E72022F3E711F4000F7FF499AE87
:101460001A682B498A4205D001F500718A4201D0E1
:101470000020F8E544F4000426498A6822F0E0726E
:1014800014438C60244A126892092449A1FB021279
:101490009209013202EB42029200019202E0019AAB
:1014A000013A0192019A002AF9D10020DBE511F0FE
:1014B000807F7FF472AE1A6815498A4205D001F523
:1014C00000718A4201D00020CDE544F080721148BD
:1014D000816821F0E0710A4382600020C3E511F4C5
:1014E000800F11D119680A4A914201D00020BAE553
:1014F00044F480020748816821F0E0710A43826069
:101500000020B0E50020AEE50020ACE50220ADE50E
:10151000000004500003045020000020632D3E050D
:1015200030B583B00023019303689A6812F0010F6D
:1015300058D1044699682D4A114219D19A6822F06F
:10154000004222F03F0242F001029A60284B9B6861
:1015500013F4000F1CD0274B1B689B09264AA2FBE3
:1015600003239B09013303EB43039B0001930CE02E
:10157000836D43F010038365C36D43F00103C365BE
:10158000012030E0019B013B0193019B002BF9D12D
:10159000FFF7F0FB054623681A6812F0010F1FD110
:1015A0009A6812F0010F07D19A6822F0004222F0E7
:1015B0003F0242F001029A60FFF7DCFB431B022B63
:1015C000E9D923681B6813F0010FE4D1A36D43F040
:1015D0001003A365E36D43F00103E365012002E01E
:1015E000002000E0002003B030BD00BF3F000080BD
:1015F0000003045020000020632D3E052DE9F0413A
:1016000004463C4B9E680068856815F0040F6CD159
:101610000F46904606F01F0694F85430012B67D011
:10162000012384F85430344B984209D046B1052E3A
:1016300006D0092E04D0002384F85430012055E050
:101640002046FFF76DFF00284BD1A36D23F4706394
:1016500023F0010343F48073A3652368274A934270
:1016600039D01A46934200D01EB9A36D23F48013DB
:10167000A365A36D13F4805F30D0E36D23F0060300
:10168000E365236D1E4ADA62236D1E4A1A63236DD9
:101690001D4A5A6323681C221A60002384F85430C0
:1016A0002268536843F0100353602268D36843F004
:1016B0000103D360216843463A464031206D00F073
:1016C00065FA2268936823F0004323F03F0343F058
:1016D000040393600AE0A2F58072C3E70023E36588
:1016E000CFE7002384F8543000E00220BDE8F08109
:1016F0000220FBE7000304500002045000010450E4
:10170000970F00088B0F00081F100008002800F03A
:10171000A18038B5044690F82030D3B12268136810
:1017200043F001031360FFF725FB054623685A6861
:1017300012F0010F10D1FFF71DFB401B0A28F5D94D
:10174000636A43F400336362052384F82030012088
:1017500038BDFEF7A3FFE1E71A6822F002021A6023
:10176000FFF708FB054623685A6812F0020F0DD0F8
:10177000FFF700FB401B0A28F5D9636A43F40033E6
:101780006362052384F820300120E1E7227E012AEC
:101790003DD01A6822F080021A60637E012B3BD094
:1017A0002268136823F040031360A37E012B39D015
:1017B0002268136823F020031360E37E012B37D0E7
:1017C0002268136843F010031360237F012B35D088
:1017D0002268136823F008031360637F012B33D062
:1017E0002268136823F004031360A368E2681343BC
:1017F00022691343626913436268013A2168134303
:10180000CB6100206062012384F82030A0E71A68D1
:1018100042F080021A60C0E72268136843F0400378
:101820001360C2E72268136843F020031360C4E723
:101830002268136823F010031360C6E72268136858
:1018400043F008031360C8E72268136843F00403F9
:101850001360CAE70120704770B5044690F8205025
:10186000EDB2012D06D0436A43F400234362012503
:10187000284670BD022380F820300268136823F0E8
:1018800001031360FFF776FA064623685B6813F0DE
:10189000010F0CD0FFF76EFA831B0A2BF5D9636A90
:1018A00043F400336362052384F82030E0E7002529
:1018B0006562DDE730B590F820C00468A4680CF1DB
:1018C000FF3C5FFA8CFCBCF1010F62D814F0E05FC2
:1018D00059D0C4F3016C012404FA0CF41C608B6829
:1018E000002B3DD10D68CB68046843EA45550CF1E7
:1018F00018031B01E55003680C690CF1180E03EB8B
:101900000E135C600B7D012B35D0D17993791B04CC
:1019100043EA0163517943EA0123147901682343BF
:1019200001EB0C11C1F88C31D17893781B0443EA98
:101930000163517843EA0123117802680B4302EBFB
:101940000C12C2F8883102680CF1180C4FEA0C1C1A
:1019500052F80C3043F0010342F80C3000201DE037
:101960004C6843EAC403CC6823430CF118042401F7
:1019700005682B51BFE7036803EB0E13596841F468
:1019800080715960C1E7436A43F400134362012048
:1019900004E0436A43F480234362012030BD000029
:1019A000074AD36823F4E0631B041B0C000200F415
:1019B000E060034343F0BF6343F40033D3607047F8
:1019C00000ED00E000B5194BDB68C3F30223C3F15F
:1019D000070CBCF1040F28BF4FF0040C03F1040EF8
:1019E000BEF1060F18D9033B4FF0FF3E0EFA0CFC78
:1019F00021EA0C0199400EFA03F322EA030319438A
:101A000000280BDB0901C9B200F1604000F561401C
:101A100080F800135DF804FB0023E5E700F00F00F9
:101A20000901C9B2024B1954F4E700BF00ED00E010
:101A300014ED00E0002807DB00F01F02400901233D
:101A40009340024A42F82030704700BF00E100E0B6
:101A500030B4446C04F01C0C012404FA0CF4056C42
:101A60006C60046863608368102B05D0036899601C
:101A70000368DA6030BC704703689A600368D96015
:101A8000F8E70000002873D010B403460068394A14
:101A900090424AD8384A02443849A1FB021212093E
:101AA00092005A64364A1A64022283F8252001689B
:101AB00021F4FF4121F070019A68DC6822431C691F
:101AC00022435C6922439C692243DC6922431C6AED
:101AD00022430A4302609A68B2F5804F1BD0196C0A
:101AE000274A91422CD0264AD2F8A814586C00F00C
:101AF0001C0C0F2000FA0CF021EA0001C2F8A81417
:101B0000D2F8A81458685C6C04F01C0C00FA0CF0B5
:101B10000143C2F8A8140020D863012283F82520CD
:101B200083F824005DF8044B7047164A02441349B9
:101B3000A1FB0212120992005A64134A1A64B3E715
:101B4000D2F8A810586C00F01C0C0F2000FA0CF012
:101B500021EA0001C2F8A810D2F8A81058685C6CFD
:101B600004F01C0C00FA0CF00143C2F8A810D2E7F4
:101B70000120704707040240F8FFFDBFCDCCCCCC5C
:101B800000000240F8FBFDBF0004024038B50446E7
:101B900090F82400012832D0012084F8240094F821
:101BA0002500C0B2012804D0002384F8243002208C
:101BB00038BD022084F825000020E06325682868ED
:101BC00020F0010028602046FFF742FF236B5BB145
:101BD0002268136843F00E0313602268136843F011
:101BE000010313600020E3E72268136823F0040375
:101BF00013602268136843F00A031360EDE70220C4
:101C0000D6E738B5036C196804682568436C03F09F
:101C10001C0304229A400A4215D015F0040F12D07A
:101C2000236813F0200F03D1236823F004032360FB
:101C3000436C03F01C02016C042393404B60036B64
:101C400003B1984738BD02229A400A421CD015F0D1
:101C5000020F19D0236813F0200F06D1236823F058
:101C60000A032360012380F82530436C03F01C0233
:101C7000016C022393404B60002380F82430C36A38
:101C8000002BDFD09847DDE7082202FA03F30B426E
:101C9000D8D015F0080FD5D0236823F00E032360A9
:101CA000436C03F01C03016C012202FA03F34B6046
:101CB000C26380F82520002380F82430436B002B7A
:101CC000C0D09847BEE70000F0B583B0002362E0C3
:101CD00085685E000324B44025EA0405CC68B4405E
:101CE0002C438460446824EA0C0C4C68C4F3001450
:101CF0009C4044EA0C0444605FE0DD08083550F87D
:101D0000256003F007044FEA840C0F2404FA0CF456
:101D100026EA040E0C6904FA0CF444EA0E0440F8B6
:101D2000254061E0072400E0002404FA0EF42C436F
:101D30000CF1020C5C4D45F82C405C4CA568D4437A
:101D400025EA02064F6817F4801F01D042EA050613
:101D5000564DAE60ED6804EA05064F6817F4001FA3
:101D600001D042EA0506514DEE606D6804EA0506B1
:101D70004F6817F4003F01D042EA05064B4D6E60F4
:101D80002D682C404E6816F4803F01D042EA0504CD
:101D9000464A146001330A6832FA03F400F0818085
:101DA0004FF0010C0CFA03FC1CEA0202F2D04C6862
:101DB00004F00304013C012C8AD94C6804F00304AC
:101DC000032C0CD0C4685D004FF0030C0CFA05FC2A
:101DD00024EA0C0C8C68AC4044EA0C04C4604C68E7
:101DE00004F00304022C88D004684FEA430E4FF03D
:101DF000030C0CFA0EFC24EA0C0C4C6804F00304EF
:101E000004FA0EF444EA0C0404604C6814F4403FF5
:101E1000C0D0274C256E45F001052566246E04F0E0
:101E200001040194019C4FEA930C0CF102051E4C35
:101E300054F8255003F003044FEA840E0F2404FAEB
:101E40000EF425EA0405B0F1904F3FF46DAF194C44
:101E5000A0421AD004F58064A04218D004F5806432
:101E6000A04216D004F58064A04214D004F580642A
:101E7000A04212D004F58064A04210D004F5806422
:101E8000A0423FF44FAF08244FE701244DE702245E
:101E90004BE7032449E7042447E7052445E70624E4
:101EA00043E703B0F0BD00BF000001400004014063
:101EB00000100240000400480AB18161704781624D
:101EC0007047436901EA030221EA030141EA024142
:101ED00081617047024B186800F4C060704700BF12
:101EE00000700040B0F5007F0FD01F4B1B6803F45B
:101EF000C063B3F5806F34D01B4A136823F4C0630A
:101F000043F48063136000207047174B1B6803F491
:101F1000C063B3F5007F20D0134A136823F4C06375
:101F200043F400731360114B1B68322202FB03F36E
:101F30000F4AA2FB03239B0C013300E0013B0A4A3A
:101F4000526912F4806F01D0002BF7D1064B5B6908
:101F500013F4806F03D100207047002070470320E6
:101F600070470020704700BF007000402000002034
:101F700083DE1B4330B583B00446204B9B6D13F0CA
:101F8000805F0BD0FFF7A6FFB0F5007F17D0802C45
:101F90001FD82DD0702C2DD000211BE0174DAB6D1C
:101FA00043F08053AB65AB6D03F080530193019B0D
:101FB000FFF790FFAB6D23F08053AB65E4E7802C17
:101FC00003D9A02C03D9022104E0002102E0012161
:101FD00000E003210A4A136823F007030B43136050
:101FE000136803F007038B4206D1002003B030BD15
:101FF0000221EFE70121EDE70120F7E700100240A1
:1020000000200240284A9368D26802F0030213F0CD
:102010000C030AD00C2B06D0042B1FD0082B20D089
:102020000020024610E0012AF6D11F4A126812F081
:10203000080F0CD11C4AD2F89420C2F303221B498A
:1020400051F8222043B100200C2B0DD07047164AC6
:102050001268C2F30312F2E71046F5E714480022B3
:10206000F2E714480022EFE70F4BDB6803F00303AD
:10207000022B16D0032B00D10E4A0B49C868C0F3BF
:102080000210431CC868C0F3062002FB00F0B0FB3E
:10209000F3F0CB68C3F3416301335B00B0FBF3F0B3
:1020A000D4E7034AE9E700BF00100240F85B0008EC
:1020B0000024F40000127A00002800F02283F0B51A
:1020C00083B00446964B9D6805F00C05DE6806F06B
:1020D0000306036813F0100F5AD0E5B10C2D18D089
:1020E000A369002B00F0BB808D4A136843F0010305
:1020F0001360FEF73FFE0746894B1B6813F0020F83
:1021000040F09A80FEF736FEC01B0228F4D9032067
:1021100002E3012EE4D1824B1B6813F0020F03D0BF
:10212000A369002B00F0EF82206A7D4B1B6813F03F
:10213000080F5BD07A4B1B6803F0F00398425CD821
:10214000774B1A6842F008021A601A6822F0F0020F
:10215000216A0A431A605A6822F47F42E16942EA1E
:1021600001225A60002D60D0FFF74CFF6C4B9B683A
:10217000C3F303136B4AD35C03F01F03D8406A4BCD
:1021800018606A4B1868FEF7CBFC002840F0C48248
:10219000236813F0010F00F08180082D75D00C2DFD
:1021A00071D06368B3F5803F00F09780B3F5A02F3E
:1021B00000F099805A4B1A6822F480321A601A682B
:1021C00022F480221A606368002B00F09980FEF7E9
:1021D000D1FD0746524B1B6813F4003F5ED1FEF75A
:1021E000C9FDC01B6428F5D9032095E24C4BD3F8F8
:1021F00094301B0903F0F003A0E7FFF7BBFE0028B3
:1022000040F08382464B1A6842F008021A601A684E
:1022100022F0F002216A0A431A605A6822F47F42CF
:10222000E16942EA01225A609EE7206AFFF7A2FEB6
:10223000002899D001206FE2394B1A6842F0080259
:102240001A601A6822F0F002216A0A431A605A687A
:1022500022F47F42E16942EA01225A6098E7304A5B
:10226000136823F001031360FEF784FD07462C4B2F
:102270001B6813F0020F8BD0FEF77CFDC01B0228F9
:10228000F5D9032048E2032E8BD1254B1B6813F4AC
:10229000003F03D06368002B00F03982236813F0FD
:1022A000020F58D0042D45D00C2D41D0E368002BEF
:1022B00077D01B4A136843F480731360FEF75AFD0E
:1022C0000646174B1B6813F4806F61D1FEF752FD71
:1022D000801B0228F5D903201EE2114A136843F43B
:1022E000803313606FE703F18043A3F53C331A6832
:1022F00042F480221A601A6842F480321A6062E75F
:10230000FEF738FD0746064B1B6813F4003FC5D0A7
:10231000FEF730FDC01B6428F5D90320FCE100BFA7
:1023200000100240E05B0008200000202800002090
:10233000022EBBD1A74B1B6813F4806F03D0E36858
:10234000002B00F0E681A34A536823F0FE43216985
:1023500043EA01635360236813F0080F4CD06369AC
:102360009BB39C4AD2F8943043F00103C2F89430F6
:10237000FEF700FD0646974BD3F8943013F0020F9A
:102380003AD1FEF7F7FC801B0228F4D90320C3E101
:10239000904A536823F0FE43216943EA0163536086
:1023A000D9E78C4A136823F480731360FEF7E2FCCC
:1023B0000646884B1B6813F4806FCCD0FEF7DAFC1E
:1023C000801B0228F5D90320A6E1824AD2F8943076
:1023D00023F00103C2F89430FEF7CCFC06467D4B97
:1023E000D3F8943013F0020F06D0FEF7C3FC801B25
:1023F0000228F4D903208FE1236813F0040F7AD068
:10240000744B9B6D13F0805F36D1724B9A6D42F026
:1024100080529A659B6D03F080530193019B0126C6
:102420006D4B1B6813F4807F28D0A368012B39D033
:10243000052B3FD0674BD3F8902022F00102C3F860
:102440009020D3F8902022F00402C3F89020A368D3
:10245000002B3DD0FEF78EFC07465E4BD3F8903044
:1024600013F0020F46D1FEF785FCC01B41F2883302
:102470009842F2D903204FE10026D1E7564A13686B
:1024800043F480731360FEF775FC0746524B1B68DC
:1024900013F4807FC9D1FEF76DFCC01B0228F5D96B
:1024A000032039E14B4AD2F8903043F00103C2F8DF
:1024B0009030CCE7474BD3F8902042F00402C3F8A9
:1024C0009020D3F8902042F00102C3F89020BEE79C
:1024D000FEF750FC07463F4BD3F8903013F0020F45
:1024E00008D0FEF747FCC01B41F288339842F2D96E
:1024F000032011E1E6B9236813F0200F35D0636A99
:10250000E3B1344AD2F8983043F00103C2F898306E
:10251000FEF730FC06462F4BD3F8983013F0020F2D
:1025200023D1FEF727FC801B0228F4D90320F3E017
:10253000284A936D23F080539365DCE7254AD2F84F
:10254000983023F00103C2F89830FEF713FC0646DA
:10255000204BD3F8983013F0020F06D0FEF70AFC98
:10256000801B0228F4D90320D6E0A36A002B00F0D8
:10257000D280022B17D00C2D00F0D480154A13689E
:1025800023F080731360FEF7F5FB0446114B1B68C4
:1025900013F0007F00F0AE80FEF7ECFB001B02287A
:1025A000F4D90320B8E00B4BDB6803F00301E26AC7
:1025B000914213D00C2D00F0B180064B1B6813F034
:1025C000806F40F0AD80034B1B6813F0805F2FD00D
:1025D0000120A1E0001002400070004003F07002F2
:1025E000216B0139B2EB011FE4D103F4FE42616BB0
:1025F000B2EB012FDED103F07842A16BB2EBC16FD9
:10260000D8D103F4C001E26B5208013AB1EB425F4A
:10261000D0D103F0C063226C5208013AB3EB426F91
:10262000C8D1414B1B6813F0007F49D0002073E0F4
:102630003D4A136823F080731360FEF79BFB054649
:10264000394B1B6813F0007F06D0FEF793FB401B4D
:102650000228F5D903205FE0334AD3683349194093
:10266000E36A206B013843EA0013606B43EA0023FE
:10267000E06B4008013843EA4053206C40080138C1
:1026800043EA4063A06B43EAC0630B43D360136823
:1026900043F080731360D36843F08073D360FEF718
:1026A00069FB0446204B1B6813F0007F06D1FEF740
:1026B00061FB001B0228F5D903202DE000202BE050
:1026C000194B1A6842F080721A60DA6842F0807220
:1026D000DA60FEF74FFB0446134B1B6813F0007FD4
:1026E00006D1FEF747FB031B022BF5D9032013E0AD
:1026F000002011E00C4AD1680D4B0B40D360002044
:102700000AE001207047012006E0012004E00120DA
:1027100002E0012000E0002003B0F0BD0120FBE753
:102720000120F9E70120F7E7001002408C809D01AD
:10273000FCFFEEFE002800F0AF8070B50D460446A9
:10274000594B1B6803F007038B420BD2564A1368A0
:1027500023F007030B431360136803F007038B4256
:1027600040F09C80236813F0020F0CD0A2684F4BFE
:102770009B6803F0F0039A4205D94C498B6823F01B
:10278000F0031A438A60236813F0010F39D063689D
:10279000032B09D0022B26D063BB444A126812F0E7
:1027A000020F06D1012076E0404A126812F0007F45
:1027B00076D03E498A6822F0030213438B60FEF70D
:1027C000D9FA0646394B9B6803F00C036268B3EBF9
:1027D000820F16D0FEF7CEFA801B41F28833984262
:1027E000F0D9032057E0314A126812F4003FE0D1DB
:1027F000012050E02D4A126812F4806FD9D10120D7
:1028000049E0236813F0020F0CD0A268274B9B68A5
:1028100003F0F0039A4205D224498B6823F0F003B9
:102820001A438A60204B1B6803F00703AB420AD9A6
:102830001D4A136823F007032B431360136803F04A
:102840000703AB422ED1236813F0040F06D0174ABA
:10285000936823F4E063E1680B439360236813F00B
:10286000080F07D0114A936823F46053216943EAA3
:10287000C1039360FFF7C6FB0C4B9B68C3F30313C4
:102880000B4AD35C03F01F03D8400A4B18600A4B75
:102890001868FEF745F970BD012070470120FAE77E
:1028A0000120F8E70120F6E7002002400010024076
:1028B000E05B00082000002028000020014B186881
:1028C000704700BF2000002008B5FFF7F7FF054B59
:1028D0009B68C3F30223044AD35C03F01F03D84070
:1028E00008BD00BF00100240F05B00080F2303602A
:1028F0000B4B9A6802F0030242609A6802F0F00201
:1029000082609A6802F4E062C2609B68DB0803F4AC
:10291000E0630361034B1B6803F007030B60704720
:102920000010024000200240F8B504460F46584B04
:10293000DB6813F0030F18D0554BDB6803F003037B
:102940000268934202D001252846F8BD002A00F013
:102950009D804F4BDB68C3F30213013342689342FF
:1029600001D00125F0E7002509E00368022B56D0CD
:10297000032B5BD0012B41D00125002DE4D1444A2B
:10298000136823F080631360FEF7F4F90646404BAA
:102990001B6813F0006F05D0FEF7ECF9831B022BC8
:1029A000F5D90325002DCFD1002F4DD138490B6922
:1029B00023F0784323F4FE43A068E268D20642EA9B
:1029C000002213430B61324A136843F080631360A3
:1029D000FEF7D0F906462E4B1B6813F0006F05D1A9
:1029E000FEF7C8F9831B022BF5D90325002DABD1C7
:1029F000274A1369A1690B431361A5E7244A1268AA
:102A000012F0020F1ED02248C26822F073026168E1
:102A1000013943EA01131343C3600025ADE71C4AA3
:102A2000126812F4806FEED10125A6E7184A1268E9
:102A300012F4003FE7D1164A126812F4802FE2D157
:102A400001259AE7012598E7012F0FD01048026968
:102A500022F0C06222F4FE42A16863695B08013B78
:102A60005B0643EA012313430361ACE708480269AC
:102A700022F4C00222F4FE42A16823695B08013BF4
:102A80005B0543EA0123134303619CE701255BE7F0
:102A900000100240F8B504460F464F4BDB6813F0B8
:102AA000030F18D04C4BDB6803F00303026893421A
:102AB00002D001252846F8BD002A00F08B80464B45
:102AC000DB68C3F3021301334268934201D001254E
:102AD000F0E7002509E00368022B56D0032B5BD0FA
:102AE000012B41D00125002DE4D13B4A136823F08E
:102AF00080531360FEF73EF90646374B1B6813F010
:102B0000005F05D0FEF736F9831B022BF5D90325AC
:102B1000002DCFD1002F4DD12F494B6923F07843A1
:102B200023F4FE43A068E268D20642EA002213437F
:102B30004B61294A136843F080531360FEF71AF97A
:102B40000646254B1B6813F0005F05D1FEF712F90E
:102B5000831B022BF5D90325002DABD11E4A5369E7
:102B600061690B435361A5E71B4A126812F0020F1B
:102B70001ED01948C26822F073026168013943EA25
:102B800001131343C3600025ADE7134A126812F422
:102B9000806FEED10125A6E70F4A126812F4003FBC
:102BA000E7D10D4A126812F4802FE2D101259AE78D
:102BB000012598E70848426922F0C06222F4FE42EB
:102BC000A16823695B08013B5B0643EA01231343C9
:102BD0004361AEE701256DE7001002402DE9F041A9
:102BE00082B00446036813F4006F33D0836EB3F5EC
:102BF000000F1FD00CD823B3B3F5800F05D10021EF
:102C00002030FFF747FF064620E001273E4623E03D
:102C1000B3F5400F0BD10026604AD2F8883023F478
:102C20004003A16E0B43C2F88830002714E001274F
:102C30003E4611E0594AD36843F48033D3600026FE
:102C4000EAE700210430FFF76FFE0646002EE3D0CE
:102C5000374601E000273E46236813F4805F30D0FA
:102C6000E36EB3F1007F1FD00DD81BB3B3F1807FAB
:102C700006D1002104F12000FFF70CFF064605E015
:102C800001273E461DE0B3F1407F0AD1C6B9434A51
:102C9000D2F8883023F04073E16E0B43C2F88830DD
:102CA0000FE001273E460CE03C4AD36843F48033F2
:102CB000D360EBE70021201DFFF736FE0646E5E76F
:102CC0003746236813F4003F71D0344B9B6D13F0EB
:102CD000805F4ED1314B9A6D42F080529A659B6D68
:102CE00003F080530193019B4FF001082C4A1368B5
:102CF00043F480731360FEF73DF80546284B1B68CC
:102D000013F4807F05D1FEF735F8401B0228F5D972
:102D10000326002E46D1214BD3F8903013F4407394
:102D200016D0D4F888209A4212D01C4AD2F890309B
:102D300023F44073D2F8901041F48031C2F890101F
:102D4000D2F8901021F48031C2F89010C2F890307F
:102D500013F0010F10D1002E40F035810F4AD2F848
:102D6000903023F44073D4F888100B43C2F89030AD
:102D700019E04FF00008B9E7FDF7FCFF0546074BE7
:102D8000D3F8903013F0020FE5D1FDF7F3FF401BAD
:102D900041F288339842F2D90326DCE70010024062
:102DA000007000403746B8F1000F40F00E812368F4
:102DB00013F0010F08D0A44AD2F8883023F003039F
:102DC000A16B0B43C2F88830236813F0020F08D0C0
:102DD0009D4AD2F8883023F00C03E16B0B43C2F814
:102DE0008830236813F0040F08D0974AD2F888304F
:102DF00023F03003216C0B43C2F88830236813F0B2
:102E0000080F08D0904AD2F8883023F0C003616CD4
:102E10000B43C2F88830236813F0100F08D08A4A99
:102E2000D2F8883023F44073A16C0B43C2F8883089
:102E3000236813F0200F08D0834AD2F8883023F497
:102E40004063E16C0B43C2F88830236813F4007FC1
:102E500008D07D4AD2F8883023F44023216E0B43FA
:102E6000C2F88830236813F4806F08D0764AD2F80D
:102E7000883023F44013616E0B43C2F88830236816
:102E800013F0400F08D0704AD2F8883023F4405332
:102E9000216D0B43C2F88830236813F0800F08D0EF
:102EA000694AD2F8883023F44043616D0B43C2F87D
:102EB0008830236813F4807F08D0634AD2F88830C2
:102EC00023F44033A16D0B43C2F88830236813F418
:102ED000801F08D05C4AD2F89C3023F00303E16DD8
:102EE0000B43C2F89C30236813F4005F0FD0564A9E
:102EF000D2F8883023F04063216F0B43C2F888304A
:102F0000236FB3F1006F66D0B3F1806F68D0236890
:102F100013F4002F0FD04C4AD2F8883023F04063CE
:102F2000616F0B43C2F88830636FB3F1006F5FD0FD
:102F3000B3F1806F61D0236813F4802F0FD0424A21
:102F4000D2F8883023F04063A16F0B43C2F8883079
:102F5000A36FB3F1006F58D0B3F1806F5AD02368DC
:102F600013F4804F0FD0384AD2F8883023F0405302
:102F7000E16F0B43C2F88830E36FB3F1805F51D04B
:102F8000B3F1005F56D0236813F4004F09D02E4AE6
:102F9000D2F8883023F08043D4F880100B43C2F875
:102FA0008830236813F4803F09D0274AD2F888304C
:102FB00023F00043D4F884100B43C2F8883038461D
:102FC00002B0BDE8F0813746EDE61F4A936D23F06D
:102FD00080539365EBE6D36843F48013D36096E7A0
:102FE0000121201DFFF7A0FC002890D007468EE7A6
:102FF000D36843F48013D3609DE70121201DFFF7C0
:1030000093FC002897D0074695E7D36843F48013D4
:10301000D360A4E70121201DFFF786FC00289ED085
:1030200007469CE70221201DFFF77EFC0028AAD05E
:103030000746A8E7022104F12000FFF72BFD002836
:10304000A1D007469FE700BF0010024010B4036AFA
:10305000046A24F001040462846924F0F00C4CEA50
:10306000021223F00A030B43826103625DF8044BF2
:10307000704710B4046A24F0100404628469036A7F
:1030800024F4704C4CEA023223F0A00343EA01130B
:10309000826103625DF8044B7047836823F070031C
:1030A0000B4343F0070383607047000090F83D3006
:1030B000DBB2012B31D1022380F83D3003681A4A7C
:1030C00093421CD0B3F1804F19D0A2F594329342B1
:1030D00015D002F58062934211D002F580629342CE
:1030E0000DD002F59432934209D002F5406293422A
:1030F00005D01A6842F001021A60002070479968F2
:103100000A4A0A40062A0AD0B2F5803F09D01A6856
:1031100042F001021A600020704701207047002031
:1031200070470020704700BF002C014007000100DD
:1031300090F83D30DBB2012B36D1022380F83D30D0
:103140000268D36843F00103D3600368194A9342CD
:103150001CD0B3F1804F19D0A2F59432934215D010
:1031600002F58062934211D002F5806293420DD045
:1031700002F59432934209D002F54062934205D0A1
:103180001A6842F001021A600020704799680A4AE2
:103190000A40062A0AD0B2F5803F09D01A6842F0E8
:1031A00001021A600020704701207047002070471C
:1031B00000207047002C0140070001007047704755
:1031C0007047704710B5044603681A6912F0020F81
:1031D00011D0DA6812F0020F0DD06FF002021A61FE
:1031E0000123037703689B6913F0030F79D0FFF77E
:1031F000E6FF0023237723681A6912F0040F12D028
:10320000DA6812F0040F0ED06FF004021A61022384
:10321000237723689B6913F4407F68D02046FFF72B
:10322000CEFF0023237723681A6912F0080F12D00B
:10323000DA6812F0080F0ED06FF008021A6104234A
:1032400023772368DB6913F0030F57D02046FFF77D
:10325000B6FF0023237723681A6912F0100F12D0EB
:10326000DA6812F0100F0ED06FF010021A61082306
:1032700023772368DB6913F4407F46D02046FFF7AD
:103280009EFF0023237723681A6912F0010F03D0F1
:10329000DA6812F0010F3FD123681A6912F0800F2B
:1032A00003D0DA6812F0800F3DD123681A6912F456
:1032B000807F03D0DA6812F0800F3BD123681A694F
:1032C00012F0400F03D0DA6812F0400F39D12368B2
:1032D0001A6912F0200F03D0DA6812F0200F37D1EC
:1032E00010BDFFF76BFF2046FFF76AFF81E720461E
:1032F000FFF764FF2046FFF763FF92E72046FFF7E2
:103300005DFF2046FFF75CFFA3E72046FFF756FF6F
:103310002046FFF755FFB4E76FF001021A6120461F
:10332000FDF784FBB8E76FF080021A61204600F0D9
:1033300086F9BAE76FF480721A61204600F080F9CE
:10334000BCE76FF040021A612046FFF73AFFBEE784
:103350006FF020021A61204600F070F9C0E700000B
:103360000368304A904212D0B0F1804F0FD0A2F5DE
:10337000943290420BD002F58062904207D002F561
:103380008062904203D002F59432904203D123F040
:1033900070034A681343234A90421ED0B0F1804F15
:1033A0001BD0A2F59432904217D002F58062904271
:1033B00013D002F5806290420FD002F59432904211
:1033C0000BD002F54062904207D002F58062904235
:1033D00003D002F58062904203D123F44073CA689F
:1033E000134323F080034A69134303608B68C3626D
:1033F0000B6883620B4B98420FD003F50063984231
:103400000BD003F54063984207D003F580639842E0
:1034100003D003F58063984201D10B690363012354
:1034200043617047002C014060B310B5044690F82A
:103430003D3013B3022384F83D30214651F8040B8C
:10344000FFF78EFF012384F8483084F83E3084F87B
:103450003F3084F8403084F8413084F8423084F8BA
:10346000433084F8443084F8453084F8463084F89A
:10347000473084F83D30002010BD80F83C30FDF727
:103480001FFCD7E70120704710B4846824F47F4CF8
:1034900042EA03220A4342EA0C0282605DF8044BCE
:1034A0007047000090F83C30012B76D010B50446F0
:1034B000012380F83C30022380F83D300268906898
:1034C000374B034093600B68602B4CD029D8402BBE
:1034D00054D00CD9502B22D1CA6849682068FFF714
:1034E000B5FD50212068FFF7D8FD002005E0202B16
:1034F0000DD009D9302B0AD00120012384F83D30AA
:10350000002384F83C3010BD0BB1102B05D11946B7
:103510002068FFF7C2FD0020EFE70120EDE7012062
:10352000EBE7B3F5805F34D0B3F5005F0CD1CB6827
:103530004A6889682068FFF7A7FF2268936843F408
:10354000804393600020D8E7702B24D1CB684A6871
:1035500089682068FFF798FF2268936843F0770333
:1035600093600020C9E7CA6849682068FFF781FDB9
:1035700060212068FFF791FD0020BEE7CA68496816
:103580002068FFF763FD40212068FFF786FD0020DB
:10359000B3E70020B1E70120AFE70220704700BF8A
:1035A0008800FEFF90F83C30012B42D030B401235C
:1035B00080F83C30022380F83D30026853689468FC
:1035C0001D4DAA4203D005F50065AA4203D123F49C
:1035D00070034D682B4323F070030D682B43536039
:1035E0000368154A934216D0B3F1804F13D0A2F569
:1035F000943293420FD002F5806293420BD002F5D1
:103600008062934207D002F59432934203D002F5D0
:103610004062934204D124F080048A6814439C6081
:10362000012380F83D30002380F83C30184630BC40
:1036300070470220704700BF002C01407047704760
:10364000704708B54FF0E0231B6901F0F9FC012831
:1036500000D108BD00F0D6F9FBE70000EFF30583C9
:103660002BB9064B186828B901221A6070476FF011
:10367000050070474FF0FF30704700BF2811002051
:10368000EFF3058373B90A4B1B68012B0DD110B5FD
:103690000024084BDC77064B02221A6001F0B8F9CF
:1036A000204610BD6FF0050070474FF0FF307047A7
:1036B0002811002000ED00E0F0B587B0002405944B
:1036C000EFF305847CBB70B32AB31568936903B923
:1036D00018235C1E372C4AD8546814F0010F48D1C7
:1036E000566976B14FEA960C946834B1D768B7F54D
:1036F000916F02D3176907B1C6B92CB14FF0FF34EF
:103700000EE04FF0800CEFE7D4688CB9146994B1E7
:103710004FF0FF3404E01546002418234FF0800CCE
:10372000012C0AD0ACB1059807B0F0BD0124F7E731
:103730004FF0FF34F4E70024F2E714699268029234
:10374000019400930B466246294601F0EFF805907C
:10375000E9E705AA019200930B461FFA8CF229466D
:1037600001F021F90128DED000230593DBE70020DA
:10377000DAE70020D8E708B5EFF3058333B908B9D5
:10378000002008BD01F0B0FA0020FAE76FF0050054
:10379000F7E70000034B0360034B0B6080231360CB
:1037A000704700BFA00C0020A00A0020034B03605C
:1037B000034B0B604FF4807313607047301500208B
:1037C0002C11002000F1080343604FF0FF328260AB
:1037D000C3600361002303607047002303617047E7
:1037E00043684B609A688A60516099600861036819
:1037F00001330360704730B40D68B5F1FF3F11D05D
:1038000000F108031C465B681A68AA42FAD963688B
:103810004B6099608C6061600861036801330360EC
:1038200030BC70470469F2E70369416882688A60C6
:10383000416851605A68824206D0002202611A68CB
:10384000013A1A601868704782685A60F5E700000C
:1038500082B0002301930D4B1B68B3F1FF3F08D0EA
:103860004FF0500383F31188BFF36F8FBFF34F8F77
:10387000FEE74FF0500383F31188BFF36F8FBFF360
:103880004F8F019B002BFCD002B070472C00002012
:1038900008480068006880F308884FF0000080F353
:1038A000148862B661B6BFF34F8FBFF36F8F00DF2E
:1038B00000BF000008ED00E0DFF80C00016841F4F3
:1038C000700101607047000088ED00E04FF08073E8
:1038D00040F8043C21F0010140F8081C054B40F879
:1038E0000C3C40F8202C6FF0020340F8243C443894
:1038F000704700BF513800080000000000000000C1
:10390000074B19680868B0E8F04F80F30988BFF3E7
:103910006F8F4FF0000080F311887047AFF3008085
:10392000307D00204FF0500383F31188BFF36F8F79
:10393000BFF34F8F0B4A136801331360012B00D084
:1039400070474FF0E023D3F8043D13F0FF0FF7D09A
:103950004FF0500383F31188BFF36F8FBFF34F8F86
:10396000FEE700BF2C000020094B1B6843B94FF055
:10397000500383F31188BFF36F8FBFF34F8FFEE7C0
:10398000013B034A13600BB983F31188704700BFF2
:103990002C000020000000000000000000000000DB
:1039A000EFF30980BFF36F8F154B1A681EF0100FED
:1039B00008BF20ED108A20E9F04F10602DE90900C2
:1039C0004FF0500080F31188BFF34F8FBFF36F8F1C
:1039D00001F0B0F94FF0000080F3118809BC1968BC
:1039E0000868B0E8F04F1EF0100F08BFB0EC108A66
:1039F00080F30988BFF36F8F704700BFAFF300807B
:103A0000307D002008B54FF0500383F31188BFF3D9
:103A10006F8FBFF34F8F01F05FF828B14FF0E023B5
:103A20004FF08052C3F8042D002383F3118808BDA2
:103A30004FF0E022002313619361054B1B68054999
:103A4000A1FB03139B09013B5361072313617047DB
:103A500020000020D34D62104FF0E023D3F8002D5A
:103A60003D4B9A421CD04FF0E023D3F8002D3B4B46
:103A70009A421ED030B583B0394B1A78D2B2019237
:103A8000FF221A701B78DBB28DF803309DF80330EB
:103A900003F05003334A1370334B07221A601BE0C4
:103AA0004FF0500383F31188BFF36F8FBFF34F8F35
:103AB000FEE74FF0500383F31188BFF36F8FBFF31E
:103AC0004F8FFEE7284A1368013B13609DF80330CF
:103AD0005B00DBB28DF803309DF8033013F0800FEC
:103AE000F0D1214B1B68032B08D04FF0500383F318
:103AF0001188BFF36F8FBFF34F8FFEE71B021A4A87
:103B0000136003F4E0631360019BDBB2144A13708B
:103B10004FF0E024D4F8203D43F47003C4F8203D76
:103B2000D4F8203D43F07043C4F8203DFFF780FFF8
:103B300000250E4B1D60FFF7BFFED4F8343F43F065
:103B40004043C4F8343FFFF7A3FE01F0F3F8FFF75A
:103B50007FFE284603B030BD71C20F4170C20F41D5
:103B600000E400E0B8190020BC1900202C0000205F
:103B7000EFF305830F2B0FD9114A9B5CDBB2114A7F
:103B800012789A4208D94FF0500383F31188BFF39B
:103B90006F8FBFF34F8FFEE74FF0E023D3F80C3D5C
:103BA00003F4E063084A1268934208D94FF05003C7
:103BB00083F31188BFF36F8FBFF34F8FFEE770471A
:103BC000F0E300E0B8190020BC190020134A12F0FD
:103BD000070F1FD0D11D21F00701C1F5C6431033D7
:103BE00013440A460E480260002141601344083B1A
:103BF00023F007030B48036059601960991A51605C
:103C00001360094B1960094B1960094B4FF00042D2
:103C10001A60704746F21033E4E700BFC419002071
:103C2000E87C0020C0190020DC7C0020D87C00202B
:103C3000D47C0020164B1A461B688342FBD3516884
:103C400002EB010C844509D0416800EB010C63458F
:103C500009D00360904219D0106070474068014459
:103C600051601046F0E710B40A4C2468A3420BD010
:103C70005B681944416013681B680360904200D080
:103C800010605DF8044B70470460F7E7704700BFB1
:103C9000E87C0020C019002070B5054600F00EFF3A
:103CA000364B1B68A3B1364B1B681D424ED135B154
:103CB000083515F0070F02D025F007050835002D4F
:103CC00046D0304B1B68AB4251D32F4A146804E0F6
:103CD000FFF77CFFE7E722461C466368AB4202D24F
:103CE0002368002BF7D1254B1B68A34241D01668EF
:103CF00008362368136063685B1B102B10D96019AA
:103D000010F0070F08D04FF0500383F31188BFF372
:103D10006F8FBFF34F8FFEE743606560FFF78AFF49
:103D2000626818490B689B1A0B60184909688B4236
:103D300001D216490B60124B1B68134363600023CA
:103D40002360134A13680133136002E0002600E089
:103D5000002600F04DFF16F0070F0CD04FF0500377
:103D600083F31188BFF36F8FBFF34F8FFEE70026F9
:103D7000EFE70026EDE7304670BD00BFC019002018
:103D8000D47C0020D87C0020E87C0020DC7C002053
:103D9000E07C0020002834D038B50446A0F10805A6
:103DA00050F8043C174A1268134208D14FF05003F0
:103DB00083F31188BFF36F8FBFF34F8FFEE750F887
:103DC000081C41B14FF0500383F31188BFF36F8F8C
:103DD000BFF34F8FFEE723EA020340F8043C00F0F4
:103DE0006DFE54F8041C084A13680B4413602846FF
:103DF000FFF720FF054A13680133136000F0F8FE57
:103E000038BD7047D47C0020D87C0020E47C0020A2
:103E100010B50446FFF786FDA26BE36B9A4204D00F
:103E20000024FFF7A1FD204610BD0124F9E710B5DD
:103E30000446FFF777FDA36B23B90124FFF794FD38
:103E4000204610BD0024F9E770B504461546866B80
:103E5000026C5AB903681BB100200136A66370BD1D
:103E6000806801F0FDF80023A360F6E76DB94068B3
:103E7000FCF7BEF9226C636813446360A268934246
:103E800019D3236863602846E7E7C068FCF7B0F9F8
:103E9000226C5142E3689B1AE3602268934202D28B
:103EA000A3680B44E360022D01D00020D5E726B1C2
:103EB000013E0020D1E72846CFE70020CDE70346AA
:103EC000026C6AB110B50846D9681144D9609C6883
:103ED000A14201D31968D960D968FCF789F910BDEE
:103EE000704738B50546FFF71DFD95F8454064B2AB
:103EF00001E0013C64B2002C0ADD6B6A43B105F1BC
:103F0000240000F0FDFF0028F3D001F08DF8F0E769
:103F1000FF2385F84530FFF727FDFFF703FD95F8F0
:103F2000444064B201E0013C64B2002C0ADD2B691C
:103F300043B105F1100000F0E3FF0028F3D001F0D9
:103F400073F8F0E7FF2385F84430FFF70DFD38BD27
:103F500038B5E0B10D460446FFF7E4FC2368E26B98
:103F6000216C01FB0230A0600020A0636360013A75
:103F700002FB0133E360FF2384F8443084F84530CA
:103F8000FDB9236963B9FFF7EFFC012038BD4FF09D
:103F9000500383F31188BFF36F8FBFF34F8FFEE79A
:103FA00004F1100000F0ACFF0028ECD04FF0E0234B
:103FB0004FF08052C3F8042DBFF34F8FBFF36F8FC4
:103FC000E1E704F11000FFF7FDFB04F12400FFF727
:103FD000F9FBD8E738B51D46049C0B4649B9246067
:103FE000E063236401212046FFF7B2FF84F84C50C0
:103FF00038BD2260F4E740B94FF0500383F31188D5
:10400000BFF36F8FBFF34F8FFEE710B584B01C4630
:10401000844653B192B189B94FF0500383F31188AC
:10402000BFF36F8FBFF34F8FFEE74FF0500383F363
:104030001188BFF36F8FBFF34F8FFEE76AB1502334
:104040000393039B502B13D04FF0500383F311883D
:10405000BFF36F8FBFF34F8FFEE70029EFD04FF014
:10406000500383F31188BFF36F8FBFF34F8FFEE7C9
:10407000039B012384F8463000949DF81830604675
:10408000FFF7A8FF204604B010BD40B94FF0500321
:1040900083F31188BFF36F8FBFF34F8FFEE7F0B547
:1040A00083B00D461446064601FB00F05030FFF782
:1040B000F3FD074650B1002380F8463000902346B8
:1040C00000F1500229463046FFF784FF384603B01E
:1040D000F0BDF0B585B0019288B10F461D4604468B
:1040E000B1B1022D20D1E36B012B1DD04FF0500355
:1040F00083F31188BFF36F8FBFF34F8FFEE74FF04D
:10410000500383F31188BFF36F8FBFF34F8FFEE728
:10411000036C002BE5D04FF0500383F31188BFF3FD
:104120006F8FBFF34F8FFEE700F08AFF064658B946
:10413000019B002B48D04FF0500383F31188BFF34D
:104140006F8FBFF34F8FFEE700263DE02A463946CA
:104150002046FFF779FE636A7BB948B14FF0E02350
:104160004FF08052C3F8042DBFF34F8FBFF36F8F12
:10417000FFF7FAFB012005B0F0BD04F1240000F0C8
:10418000BFFE0028F4D04FF0E0234FF08052C3F878
:10419000042DBFF34F8FBFF36F8FE9E7FFF7E4FB09
:1041A0000020E8E702A800F0F1FE012619E0002354
:1041B00084F8443021E0002384F8453023E0204691
:1041C000FFF78FFE00F014FDFFF7ACFBA26BE36B73
:1041D0009A42BBD3022DB9D0019B002BDED0002E1A
:1041E000E0D0FFF7C1FB00F069FCFFF79BFB94F800
:1041F000442052B2B2F1FF3FD9D094F8452052B2D8
:10420000B2F1FF3FD7D0FFF7AFFB01A902A800F042
:10421000C9FED8B92046FFF7FBFD0028CFD0019991
:1042200004F1100000F038FE2046FFF75AFE00F0BF
:10423000DFFC0028C8D14FF0E0234FF08052C3F8D4
:10424000042DBFF34F8FBFF36F8FBDE72046FFF7FD
:1042500048FE00F0CDFC00208DE72DE9F84390B139
:104260000F4616461C460546B1B1022C20D1EB6B19
:10427000012B1DD04FF0500383F31188BFF36F8FD4
:10428000BFF34F8FFEE74FF0500383F31188BFF366
:104290006F8FBFF34F8FFEE7036C002BE5D04FF01D
:1042A000500383F31188BFF36F8FBFF34F8FFEE787
:1042B000FFF75EFCEFF311894FF0500383F3118891
:1042C000BFF36F8FBFF34F8FAA6BEB6B9A4206D38E
:1042D000022C04D0002089F31188BDE8F88395F8FA
:1042E00045804FFA88F8AB6B224639462846FFF7DF
:1042F000ABFDB8F1FF3F06D008F101035BB285F8D2
:1043000045300120E7E76B6A0BB90120E3E705F1CF
:10431000240000F0F5FD18B126B101203060DAE785
:104320000120D8E70120D6E768B170B50C460546F4
:10433000036C8BB14FF0500383F31188BFF36F8F81
:10434000BFF34F8FFEE74FF0500383F31188BFF3A5
:104350006F8FBFF34F8FFEE70368EBB1FFF708FCE9
:10436000EFF311864FF0500383F31188BFF36F8F83
:10437000BFF34F8FAA6BEB6B934226D995F845306C
:104380005BB20132AA63B3F1FF3F11D001335BB2DC
:1043900085F84530012019E08368002BDED04FF00E
:1043A000500383F31188BFF36F8FBFF34F8FFEE786
:1043B0006B6A0BB9012009E005F1240000F0A0FDB3
:1043C00038B144B10120206000E0002086F311885C
:1043D00070BD0120FAE70120F8E7F0B585B0019241
:1043E00090B10F460446C1B100F02AFE064600BB5C
:1043F000019B002B5ED04FF0500383F31188BFF375
:104400006F8FBFF34F8FFEE74FF0500383F3118898
:10441000BFF36F8FBFF34F8FFEE7036C002BE3D02A
:104420004FF0500383F31188BFF36F8FBFF34F8FAB
:10443000FEE700263EE039462046FFF740FD013DFD
:10444000A563236923B9FFF78FFA012005B0F0BDFA
:1044500004F1100000F054FD0028F4D04FF0E023E8
:104460004FF08052C3F8042DBFF34F8FBFF36F8F0F
:10447000E9E7FFF779FA0020E8E702A800F086FDF7
:10448000012621E0002384F8443029E0002384F849
:1044900045302BE02046FFF724FD00F0A9FB09E0A2
:1044A0002046FFF71EFD00F0A3FB2046FFF7BFFCF0
:1044B00000283FD1FFF736FAA56B002DBBD1019B39
:1044C000002BD6D0002ED8D0FFF74EFA00F0F6FA27
:1044D000FFF728FA94F844305BB2B3F1FF3FD1D034
:1044E00094F845305BB2B3F1FF3FCFD0FFF73CFA11
:1044F00001A902A800F056FD0028D1D12046FFF7FF
:1045000096FC0028C6D0019904F1240000F0C4FCF8
:104510002046FFF7E6FC00F06BFB0028CAD14FF005
:10452000E0234FF08052C3F8042DBFF34F8FBFF349
:104530006F8FBFE7002089E70023072B0CD8074ABD
:1045400052F833200AB10133F7E7044A42F8331036
:1045500002EBC30358607047704700BFF07C002037
:1045600070B504460D461646FFF7DCF994F8443062
:104570005BB2B3F1FF3F0DD094F845305BB2B3F1BD
:10458000FF3F0BD0FFF7F0F9A36B5BB12046FFF7BD
:10459000A8FC70BD002384F84430EDE7002384F8C4
:1045A0004530EFE73246294604F1240000F08CFC48
:1045B000ECE70000084B1B681B6823B9074B4FF062
:1045C000FF321A607047044B1B68DB68DB685A686F
:1045D000024B1A60704700BF347D0020DC81002050
:1045E0002DE9F04780460D4617469946089EDDF8AE
:1045F00024A00A9C9200A521206B00F0CDFF236B24
:1046000007F18042013A03EB820727F00707002DEC
:1046100065D04FF0000CBCF10F0F0BD815F80C2033
:1046200004EB0C0383F8342015F80C3013B10CF1B3
:10463000010CF0E7002384F84330372E00D93726E9
:10464000E662E66400252565201DFFF7C6F804F143
:104650001800FFF7C2F82461C6F13806A66164624B
:10466000C4F8805484F884544FF48562294604F1D8
:10467000580000F091FF04F55173E36504F56B7386
:10468000236604F21443636601220023C4E9402335
:1046900043F20E33A4F808314AF6CD33A4F80A31B8
:1046A00041F23423A4F80C314EF26D63A4F80E31BC
:1046B0004DF6EC63A4F810310523A4F812310B2356
:1046C000A4F814314A4641463846FFF7FFF8206007
:1046D000BAF1000F01D0CAF80040BDE8F08700230E
:1046E00084F83430A9E7000038B5002407E004EB73
:1046F000840293000E481844FFF764F80134372C05
:10470000F5D90C4D2846FFF75DF80B4C2046FFF716
:1047100059F80A48FFF756F80948FFF753F80948CF
:10472000FFF750F8084B1D60084B1C6038BD00BFF8
:104730003C7D0020B0810020C4810020E881002061
:104740001482002000820020347D0020387D00206B
:1047500010B50446FFF7E6F8224A136801331360E8
:10476000214B1B685BB1214B1B686BB91E4B1B684F
:10477000DA6AE36A9A4207D81B4B1C6004E01A4BC2
:104780001C601368012B29D0194A13680133136088
:104790006364E06A174B1B68984201D9154B186097
:1047A00000EB8000211D144B03EB8000FFF718F88D
:1047B000FFF7DAF80D4B1B687BB10B4B1B68DA6A0D
:1047C000E36A9A4209D24FF0E0234FF08052C3F8D7
:1047D000042DBFF34F8FBFF36F8F10BDFFF784FF22
:1047E000D2E700BF9C810020307D0020FC810020AA
:1047F000A8810020AC8100203C7D002010B504463B
:10480000583000F03FFF94F8853463B1012B11D08C
:10481000022B0ED04FF0500383F31188BFF36F8F3C
:10482000BFF34F8FFEE7206BFFF7B4FA2046FFF788
:10483000B1FA10BD2046FFF7ADFAFAE70F4B1B683F
:10484000D3B110B5FFF76EF80D4BDB68DC68201DA7
:10485000FEF7EAFF0B4A1368013B1360074A13682F
:10486000013B1360FFF780F82046FFF7C7FF034BBB
:104870001B68002BE6D110BD704700BFA08100204F
:10488000148200209C81002008B5FFF7D7FF074B5A
:104890001B68012BF9D94FF0E0234FF08052C3F889
:1048A000042DBFF34F8FBFF36F8FEEE73C7D0020E9
:1048B00070B504460D46174B1E68174B1868043038
:1048C000FEF7B2FFB4F1FF3F0DD03444124B1B682A
:1048D0005C60A64210D9114B18680F4B196804315F
:1048E000FEF789FF70BD002DEFD00B4B1968043126
:1048F0000B48FEF775FFF5E70A4B1868064B196879
:104900000431FEF778FF084B1B68A342EAD9064B37
:104910001C60E7E728820020307D0020387D0020E1
:1049200000820020347D0020DC81002030B587B07B
:104930000B9C8CB10C9DC5B14FF491650495049D01
:10494000B5F5916F1AD04FF0500383F31188BFF380
:104950006F8FBFF34F8FFEE74FF0500383F3118843
:10496000BFF36F8FBFF34F8FFEE74FF0500383F31A
:104970001188BFF36F8FBFF34F8FFEE7049D0C9D2F
:104980002C63022485F8854400240394029505AC29
:1049900001940A9C0094FFF723FE0C98FFF7D8FEC1
:1049A000059807B030BD2DE9F04385B0074688462D
:1049B00014461E469000FFF76FF908B381464FF486
:1049C0009160FFF769F90546B0B1C0F83090E5B1E4
:1049D000002385F88534039302950D9B01930C9B6E
:1049E00000933346224641463846FFF7F9FD2846F4
:1049F000FFF7AEFE012005E04846FFF7CBF9E6E7FA
:104A00004FF0FF3005B0BDE8F0834FF0FF30F9E71D
:104A100010B588B000240594069407AA06A905A835
:104A2000FEF7B8FE059B0293069B01930094234674
:104A3000079A1A491A48FFF779FF1A4B186040B1D4
:104A400000F0C2FB012806D0B0F1FF3F1DD008B036
:104A500010BD0020F6E74FF0500383F31188BFF339
:104A60006F8FBFF34F8F104B1B6858330F4A136083
:104A70000F4B4FF0FF321A600E4B01221A600E4BA3
:104A800000221A60FEF7E8FFE1E74FF0500383F3DE
:104A90001188BFF36F8FBFF34F8FFEE7285C0008CC
:104AA00089480008D8810020307D00203000002097
:104AB000DC810020FC81002028820020024A13684B
:104AC00001331360704700BFA4810020014B1868B8
:104AD000704700BF28820020F8B53A4B1B68002BB6
:104AE00069D1394B1D6801351D60C5B9374B1B684D
:104AF0001B6843B14FF0500383F31188BFF36F8FEE
:104B0000BFF34F8FFEE7314A1168314B18681060D0
:104B10001960304A136801331360FFF74BFD2E4BC9
:104B20001B68AB423DD900272C4B1B68DB6A03EBAB
:104B300083039A002A4B9B58012B00D90127294B4C
:104B40001B68002B3CD001273AE001271F4B1B6854
:104B50001B6843B31D4B1B68DB68DC6863689D42C0
:104B600026D3261D3046FEF75FFEA36A1BB104F173
:104B70001800FEF759FEE36A1B4A1268934201D9F6
:104B8000194A136003EB83039A003146144810441A
:104B9000FEF726FEE26A114B1B68DB6A9A42D4D20A
:104BA000D4E70027D2E70C4B4FF0FF321A60BBE787
:104BB000094A1360B8E70D4A1368013313600027F0
:104BC0003846F8BDA481002028820020347D0020D2
:104BD000387D0020E0810020DC810020307D002035
:104BE0003C7D00202C820020AC810020E48100204C
:104BF00038B5354B1B6843B94FF0500383F3118828
:104C0000BFF36F8FBFF34F8FFEE7FEF78BFE2E4B88
:104C10001A68013A1A601B68002B4FD12B4B1B6896
:104C20000BB900244BE00024294B1B681BB3284B15
:104C3000DB68DC6804F11800FEF7F6FD251D284648
:104C4000FEF7F2FDE06A234B1B68984201D9214B25
:104C5000186000EB800029461F4B03EB8000FEF735
:104C6000BFFDE26A1D4B1B68DB6A9A42DCD31C4B1A
:104C700001221A60D8E70CB1FFF79CFC194B1C68A5
:104C800084B9174B1C68D4B14FF0E0234FF0805229
:104C9000C3F8042DBFF34F8FBFF36F8F01240EE0D5
:104CA000013C07D0FFF718FF0028F9D00C4B012278
:104CB0001A60F5E70B4B00221A60E2E70024FEF7CA
:104CC00053FE204638BD00BFA48100209C810020F7
:104CD000E8810020AC8100203C7D0020307D002058
:104CE0002C820020E481002010B5A8B10446104BAE
:104CF0001B6843B14FF0500383F31188BFF36F8FEC
:104D0000BFF34F8FFEE7FFF7D9FE00212046FFF7E4
:104D1000CFFDFFF76DFF48B94FF0E0234FF0805211
:104D2000C3F8042DBFF34F8FBFF36F8F10BD00BFCB
:104D3000A4810020214B1B681BB1214B01221A606A
:104D400070471F4B00221A601E4B1B6803EB830148
:104D50008A001D498A585AB90BB1013BF6E74FF05A
:104D6000500383F31188BFF36F8FBFF34F8FFEE7BC
:104D700003EB830082000A4450684068506003EBF4
:104D8000830C4FEA8C020832114488420FD003EBA7
:104D9000830291000C4A0A445268D1680B4A1160A0
:104DA00008490B6013685833094A1360704740681C
:104DB00062469100044A0A445060E8E7A48100205A
:104DC0002C820020AC8100203C7D0020307D002022
:104DD0003000002038B50446FEF7A4FDE4B1251DDF
:104DE0002846FEF721FDA36A1BB104F11800FEF767
:104DF0001BFD29462348FEF7F3FC94F88434DBB20C
:104E0000012B0CD0FEF7B0FD1F4B1B685BB91F4B8D
:104E10001B68A3420ED038BD1C4B1C68DFE7002383
:104E200084F88434EEE7FEF77DFDFFF7C3FBFEF761
:104E30009BFDECE7144B1B68B3B1154B1B6843B1EA
:104E40004FF0500383F31188BFF36F8FBFF34F8F81
:104E5000FEE74FF0E0234FF08052C3F8042DBFF37C
:104E60004F8FBFF36F8FD6E7064B1A68094B1B684D
:104E70009A4203D1054B00221A60CCE7FFF75AFF94
:104E8000C9E700BF00820020FC810020307D0020A7
:104E9000A48100209C81002058B110B50C46094A1D
:104EA00011681831FEF7A7FC01212046FFF700FD2D
:104EB00010BD4FF0500383F31188BFF36F8FBFF322
:104EC0004F8FFEE7307D002038B570B10D46144697
:104ED0000A4A11681831FEF783FC0CB14FF0FF3518
:104EE00021462846FFF7E4FC38BD4FF0500383F31A
:104EF0001188BFF36F8FBFF34F8FFEE7307D002027
:104F000038B5C368DC6824B304F118052846FEF7F9
:104F10008BFC184B1B682BBB251D2846FEF784FC19
:104F2000E06A154B1B68984201D9134B186000EBDF
:104F300080002946114B03EB8000FEF751FCE26A2A
:104F40000F4B1B68DB6A9A4211D901200D4B186088
:104F500038BD4FF0500383F31188BFF36F8FBFF359
:104F60004F8FFEE729460848FEF73AFCE7E70020A6
:104F7000EEE700BFA4810020AC8100203C7D002032
:104F8000307D00202C820020E8810020034B1B682C
:104F90000360034B1B684360704700BFE081002043
:104FA00028820020F8B5C8B10C460546F9B1FEF7D5
:104FB000B9FC1B4B19686B68C81A2268B2F1FF3F35
:104FC00026D0184E36682F68B74201D08B4224D9BC
:104FD000824215D80023236001241AE04FF05003C9
:104FE00083F31188BFF36F8FBFF34F8FFEE74FF04E
:104FF000500383F31188BFF36F8FBFF34F8FFEE72A
:105000005B1A134423602846FFF7C0FF002400E02A
:105010000024FEF7A9FC2046F8BD0124F9E700BFF3
:1050200028820020E0810020014B01221A60704795
:105030002C820020014B1868704700BF307D002093
:10504000054B1B6833B1054B1B680BB10020704743
:105050000220704701207047FC810020A4810020BD
:1050600000283BD038B504461E4B1B68834208D04D
:105070004FF0500383F31188BFF36F8FBFF34F8F4F
:10508000FEE7036D43B94FF0500383F31188BFF37C
:105090006F8FBFF34F8FFEE7013B0365C16AC26CA0
:1050A00091421DD00BB1002038BD051D2846FEF7EA
:1050B000BBFBE06CE062C0F13803A3610A4B1B68E4
:1050C000984201D9084B186000EB80002946074B35
:1050D00003EB8000FEF784FB0120E5E7002070472A
:1050E0000020E1E7307D0020AC8100203C7D0020E5
:1050F000064B1A6813682BB90123036023B9D368E0
:10510000186870470023F8E70020704730820020BD
:1051100008B54160006191420CD8D21A83699A4265
:1051200001D3012008BD011D094B1868FEF763FB80
:105130000020F7E79A4201D2994206D2011D054BA1
:105140001868FEF758FB0020ECE70120EAE700BFF3
:10515000348200203082002030B583B0FEF7E2FBBD
:10516000114B1B681BB1FEF7FFFB03B030BD0F4DA9
:105170002846FEF727FB0E4C2046FEF723FB0D4B7F
:105180001D600D4B1C60002300930C4B0C4A10213A
:105190000A20FEF730FF044B18600028E3D00949CD
:1051A000FFF7CAF9DFE700BF54830020D882002050
:1051B000EC82002030820020348200200483002012
:1051C00038820020305C000810B588B0FFF7C4FFBB
:1051D000124B1B68CBB100240594069407AA06A9BC
:1051E00005A8FEF7E3FA059B0293069B01930223B1
:1051F00000932346079A0A490A48FFF797FB0A4B90
:10520000186010B1012008B010BD4FF0500383F3B7
:105210001188BFF36F8FBFF34F8FFEE754830020D9
:10522000385C00082D55000858830020B8B19C4612
:1052300003461848006858B300B585B00091019244
:10524000029305291CDCFFF7FBFE022810D0002387
:105250001A4669460F480068FEF73BFF15E04FF01D
:10526000500383F31188BFF36F8FBFF34F8FFEE7B7
:105270000023069A694607480068FEF72AFF04E003
:10528000002362466946FEF7E8FF05B05DF804FBBF
:10529000002070475483002070B582B01B4B1B6800
:1052A0001A6862B3DB681E68DC68251D2846FEF7B5
:1052B000BBFA236A2046984794F8283013F0040F6D
:1052C000ECD0A36933449E4207D26360246129462F
:1052D0000E4B1868FEF78FFAE0E7002100910B46AD
:1052E00032462046FFF7A2FF0028D7D14FF05003E7
:1052F00083F31188BFF36F8FBFF34F8FFEE7044A2C
:10530000106802490860136002B070BD308200204E
:105310003482002038B50546FFF7D8FB0446074B1A
:105320001B68834205D800232B60044B1C60204679
:1053300038BDFFF7B1FF01232B60F6E700830020A3
:1053400070B582B006460D4617490968C968CC6831
:10535000201DFEF769FA94F828C01CF0040F08D14C
:105360002CF0010C84F828C0236A2046984702B02C
:1053700070BDA16933462A4631442046FFF7C8FE76
:105380000028F1D0002100910B4632462046FFF75D
:105390004DFF0028E8D14FF0500383F31188BFF38D
:1053A0006F8FBFF34F8FFEE73082002070B582B061
:1053B00006460C46FFF782FB01A8FFF7ABFF019BF7
:1053C00033BB05460CB9B04219D224B1124A126857
:1053D0001268DAB901242246711B104B1868FFF7D6
:1053E000BFF8FFF705FCA8B94FF0E0234FF080525B
:1053F000C3F8042DBFF34F8FBFF36F8F0AE0FFF7A1
:10540000F7FB29463046FFF79BFF03E01C46E2E727
:10541000FFF7EEFB02B070BD348200205483002001
:1054200010B588B002E0049B002B0FDA002204A91B
:105430003D4B1868FEF7D1FF002873D0049B002B6A
:10544000F1DA07990698059B9847ECE7069C636993
:1054500013B1201DFEF7E8F903A8FFF75BFF049BDB
:10546000092BE3D8DFE803F00505053037500505C3
:10547000303794F8283043F0010384F82830059B36
:10548000A169024619442046FFF742FE0028CDD00C
:10549000236A2046984794F8283013F0040FC5D0AB
:1054A000A269002100910B46059802442046FFF7AF
:1054B000BDFE0028BAD14FF0500383F31188BFF32B
:1054C0006F8FBFF34F8FFEE794F8283023F001036E
:1054D00084F82830AAE794F8283043F0010384F8D0
:1054E00028300599A16131B10346024601442046A6
:1054F000FFF70EFE9AE74FF0500383F31188BFF3D6
:105500006F8FBFF34F8FFEE794F8283013F0020F30
:1055100004D023F0010384F8283087E72046FEF703
:1055200039FC83E708B010BD5483002000B583B078
:1055300001A8FFF7DDFD0199FFF738FFFFF770FFC6
:10554000F6E70000014B1868704700BF30000020EC
:1055500070B50D4E0D4D761BB61006D0002455F8D3
:10556000043B01349847A642F9D1094E094D761BF8
:1055700000F0B4FAB61006D0002455F8043B01340C
:105580009847A642F9D170BD445C0008445C00080D
:105590004C5C0008445C0008830730B548D0541EBA
:1055A000002A3FD0CAB2034601E0013C3AD303F8D7
:1055B000012B9D07F9D1032C2DD9CDB245EA052544
:1055C0000F2C45EA054536D9A4F1100222F00F0C44
:1055D00003F1200EE6444FEA121C03F1100242E9E7
:1055E000045542E9025510327245F8D10CF101021E
:1055F00014F00C0F03EB021204F00F0C13D0ACF1FB
:10560000040323F003030433134442F8045B93427E
:10561000FBD10CF003042CB1CAB21C4403F8012BDB
:105620009C42FBD130BD64461346002CF4D1F9E70F
:1056300003461446BFE71A46A446E0E72DE9F041C9
:105640000E680C460546BEB137688FB1D7F80080AA
:10565000B8F1000F08D0D8F8001009B1FFF7EEFF3D
:105660004146284600F0CCF83946284600F0C8F8F4
:105670003146284600F0C4F821462846BDE8F041EE
:1056800000F0BEB8224B1B68834240D0C16C70B59D
:10569000054681B100268C593CB121462468284634
:1056A00000F0AEF8002CF8D1E96C0436802EF2D16F
:1056B000284600F0A5F8296C11B1284600F0A0F8A2
:1056C000D5F8484154B105F5A676B44206D0214636
:1056D0002468284600F094F8A642F8D1696D11B10B
:1056E000284600F08DF8AB6B83B1EB6B28469847EA
:1056F000D5F8E04254B1216811B12846FFF79EFF6A
:1057000021462846BDE8704000F07AB870BD704769
:1057100030000020024B13B1024800F005B870477A
:105720000000000035570008002301461A461846BD
:1057300000F08EB938B5084B084D5B1B9C1007D0A4
:10574000043B1D44013C55F804399847002CF9D11D
:10575000BDE8384000F0C8B9505C00084C5C000857
:10576000F8B5244F0C46064600F054F9BA6855685F
:10577000C4F57E630F3325F003052B4423F47F63C8
:1057800023F00F03A3F58054B4F5805F07DB0021FD
:10579000304600F04BF9BB682B44984204D03046A9
:1057A00000F03EF90020F8BD6142304600F03EF9BD
:1057B00001300DD0104ABB682D1B45F001055D601E
:1057C000136830461B1B136000F02AF90120F8BD56
:1057D0000021304600F02AF9BA68831A0F2BDEDD6B
:1057E00043F001035360054B03491B68C01A08606E
:1057F000D5E700BF64040020688300206C08002007
:10580000002961D0F8B50C46064600F003F954F8BB
:10581000042C7B4FA4F1080522F0010105EB010CDB
:10582000B868DCF80430604523F0030300F08B8097
:10583000D207CCF8043032D454F8082CAD1A1144F5
:10584000AA6807F1080082426AD00CEB0304D4F87E
:1058500004E0EC68D4601EF0010FA26000F09780B5
:1058600041F001036B60CCF80010B1F5007F35D238
:105870007A68CB08480901210133814011437960DE
:1058800007EBC30257F83310083AC5E9021247F88C
:105890003350CD603046BDE8F84000F0C1B80CEBA5
:1058A00003025268D00710D4194407F10800DCF84D
:1058B0000830834273D0DCF80C20DA60936041F04A
:1058C00001036B606950D0E7704741F00103B1F507
:1058D000007F44F8043CCCF80010C9D3B1F5206F28
:1058E0004FEA512348D28B0903F1390003F1380202
:1058F000C300F818FB580838984259D05A6822F06B
:1059000003028A4202D99B689842F7D1D868C5E958
:1059100002308560DD603046BDE8F84000F080B8B8
:105920000CEB03025268D20763D40B44DCE9021289
:10593000CA60916043F001026A603046EB50BDE8F6
:10594000F84000F06DB80B44D10707D454F8082C88
:10595000AD1A1344D5E90212CA60916043F0010206
:105960006A60284ABD6012689A4293D8264B304636
:105970001968FFF7F5FE8DE7142B0AD9542B1FD8B1
:105980000B0B03F16F0003F16E02C300B1E7194482
:105990008DE703F15C0003F15B02C300A9E741F06E
:1059A0000103C7E90455C5E902006B60695071E75E
:1059B00079689210012404FA02F20A437A60A6E799
:1059C000B3F5AA7F06D8CB0B03F1780003F1770279
:1059D000C3008EE740F25452934206D88B0C03F179
:1059E0007D0003F17C02C30083E74FF47E737E22C7
:1059F0007FE741F001036B60CCF800104AE700BF7D
:105A0000640400207008002090830020704700BFCD
:105A1000704700BF0148FFF7F9BF00BF6483002053
:105A20000148FFF7F5BF00BF6483002038B5074D7C
:105A30000022044608462A60FBF7D8F8431C00D031
:105A400038BD2B68002BFBD0236038BD5C83002061
:105A50002DE9F047DFF880A00646DAF80000984606
:105A60000F469146FFF7D2FF1A4B1B68D3F8484107
:105A700024B365681F2D26DC5EB96B1C0235DAF88D
:105A80000000636044F82570FFF7C2FF0020BDE806
:105A9000F08704EB85010123C1F88890D4F88821B0
:105AA000AB401A43022EC4F88821C1F80881E4D122
:105AB000D4F88C211343C4F88C31DEE703F5A674C7
:105AC000C3F84841D5E7DAF80000FFF7A1FF4FF02F
:105AD000FF30DCE7405C000860040020F8B500BF40
