:020000040800F2
:1000000000000520750B00082D0B00082F0B0008C1
:10001000310B0008330B0008350B0008000000000E
:10002000000000000000000000000000370B000886
:10003000390B0008000000003B0B00083D0B0008D6
:10004000C50B0008C50B0008C50B0008C50B000850
:10005000C50B0008C50B0008C50B0008C50B000840
:10006000C50B0008C50B0008C50B0008C50B000830
:10007000C50B0008C50B0008C50B0008C50B000820
:10008000C50B0008C50B0008C50B0008C50B000810
:10009000C50B0008C50B0008C50B0008C50B000800
:1000A000C50B0008C50B0008C50B0008C50B0008F0
:1000B000C50B0008C50B0008C50B0008C50B0008E0
:1000C000C50B0008C50B0008C50B0008C50B0008D0
:1000D000C50B0008C50B0008C50B0008C50B0008C0
:1000E000C50B0008C50B0008C50B0008C50B0008B0
:1000F000C50B0008C50B0008C50B0008C50B0008A0
:10010000C50B0008C50B0008C50B0008C50B00088F
:10011000C50B0008C50B0008C50B0008C50B00087F
:10012000C50B0008C50B0008C50B0008C50B00086F
:10013000C50B0008C50B0008C50B0008C50B00085F
:10014000C50B0008C50B0008C50B0008C50B00084F
:10015000C50B0008C50B0008C50B0008C50B00083F
:10016000C50B0008C50B0008C50B0008C50B00082F
:10017000C50B0008C50B0008C50B000800000000F7
:10018000C50B0008C50B0008C50B0008C50B00080F
:10019000C50B0008C50B0008C50B0008C50B0008FF
:1001A000C50B0008C50B0008C50B0008C50B0008EF
:1001B000C50B0008C50B0008C50B0008C50B0008DF
:0801C000C50B0008C50B000887
:1001C80010B5054C237833B9044B13B10448AFF389
:1001D80000800123237010BD7C0500200000000072
:1001E8001C2D000808B5034B1BB103490348AFF3A6
:1001F800008008BD00000000800500201C2D0008BC
:1002080053B94AB9002908BF00281CBF4FF0FF3175
:100218004FF0FF3000F074B9ADF1080C6DE904CE71
:1002280000F006F8DDF804E0DDE9022304B07047C9
:100238002DE9F047089E0D4604468846002B4DD10F
:100248008A42944668D9B2FA82F252B101FA02F3AC
:10025800C2F1200120FA01F10CFA02FC41EA03087C
:1002680094404FEA1C45210CB8FBF5FE1FFA8CF7A9
:1002780005FB1E8341EA03430EFB07F199420BD9A4
:100288001CEB03030EF1FF3080F01E81994240F20F
:100298001B81AEF1020E63445B1AA4B2B3FBF5F006
:1002A80005FB103344EA034400FB07F7A7420AD9C9
:1002B8001CEB040400F1FF3380F00881A74240F2F0
:1002C800058164440238E41B40EA0E4000211EB157
:1002D800D4400023C6E90043BDE8F0878B4208D923
:1002E800002E00F0EE800021C6E900050846BDE8B2
:1002F800F087B3FA83F100294AD1AB4202D3824294
:1003080000F2F980841A65EB030301209846002E59
:10031800E2D0C6E90048DFE702B9FFDEB2FA82F2AE
:10032800002A40F09180A1EB0C054FEA1C471FFA08
:100338008CFE0121B5FBF7F307FB1350250C45EAAA
:1003480000450EFB03F0A84208D91CEB050503F194
:10035800FF3802D2A84200F2CB8043462D1AA4B23D
:10036800B5FBF7F007FB105544EA05440EFB00FE09
:10037800A64508D91CEB040400F1FF3502D2A645B6
:1003880000F2BB802846A4EB0E0440EA03409EE737
:10039800C1F120078B4022FA07FC4CEA030C20FA33
:1003A80007F405FA01F31C43FD404FEA1C4900FA23
:1003B80001F3B5FBF9F8200C1FFA8CFE09FB185560
:1003C80040EA054508FB0EF0A84202FA01F20BD9F3
:1003D8001CEB050508F1FF3A80F08880A84240F23E
:1003E8008580A8F1020865442D1AA4B2B5FBF9F07E
:1003F80009FB105544EA054500FB0EFEAE4508D939
:100408001CEB050500F1FF346CD2AE456AD9023801
:10041800654440EA0840A0FB0294A5EB0E05A542FE
:10042800C846A64656D353D05EB1B3EB080265EB77
:100438000E0505FA07F722FA01F3CD401F43C6E976
:1004480000750021BDE8F087C2F1200320FA03F10E
:100458000CFA02FC25FA03F395400D434FEA1C47BA
:100468001FFA8CFEB3FBF7F107FB11302B0C43EAA4
:10047800004301FB0EF0984204FA02F408D91CEB81
:10048800030301F1FF382FD298422DD90239634472
:100498001B1AADB2B3FBF7F007FB103345EA03456F
:1004A80000FB0EF3AB4208D91CEB050500F1FF3841
:1004B80016D2AB4214D902386544ED1A40EA01411C
:1004C80038E73146304607E78646E5E61846FAE655
:1004D8004B45A9D2B9EB020864EB0C0E0138A3E72F
:1004E8004046EAE7204694E74146D1E7D0467BE715
:1004F800023B654432E7084609E76444023842E7AC
:10050800704700BF2DE9F0418CB00024079408948F
:1005180009940A940B943F4B1A6B42F004021A6335
:100528001A6B02F004020192019A1A6B42F08002DF
:100538001A631A6B02F080020292029A1A6B42F056
:1005480001021A631A6B02F001020392039A1A6BF2
:1005580042F002021A631A6B02F002020492049A31
:100568001A6B42F008021A631A6B02F0080205922D
:10057800059A1A6B42F040021A631B6B03F04003A2
:100588000693069BDFF89080224644F2810140469C
:1005980000F0E6FE214E22464421304600F0E0FEFF
:1005A8001F4F22460421384600F0DAFE4FF400536C
:1005B80007934FF488130893099407A9194800F082
:1005C800D3FD44F2810307930125089509940A9401
:1005D80007A9404600F0C8FD4423079308950994ED
:1005E8000A9407A9304600F0BFFD802307930894BA
:1005F800099407A9304600F0B7FD0423079308952E
:1006080009940A9407A9384600F0AEFD0CB0BDE87D
:10061800F08100BF00380240000402400018024088
:10062800000C02400008024072B6FEE710B51448FC
:10063800144B0360144B00221A7080215970E12179
:100648009970DA701A715A7143604FF4000383602D
:100658000E4BC3600E4B036140F2F453436100F04C
:1006680025FD58B90B4C38220021204602F090FA9B
:10067800212323604FF44003636110BDFFF7D4FFCB
:10068800D80500200080024098050020DC040020E6
:100698003C040020A005002008B50F480F4B03605C
:1006A8004FF482734360002383604FF4E062C260BA
:1006B800036143614FF4007282611022C2610362D8
:1006C800436283620722C2620363436301F03EFD13
:1006D80000B908BDFFF7A8FF900B0020003C0040C0
:1006E80008B50B480B4B03604FF4E133436000231C
:1006F8008360C36003610C2242618361C36103624A
:10070800436202F026F800B908BDFFF78DFF00BF6D
:10071800F40B00200048004008B50B484FF0A043F8
:100728000360062343600222C260002303618261E2
:100738000122C26103624362C262036300F016FED3
:1007480000B908BDFFF770FF8806002000B595B016
:100758003022002108A802F01BFA00230393049317
:1007680005930693079300F0B3FE204B1A6C42F0F2
:1007780080521A641B6C03F080530193019B1C4A3E
:10078800136823F4404343F480431360136803F46D
:1007980040430293029B012308934FF4A02309933B
:1007A80002230E934FF480020F92042210924822E3
:1007B800119212930323139308A800F091FE80B9B5
:1007C8000F23039302210491002305934FF48052D1
:1007D8000692079303A801F007F920B915B05DF850
:1007E80004FBFFF721FFFFF71FFF00BF003802409F
:1007F8000070004008B500F009FAFFF7A7FFFFF7FF
:1008080081FEFFF713FFFFF747FFFFF769FFFFF7C9
:1008180083FF0648064B0360064B436004230381AD
:10082800054AC260038200F08AF9FEE77C0C0020CA
:10083800900B0020000C02400018024082B00A4BC6
:100848001A6C42F080521A641A6C02F080520092BC
:10085800009A5A6C42F480425A645B6C03F48043F9
:100868000193019B02B0704700380240F0B58DB08B
:1008780000230793089309930A930B9302683A4B52
:100888009A4201D00DB0F0BDA3F590431A6B42F027
:1008980000721A631A6B02F000720092009A1A6BC7
:1008A80042F080621A631A6B02F080620192019A28
:1008B8001A6B42F000621A631A6B02F0006202922D
:1008C800029A1A6B42F004021A631A6B02F00402CD
:1008D8000392039A1A6B42F001021A631A6B02F030
:1008E80001020492049A1A6B42F002021A631A6B0C
:1008F80002F002020592059A1A6B42F040021A634E
:100908001B6B03F040030693069B322307930226D2
:10091800089603250A950B240B9407A9134800F0A1
:1009280023FC862307930896002709970A950B94BA
:1009380007A90F4800F018FC4FF4005307930896D6
:1009480009970A950B9407A90A4800F00DFC4FF483
:1009580020530793089609970A950B9407A9064808
:1009680000F002FC8EE700BF008002400008024051
:1009780000000240000402400018024000B589B09F
:100988000023039304930593069307930268144B7B
:100998009A4202D009B05DF804FB03F5FE331A6CE5
:1009A80042F400421A641A6C02F400420192019A5D
:1009B8001A6B42F004021A631B6B03F004030293E0
:1009C800029B4FF4E05303930223049303230693FB
:1009D8000623079303A9034800F0C6FBDAE700BF24
:1009E800003C00400008024010B5A8B004460021B1
:1009F80023912491259126912791842202A802F01F
:100A0800C7F82268184B9A4201D028B010BD4FF49D
:100A18008073029302A801F0C3F810BB134B1A6C41
:100A280042F480221A641A6C02F480220092009A1E
:100A38001A6B42F008021A631B6B03F00803019358
:100A4800019B4FF44073239302232493002325939F
:100A5800032326930723279323A9054800F084FB43
:100A6800D3E7FFF7E1FDD9E700480040003802402E
:100A7800000C024070B5AAB00446002125912691C9
:100A8800279128912991842204A802F081F82368EB
:100A9800B3F1A04F01D02AB070BD4FF400130493F6
:100AA80004A801F07DF8002835D11C4C236B43F0D5
:100AB80001032363236B03F001030193019B4FF4AC
:100AC800E85325930223269300252795032328938B
:100AD8000A232993124E25A9304600F045FB4FF40E
:100AE800007325932695279525A9304600F03CFBF1
:100AF800636B43F080036363636B03F080030293CB
:100B0800029B636C43F480436364636C03F4804327
:100B18000393039BBFE7FFF787FDC6E70038024052
:100B280000000240FEE7FEE7FEE7FEE7FEE770474B
:100B38007047704708B500F075F808BD704710B5E4
:100B480004460022018AC06800F00AFC00222189BC
:100B5800606800F005FC002000F076F80122218989
:100B6800606800F0FDFB0123A37410BDDFF834D0EA
:100B78000D480E490E4A002302E0D458C4500433ED
:100B8800C4188C42F9D30B4A0B4C002301E01360C4
:100B98000432A242FBD3FFF7D1FF01F0D5FFFFF7E4
:100BA80029FE704700000520000000203C040020BA
:100BB800642D00087C0500209C0C0020FEE7000046
:100BC80010B504460E4B18784FF47A73B3FBF0F364
:100BD8000C4A1068B0FBF3F000F092F868B90F2CDB
:100BE80001D901200AE0002221464FF0FF3000F031
:100BF80051F8054B1C60002000E0012010BD00BF2B
:100C080004000020000000200800002008B5032090
:100C180000F02EF80020FFF7D3FFFFF70FFE0020AB
:100C280008BD0000034A1168034B1B780B4413608E
:100C3800704700BF940C002004000020014B186886
:100C4800704700BF940C002038B50446FFF7F6FF44
:100C58000546B4F1FF3F02D0044B1B781C44FFF754
:100C6800EDFF401BA042FAD338BD00BF04000020AE
:100C78000649CB6823F4E0631B041B0C000200F454
:100C8800E0600343024A1A43CA60704700ED00E07F
:100C98000000FA0500B5174BDB68C3F30223C3F164
:100CA800070CBCF1040F28BF4FF0040C03F1040E2D
:100CB800BEF1060F14D9033B4FF0FF3E0EFA0CFCB1
:100CC80021EA0C0199400EFA03F322EA03031943BF
:100CD800002807DB0901C9B2074B19545DF804FB6A
:100CE8000023E9E700F00F000901C9B2034B1954CA
:100CF800F4E700BF00ED00E000E400E014ED00E0E0
:100D08000138B0F1807F0BD24FF0E0235861054ADB
:100D1800F02182F823100020986107221A61704799
:100D28000120704700ED00E05079137943EA002371
:100D380007480B50D07893781B0443EA0063507837
:100D480043EA002312781343024A8B50704700BFCE
:100D5800408002404480024010B5002208E0C46888
:100D6800DC6051F80C3043F4400341F80C30013298
:100D7800032A20D8C16802EB82034FEAC30C01EBB7
:100D8800C303002441F80C405C609C60DC60941D47
:100D980040F8243051F80C4044F4801441F80C40D9
:100DA800022ADCD8541C04EB8404D0F80CE00EEBC7
:100DB800C404DC60D5E700238362C268036803F5D6
:100DC80080531A6110BD00B54FF0000E03E00269B0
:100DD800DA600EF1010EBEF1030F29D801690EEB9E
:100DE8008E034FEAC30C01EBC303002241F80C2029
:100DF8005A609A60DA601A625A624FF0004241F80B
:100E08000C2044F2F8525A605A6822F000425A60A4
:100E18000EF1120240F82230BEF1020FD7D8016954
:100E28000EF1010202EB820201EBC202DA60D0E7A6
:100E38000023C36503668366C36683650269036826
:100E480003F58053DA605DF804FB000070B50546D1
:100E58000C46026813683B491940237C002B60D17B
:100E68004FF40003607C00285DD14FF480000343F9
:100E7800A0680343E07F43EA004360690343A07F1F
:100E8800002852D14FF400500343207F43EA003337
:100E9800A0690343207943EA802394F820000028BE
:100EA80045D14FF400700343E07B43EAC013606A06
:100EB800034394F8280043EA00130B4313602B689C
:100EC8001E680120FFF7C0FE2B681E6029688A692A
:100ED80022F0BE021204120CA36C1B0494F84C00FE
:100EE80038BB80200343206D034394F85500012844
:100EF80021D00020034394F8560001281DD000207B
:100F0800034394F85400012819D0002003431343E5
:100F18008B612B689C690120FFF796FE2B689C610A
:100F280070BD00239EE70020A1E70020ACE7002069
:100F3800B9E70020D6E70820DCE70420E0E7022034
:100F4800E4E700BF0F8120FF70B505460C46026834
:100F580002F580539B692B491940237B002B4DD107
:100F68004FF08063607B43EA4063607F002847D18D
:100F78004FF480100343A07B43EA40536069034366
:100F8800207F43EAC013A07F43EA8013206A03430B
:100F980094F8240043EA80030B4302F580529361DE
:100FA8002B6803F580539E690120FFF74DFE2B68DF
:100FB80003F580539E612279A36843EA4263A269DC
:100FC80013432269134394F8252043EAC213A26A03
:100FD80043EA8203226813432A6843F4000302F5B4
:100FE800805213602B6803F580531C680120FFF7BB
:100FF8002BFE2B6803F580531C6070BD0023B1E7FE
:101008000020B7E7233FDEF870B5A4B006460125F7
:101018008DF83C508DF83D5000240D948DF84B40D0
:101028008DF84A508DF848408DF830508DF84C4076
:101038008DF83B4014948DF854401D948DF87840F9
:101048001F948DF882408DF880404FF480431093B0
:101058004FF4006311938DF881400BA9FFF7F6FE5A
:101068008DF80C508DF80D508DF81D508DF80E50E0
:1010780005948DF81C408DF81E4008948DF8245076
:101088008DF804504FF4803302934FF48003069395
:101098004FF4005304938DF825500A940094694640
:1010A8003046FFF751FF24B070BD0000002855D02E
:1010B80030B583B00446D0F88430002B32D0284BAA
:1010C8005A6C42F480425A645B6C03F48043019387
:1010D800019B244B5A6822F400025A605A68A1689E
:1010E8000A435A605B68236803F580531A6842F024
:1010F80001021A60FFF7A2FD0546236803F5805335
:101108001B6813F0010F13D0FFF798FD401BB0F5D3
:10111800FA7FF2D90423C4F88830E023C4F8843075
:10112800012019E02323C0F88430FFF79FFBC6E7AE
:101138002046FFF769FF2046FFF70EFE2046FFF71F
:1011480042FE626800212046FFF7EEFD0020C4F849
:1011580088001023C4F8843003B030BD01207047E4
:10116800003802400038014000230F2B00F2EF80C6
:1011780070B582B061E085685E000324B44025EA5A
:101188000405CC68B4402C438460456825EA020510
:101198004C68C4F300129A402A4342605BE0DC08C2
:1011A800083450F8246003F0070295000F22AA4083
:1011B80026EA020E0A69AA4042EA0E0240F82420F2
:1011C8005DE0092200E0002202FA0EF22A4302340E
:1011D8005F4D45F824205F4A94686FEA0C0224EAC0
:1011E8000C054E6816F4801F01D04CEA0405594CD2
:1011F800A560E46802EA04054E6816F4001F01D0F1
:101208004CEA0405534CE560646802EA04054E683C
:1012180016F4003F01D04CEA04054E4C6560246882
:1012280022404D6815F4803F01D04CEA0402494C35
:10123800226001330F2B00F2888001229A400C684B
:1012480004EA020C32EA0404F3D14C6804F0030403
:10125800013C012C8FD94A6802F00302032A09D005
:10126800C4685D000322AA4024EA02048A68AA40EE
:101278002243C2604A6802F00302022A8FD004683F
:101288004FEA430E032202FA0EF224EA02044A68E5
:1012980002F0030202FA0EF2224302604A6812F4D4
:1012A800403FC6D02C4A546C44F480445464526C79
:1012B80002F480420192019A9C08A51C244A52F823
:1012C800255003F003024FEA820E0F2202FA0EF2B3
:1012D80025EA0205214A90423FF475AF02F5806283
:1012E800904222D002F58062904220D002F58062BE
:1012F80090421ED002F5806290421CD002F58062B6
:1013080090421AD002F58062904218D002F58062AD
:10131800904216D002F58062904214D002F58062A5
:1013280090423FF44EAF0A224EE701224CE70222D8
:101338004AE7032248E7042246E7052244E7062253
:1013480042E7072240E708223EE702B070BD704737
:1013580000380140003C01400038024000000240D3
:101368000AB18161704709048161704770B58AB01C
:10137800002800F097800546046890F8BD343BB318
:10138800032385F8BD34E36B13F4807F01D1002378
:101398002B61286801F074FA2C4654F8106BEC465F
:1013A8000FCCACE80F000FCCACE80F0094E80300BA
:1013B8008CE803002B1D0ECB304601F023FA0446BF
:1013C80058B1022385F8BD34012420460AB070BD07
:1013D80080F8BC34FFF74EFBD2E70021286801F003
:1013E80081FB234616E003EBC30205EB82020121D1
:1013F80082F83D1082F83C30A2F84430002182F88F
:1014080040109164D16403EBC30205EB820251657D
:101418000133DBB269688B42E5D316E004EBC40301
:1014280005EB8303002283F87D2283F87C4283F84E
:101438008022C3F88822C3F88C2204EBC40305EB8E
:101448008303C3F894220134E4B2A142E6D82C46BF
:1014580054F8106BEC460FCCACE80F000FCCACE89E
:101468000F0094E803008CE803002B1D0ECB3046D8
:1014780001F062FA044660B9002385F83830012388
:1014880085F8BD346B6A012B08D0286801F018FB79
:101498009BE7022385F8BD34012496E7284600F02F
:1014A80003F8F2E7012490E7034602680121C0F837
:1014B8000015002083F8F404936943F000639361F6
:1014C800516D024B0B435365704700BF030000107A
:1014D800024A136843F48073136070470070004039
:1014E800002800F0FF8170B582B00446036813F04D
:1014F800010F29D0954B9B6803F00C03042B1AD0DD
:10150800924B9B6803F00C03082B0FD06368B3F56C
:10151800803F40D0002B54D18C4B1A6822F4803283
:101528001A601A6822F480221A6039E0874B5B68D7
:1015380013F4800FEAD0854B1B6813F4003F03D0E7
:101548006368002B00F0D081236813F0020F74D079
:101558007E4B9B6813F00C0F5ED07C4B9B6803F0AE
:101568000C03082B53D0E368002B00F08980774ADE
:10157800136843F001031360FFF760FB0546734BE4
:101588001B6813F0020F72D1FFF758FB401B0228AB
:10159800F5D90320ADE16D4A136843F48033136035
:1015A80063682BB3FFF74AFB0546684B1B6813F4C7
:1015B800003FC9D1FFF742FB401B6428F5D903203F
:1015C80097E1B3F5A02F09D0604B1A6822F4803256
:1015D8001A601A6822F480221A60E1E75B4B1A68E5
:1015E80042F480221A601A6842F480321A60D7E7FF
:1015F800FFF724FB0546554B1B6813F4003FA3D0A7
:10160800FFF71CFB401B6428F5D9032071E14F4B01
:101618005B6813F4800FA6D14C4B1B6813F0020FC4
:1016280003D0E368012B40F06181484A136823F036
:10163800F803216943EAC1031360236813F0080F14
:1016480046D0636983B3414A536F43F0010353673C
:10165800FFF7F4FA05463D4B5B6F13F0020F37D1E5
:10166800FFF7ECFA401B0228F5D9032041E1374A7D
:10167800136823F0F803216943EAC1031360DCE728
:10168800324A136823F001031360FFF7D7FA0546BF
:101698002E4B1B6813F0020FCFD0FFF7CFFA401B79
:1016A8000228F5D9032024E1284A536F23F00103C7
:1016B8005367FFF7C3FA0546244B5B6F13F0020F1D
:1016C80006D0FFF7BBFA401B0228F5D9032010E12A
:1016D800236813F0040F7DD01C4B1B6C13F0805F44
:1016E8001ED11A4B1A6C42F080521A641B6C03F01C
:1016F80080530193019B0125154B1B6813F4807FD0
:1017080010D0A368012B25D0002B3BD10F4B1A6FAB
:1017180022F001021A671A6F22F004021A671EE00B
:101728000025E9E70A4A136843F480731360FFF75A
:1017380085FA0646064B1B6813F4807FE1D1FFF754
:101748007DFA801B6428F5D90320D2E000380240D6
:10175800007000406E4A136F43F001031367A368DB
:1017680033B3FFF76BFA0646694B1B6F13F0020F92
:101778002FD1FFF763FA801B41F288339842F3D9DF
:101788000320B6E0052B09D0614B1A6F22F0010245
:101798001A671A6F22F004021A67E0E75C4B1A6FA7
:1017A80042F004021A671A6F42F001021A67D6E77C
:1017B800FFF744FA0646564B1B6F13F0020F08D08A
:1017C800FFF73CFA801B41F288339842F3D9032093
:1017D8008FE0FDB9A369002B00F08A804C4A92681B
:1017E80002F00C02082A58D0022B19D0484A136874
:1017F80023F080731360FFF721FA0446444B1B68FB
:1018080013F0007F47D0FFF719FA001B0228F5D91B
:1018180003206EE03E4A136C23F080531364D9E72B
:101828003B4A136823F080731360FFF707FA0546F5
:10183800374B1B6813F0007F06D0FFF7FFF9401BFA
:101848000228F5D9032054E0E369226A1343626A47
:1018580043EA8213A26A5208013A43EA0243E26A5F
:1018680043EA026343F00053294A5360136843F084
:1018780080731360FFF7E2F90446254B1B6813F0E9
:10188800007F06D1FFF7DAF9001B0228F5D90320FB
:101898002FE000202DE000202BE01D4A5268012B8C
:1018A80029D002F48003E1698B4226D102F03F037C
:1018B800216A8B4223D1616A47F6C0731340B3EBA8
:1018C800811F1ED102F44031A36A5B08013BB1EBD2
:1018D800034F18D102F07062E36AB2EB036F14D1C0
:1018E800002006E001207047012002E0012000E00E
:1018F800002002B070BD0120FBE70120F9E70120BC
:10190800F7E70120F5E70120F3E70120F1E700BF41
:101918000038024008B5314B9B6803F00C03042BD8
:1019280057D0082B57D12D4B5A6802F03F025B68FD
:1019380013F4800F2AD0294B5968C1F3881C4FEA49
:101948004C11B1EB0C006EEB0E0E4FEA8E1343EA0E
:1019580090638101091A63EB0E03DB0043EA5173BC
:10196800C90011EB0C0C43F10003590200234FEAA4
:101978004C2041EADC51FEF743FC184B5B68C3F38B
:10198800014301335B00B0FBF3F025E0134B5968CA
:10199800C1F3881C4FEA4C11B1EB0C006EEB0E0E34
:1019A8004FEA8E1343EA90638101091A63EB0E0331
:1019B800DB0043EA5173C90011EB0C0C43F100033F
:1019C800990200234FEA8C2041EA9C51FEF718FC4B
:1019D800D3E7034800E0034808BD00BF00380240D1
:1019E80000127A000024F400002800F0A08070B5EE
:1019F8000D460446524B1B6803F00F038B420BD273
:101A08004F4A136823F00F030B431360136803F066
:101A18000F038B4240F08D80236813F0020F17D01C
:101A280013F0040F04D0474A936843F4E0539360DB
:101A3800236813F0080F04D0424A936843F46043C4
:101A48009360404A936823F0F003A1680B439360C6
:101A5800236813F0010F31D06368012B20D0022BCB
:101A680025D0384A126812F0020F64D035498A68C6
:101A780022F0030213438B60FFF7E0F80646314B70
:101A88009B6803F00C036268B3EB820F16D0FFF774
:101A9800D5F8801B41F288339842F0D9032045E0FD
:101AA800284A126812F4003FE0D101203EE0254A9E
:101AB800126812F0007FD9D1012037E0204B1B6853
:101AC80003F00F03AB420AD91D4A136823F00F0332
:101AD8002B431360136803F00F03AB422DD1236827
:101AE80013F0040F06D0174A936823F4E053E16813
:101AF8000B439360236813F0080F07D0114A9368CB
:101B080023F46043216943EAC1039360FFF702FFAE
:101B18000C4B9B68C3F303130B4AD35CD8400B4BA5
:101B280018600B4B1868FFF74BF8002070BD0120B8
:101B380070470120FAE70120F8E70120F6E700BF27
:101B4800003C024000380240342D0008000000200C
:101B580008000020014B1868704700BF00000020F3
:101B680008B5FFF7F7FF044B9B68C3F38223034ACA
:101B7800D35CD84008BD00BF00380240442D00089F
:101B880008B5FFF7E7FF044B9B68C3F34233034AEA
:101B9800D35CD84008BD00BF00380240442D00087F
:101BA800F0B583B00446066816F001060DD0A74BC1
:101BB8009A6822F400029A609A68416B0A439A6014
:101BC800436B002B00F039810026256815F40025A9
:101BD80011D09E4AD2F88C3023F44013E16B0B43AA
:101BE800C2F88C30E36BB3F5801F00F02881002B1E
:101BF80000F027810025236813F4801F0FD0934A33
:101C0800D2F88C3023F44003216C0B43C2F88C309B
:101C1800236CB3F5800F00F0168103B90125236802
:101C280013F0807F00D0012613F0200F40F01081C0
:101C3800236813F0100F0CD0844BD3F88C2022F0BB
:101C48008072C3F88C20D3F88C20A16B0A43C3F8A8
:101C58008C20236813F4804F08D07C4AD2F8903047
:101C680023F44033616E0B43C2F89030236813F4B9
:101C7800004F08D0754AD2F8903023F44023A16E63
:101C88000B43C2F89030236813F4803F08D06F4AA2
:101C9800D2F8903023F44013E16E0B43C2F8903031
:101CA800236813F4003F08D0684AD2F8903023F430
:101CB8004003216F0B43C2F89030236813F0400FA4
:101CC80008D0624AD2F8903023F00303616C0B43CA
:101CD800C2F89030236813F0800F08D05B4AD2F81E
:101CE800903023F00C03A16C0B43C2F890302368AA
:101CF80013F4807F08D0554AD2F8903023F030038F
:101D0800E16C0B43C2F89030236813F4007F08D0CD
:101D18004E4AD2F8903023F0C003216D0B43C2F82D
:101D28009030236813F4806F08D0484AD2F8903076
:101D380023F44073616D0B43C2F89030236813F4A9
:101D4800006F08D0414AD2F8903023F44063A16D67
:101D58000B43C2F89030236813F4805F08D03B4AE5
:101D6800D2F8903023F44053E16D0B43C2F8903021
:101D7800236813F4005F08D0344AD2F8903023F473
:101D88004043216E0B43C2F89030236813F4800F50
:101D980008D02E4AD2F8903023F08063A16F0B430D
:101DA800C2F89030236813F4001F0DD0274AD2F8E8
:101DB800903023F00063E16F0B43C2F89030E36F7B
:101DC800B3F1006F00F0AA80236813F0080F00D069
:101DD800012513F4802F08D01C4AD2F8903023F044
:101DE8004073616F0B43C2F89030236813F4000FFF
:101DF80009D0164AD2F8903023F08053D4F88010D6
:101E08000B43C2F8903026B9236813F0007F00F026
:101E180005810E4A136823F080631360FEF70EFFF6
:101E280006460A4B1B6813F0006F79D0FEF706FFD1
:101E3800801B6428F5D90320F3E00126C5E60126B6
:101E4800D5E60125D7E60126E7E600BF00380240BF
:101E58007F4B1A6C42F080521A641B6C03F080535B
:101E68000193019B7B4A136843F480731360FEF768
:101E7800E5FE0746774B1B6813F4807F06D1FEF713
:101E8800DDFEC01B6428F5D90320CAE0704B1B6F28
:101E980013F4407315D0226B02F440729A4210D0AA
:101EA8006B4B1A6F22F44072196F41F48031196735
:101EB800196F21F4803119671A671B6F13F0010F2E
:101EC80012D1236B03F44072B2F5407F1DD0604AF3
:101ED800936823F4F81393605D490B6F226BC2F388
:101EE8000B0213430B67A3E6FEF7A8FE0746584B01
:101EF8001B6F13F0020FE4D1FEF7A0FEC01B41F2E6
:101F080088339842F3D903208BE05148826822F441
:101F1800F812514919400A438260DDE7012553E769
:101F2800236813F0010F13D0636B8BB9484AD2F8BA
:101F38008430D2F88410606803F4403343EA801395
:101F480001F070610B43A16843EA0173C2F8843061
:101F5800236813F4002F03D0E26BB2F5801F06D07C
:101F680013F4801F1ED0236CB3F5800F1AD1384AA2
:101F7800D2F88430D2F88410606803F4403343EA1E
:101F88008013E06843EA006301F0E0410B43C2F8C4
:101F98008430D2F88C3023F01F03616A01390B4377
:101FA800C2F88C30236813F0807F11D0284AD2F809
:101FB8008400D2F88410666823691B0443EA8613F8
:101FC80000F07060034301F0E0410B43C2F8843035
:101FD800236813F0007F0DD0626823691B0443EA6D
:101FE8008213E26843EA0263A26843EA0273184A6A
:101FF800C2F88430164A136843F080631360FEF712
:102008001DFE0646124B1B6813F0006F06D1FEF743
:1020180015FE801B6428F5D9032002E0012D02D0AB
:10202800002003B0F0BD0A4A136823F08053136000
:10203800FEF704FE0546064B1B6813F0005F0DD043
:10204800FEF7FCFD401B6428F5D90320E9E700BF33
:102058000038024000700040FFFCFF0F236813F4B3
:10206800002F01D0E26B22B113F4801F1DD0236C26
:10207800DBB9354AD2F88830D2F88810606903F4A1
:10208800403343EA8013A06943EA006301F0E0416A
:102098000B43C2F88830D2F88C3023F4F853A16A85
:1020A800013943EA0123C2F88C30236813F4001F76
:1020B80003D0E36FB3F1006F31D0236813F0080F3A
:1020C80019D0214AD2F88810D2F88830606903F410
:1020D800403343EA801301F070610B43E16943EA3E
:1020E8000173C2F88830D2F88C3023F44033E16AA7
:1020F8000B43C2F88C30144A136843F080531360C2
:10210800FEF79CFD0446104B1B6813F0005F19D1C5
:10211800FEF794FD001B6428F5D9032081E70A4ADD
:10212800D2F88800D2F888106569236A1B0443EA4C
:10213800851300F07060034301F0E0410B43C2F8DF
:102148008830BAE700206CE70038024000286FD0DA
:1021580010B50446436A33B94368B3F5827F05D0A6
:102168000023C36102E00023036143610023A362EB
:1021780094F85D30002B52D0022384F85D30226839
:10218800136823F040031360E368B3F5E06F4CD99C
:102198000022B3F5706F18BFB3F5E06F01D00023CC
:1021A800A362636803F48273A16801F404410B43DA
:1021B800216901F002010B43616901F001010B4340
:1021C800A16901F400710B43E16901F038010B4387
:1021D800216A01F080010B43A16A01F400512068D3
:1021E8000B430360638B03F00403616A01F0100181
:1021F8000B43616B01F008010B43E16801F4706166
:102208000B43216813434B602268D36923F40063AE
:10221800D36100202066012384F85D3010BD84F866
:102228005C302046FEF7AAFBA6E74FF48052B0E7E1
:102238000120704710B50446836802691343426958
:102248001343C269134301680868934A0240134361
:102258000B602268536823F44053E1680B435360D2
:10226800A269236A1A4321688B6823F430631343F5
:102278008B602368894A934219D0894A934229D0AE
:10228800884A93423ED0884A934262D0874A934212
:1022980071D0874A934200F08380864A934200F0C7
:1022A8009480854A934200F0A58010233AE0834B3E
:1022B800D3F8903003F00303032B09D8DFE803F0C9
:1022C8000204AE0601232DE004232BE0082329E0B5
:1022D800102327E0794BD3F8903003F00C030C2B34
:1022E8000ED8DFE803F0070D0D0D090D0D0D9D0D3E
:1022F8000D0D0B00002315E0042313E0082311E063
:1023080010230FE06D4BD3F8903003F03003202BEF
:1023180000F0888019D8002B00F08680102B40F040
:1023280085800423E069B0F5004F00F0AB80082BEE
:1023380000F20C81DFE813F0E800FB00E6000A0178
:10234800FE000A010A010A010101302B70D108239D
:10235800E8E75A4BD3F8903003F0C003802B69D0DC
:1023680005D8002B68D0402B68D10423DAE7C02BAE
:1023780066D10823D6E7514BD3F8903003F4407365
:10238800B3F5007F5ED006D8002B5DD0B3F5807F13
:102398005CD10423C6E7B3F5407F59D10823C1E7D0
:1023A800464BD3F8903003F44063B3F5006F51D037
:1023B80006D8002B50D0B3F5806F4FD10423B1E776
:1023C800B3F5406F4CD10823ACE73C4BD3F89030C1
:1023D80003F44053B3F5005F44D006D8002B43D034
:1023E800B3F5805F42D104239CE7B3F5405F3FD14A
:1023F800082397E7314BD3F8903003F44043B3F503
:10240800004F37D005D8BBB3B3F5804F36D104237E
:1024180088E7B3F5404F33D1082383E7022381E7E8
:1024280002237FE702237DE700237BE7102379E778
:10243800102377E7022375E7002373E7102371E77A
:1024480010236FE702236DE700236BE7102369E78A
:10245800102367E7022365E7012363E7102361E799
:1024680010235FE702235DE700235BE7102359E7AA
:10247800102357E7022355E7002353E7102351E7BA
:1024880010234FE7082B5BD8DFE803F01A343A5AD9
:10249800375A5A5A1E0000BFF369FFEF0010014077
:1024A8000044004000480040004C004000500040FC
:1024B8000014014000780040007C004000380240D1
:1024C800FFF74EFB00283DD06268530803EB40003D
:1024D800B0FBF2F0A0F110024FF6EF739A4233D836
:1024E80083B223F00F03C0F3420018432368D86077
:1024F800002030E0FFF744FBE4E7FFF70BFAE1E7E1
:102508001748E1E7164802E0FFF72AFB00B36368C3
:1025180000EB5300B0FBF3F0A0F110024FF6EF739D
:102528009A4217D8236880B2D860002013E0FFF7DA
:1025380027FBEBE7FFF7EEF9E8E74FF40040E6E7A3
:10254800012008E0002006E0012004E0012002E06C
:10255800002000E001200023A366E36610BD00BF51
:102568000024F400436A13F0010F06D00268536890
:1025780023F40033816A0B435360436A13F0020F5C
:1025880006D00268536823F48033C16A0B43536052
:10259800436A13F0040F06D00268536823F48023BB
:1025A800016B0B435360436A13F0080F06D00268AF
:1025B800536823F40043416B0B435360436A13F0A1
:1025C800100F06D00268936823F48053816B0B4385
:1025D8009360436A13F0200F06D00268936823F4CF
:1025E8000053C16B0B439360436A13F0400F0AD04A
:1025F8000268536823F48013016C0B435360036C27
:10260800B3F5801F0BD0436A13F0800F06D0026821
:10261800536823F40023816C0B43536070470268AE
:10262800536823F4C003416C0B435360EBE72DE977
:10263800F84305460F4616469946DDF820802C6873
:10264800E46937EA04030CBF4FF0010C4FF0000CAB
:10265800B44555D1B8F1FF3FF1D0FEF7EFFAA0EB42
:10266800090040452ED8B8F1000F2BD02B681A6806
:1026780012F0040FE3D0DA6912F4006FDFD04FF4E0
:1026880000621A622A6852E8003F23F4D07342E8D5
:1026980000310029F6D12A6802F1080353E8003F07
:1026A80023F00103083242E800310029F3D1202346
:1026B800EB67C5F88030C5F88430002385F878309A
:1026C80003201EE02A6852E8003F23F4D07342E852
:1026D80000310029F6D12A6802F1080353E8003FC7
:1026E80023F00103083242E800310029F3D1202306
:1026F800EB67C5F88030002385F87830032000E0C8
:102708000020BDE8F88310B582B004460023C0F865
:102718008430FEF793FA23681B6813F0080F0AD178
:102728002023E367C4F8803000202066606684F8C0
:10273800780002B010BD6FF07E430093034600227C
:102748004FF400112046FFF772FF0028E8D003205D
:10275800EFE768B310B50446C36F03B32423E367F8
:102768002268136823F0010313602046FFF762FD17
:10277800012813D0636ABBB92268536823F49043D5
:1027880053602268936823F02A03936022681368D1
:1027980043F0010313602046FFF7B5FF10BD80F832
:1027A8007830FEF721F9D9E72046FFF7DBFEE3E7AB
:1027B8000120704782B000230193019B01330193EC
:1027C800019A0F4B9A4215D80369002BF5DA0023BA
:1027D8000193036943F001030361019B01330193F2
:1027E800019A074B9A4208D8036913F0010FF4D1F4
:1027F800002000E0032002B070470320FBE700BF81
:10280800400D030084B010B5044603A880E80E000C
:10281800089B012B1DD1A36B23F48033A363E268CB
:10282800164B1340E360E36823F44013E3600F9B07
:10283800012B09D02046FFF7BDFF069B012B14D0C2
:10284800BDE8104004B07047E36843F48013E360C8
:10285800F0E7E36843F04003E3602046FFF7AAFF90
:10286800A36B43F48033A363E7E7A36843F006034D
:10287800A360A36843F02003A360E1E7BFFFBDFFA7
:10288800836823F0010383600020704782B000232F
:102898000193019B01330193019A0F4B9A4215D87A
:1028A8000369002BF5DA00230193890141F0200127
:1028B8000161019B01330193019A074B9A4208D8A1
:1028C800036913F0200FF4D1002000E0032002B0C8
:1028D80070470320FBE700BF400D030082B00023D0
:1028E8000193019B01330193019A0E4B9A4213D82D
:1028F8000369002BF5DA0023019310230361019B80
:1029080001330193019A074B9A4208D8036913F0DF
:10291800100FF4D1002000E0032002B0704703201C
:10292800FBE700BF400D0300D0F800381943C0F89A
:10293800001800207047000084B02DE9F0410446DB
:1029480007A880E80E00002306E003F1400204EB2C
:1029580082020021516001330E2BF6D9119F27BB4B
:10296800D4F8043843F00203C4F80438A36B23F402
:102978000013A363236843F040032360236843F0F4
:10298800800323600023C4F8003E04F50065D4F8F2
:102998000038C4F800380C9B012B10D1099B4BB9A7
:1029A80000212046FFF7C0FF0DE0A36B43F400139E
:1029B800A363E7E701212046FFF7B6FF03E0032101
:1029C8002046FFF7B1FF10212046FFF75FFF804642
:1029D80008B14FF001082046FFF780FF08B14FF01B
:1029E800010800232B616B61EB610AE0C3B94FF06A
:1029F8000060C2F8000900220A614FF67F328A603F
:102A080001330799994210D904EB431202F510617A
:102A1800D2F800090028E9DB0020C2F80009EAE73B
:102A28004FF09040C2F80009E5E700230AE0C3B17F
:102A38004FF0904CC2F800CB002202614FF67F3273
:102A480082600133994211D904EB431202F53060D8
:102A5800D2F8006B002EEADB4FF0000CC2F800CB76
:102A6800EAE74FF0006CC2F800CBE5E72B6923F4E6
:102A780080732B610023A3616FF0804363610A9B1D
:102A88001BB9A36943F01003A361A2690A4B13435E
:102A9800A3610D9B1BB1A36943F00803A361012F38
:102AA80004D04046BDE8F04104B07047A269034B2A
:102AB8001343A361F5E700BF00383C8004000040E1
:102AC800D0F8003E23F00303C0F8003ED0F80438E5
:102AD80043F00203C0F8043800207047406900F052
:102AE8000100704738B50546C36823F0C043C3608A
:102AF800012913D019BBC36843F08043C360002485
:102B08000120FEF7A1F801342846FFF7E7FF08B1D6
:102B1800312CF5D9322C14D0002038BDC36843F0CD
:102B28000053C36000240120FEF78EF801342846C4
:102B3800FFF7D4FF0128EDD0312CF4D9EAE70120C2
:102B4800EBE70120E9E7000070B50D4E0D4D761B4F
:102B5800B61006D0002455F8043B01349847A64225
:102B6800F9D1094E094D761B00F0D4F8B61006D0FD
:102B7800002455F8043B01349847A642F9D170BDAA
:102B8800582D0008582D0008602D0008582D000801
:102B9800830730B548D0541E002A3FD0CAB2034636
:102BA80001E0013C3AD303F8012B9D07F9D1032C2E
:102BB8002DD9CDB245EA05250F2C45EA054536D96C
:102BC800A4F1100222F00F0C03F1200EE6444FEAA4
:102BD800121C03F1100242E9045542E90255103271
:102BE8007245F8D10CF1010214F00C0F03EB02123C
:102BF80004F00F0C13D0ACF1040323F003030433E7
:102C0800134442F8045B9342FBD10CF003042CB14B
:102C1800CAB21C4403F8012B9C42FBD130BD644668
:102C28001346002CF4D1F9E703461446BFE71A46C9
:102C3800A446E0E7024B13B1024800F005B870471C
:102C4800000000005D2C0008002301461A461846C3
:102C580000F01AB838B5084B084D5B1B9C1007D01C
:102C6800043B1D44013C55F804399847002CF9D120
:102C7800BDE8384000F054B8642D0008602D000805
:102C8800704700BF704700BF2DE9F047DFF87CA010
:102C98000646DAF8000098460F469146FFF7F0FF1F
:102CA8001B4B1B68D3F8484124B365681F2D26DCED
:102CB8005EB96B1C0235DAF80000636044F82570D1
:102CC800FFF7E0FF0020BDE8F08704EB8501012352
:102CD800C1F88890D4F88821AB401A43022EC4F872
:102CE8008821C1F80881E4D1D4F88C211343C4F8B1
:102CF8008C31DEE703F5A674C3F84841D5E7DAF866
:102D08000000FFF7BFFF4FF0FF30DCE7380400207A
:102D18004C2D0008F8B500BFF8BC08BC9E467047AB
:0C2D2800F8B500BFF8BC08BC9E46704720
:102D34000000000000000000010203040607080967
:0C2D440000000000010203041000002049
:082D5000E8D4FF7F0100000040
:082D58003D2C0008ED0100080C
:042D6000C90100089D
:102D64000024F40001000000100000000000000036
:102D740000000000FC02002064030020CC030020BB
:102D8400000000000000000000000000000000003F
:102D9400000000000000000000000000000000002F
:102DA400000000000000000000000000000000001F
:102DB400000000000000000000000000000000000F
:102DC40000000000000000000000000000000000FF
:102DD40000000000000000000000000000000000EF
:102DE40000000000000000000000000000000000DF
:102DF40000000000000000000000000000000000CF
:102E040000000000000000000000000000000000BE
:102E140000000000000000000100000000000000AD
:102E24000E33CDAB34126DE6ECDE05000B00000072
:102E3400000000000000000000000000000000008E
:102E4400000000000000000000000000000000007E
:102E5400000000000000000000000000000000006E
:102E6400000000000000000000000000000000005E
:0C3194000000000000000000980C00206B
:1031A000000000000000000000000000000000001F
:1031B000000000000000000000000000000000000F
:1031C00000000000000000000000000000000000FF
:1031D00000000000000000000000000000000000EF
:1031E00000000000000000000000000000000000DF
:1031F00000000000000000000000000000000000CF
:1032000000000000000000000000000000000000BE
:1032100000000000000000000000000000000000AE
:10322000000000000000000000000000000000009E
:10323000000000000000000000000000000000008E
:10324000000000000000000000000000000000007E
:10325000000000000000000000000000000000006E
:10326000000000000000000000000000000000005E
:10327000000000000000000000000000000000004E
:10328000000000000000000000000000000000003E
:10329000000000000000000000000000000000002E
:1032A000000000000000000000000000000000001E
:1032B000000000000000000000000000000000000E
:1032C00000000000000000000000000000000000FE
:1032D00000000000000000000000000000000000EE
:0400000508000B756F
:00000001FF
